{
  "_format": "hh-sol-artifact-1",
  "contractName": "MintyWay_MintPro",
  "sourceName": "contracts/permissions/proPlan.sol",
  "abi": [
    {
      "inputs": [
        {
          "internalType": "string",
          "name": "name",
          "type": "string"
        },
        {
          "internalType": "string",
          "name": "symbol",
          "type": "string"
        },
        {
          "internalType": "uint256",
          "name": "amout",
          "type": "uint256"
        }
      ],
      "stateMutability": "nonpayable",
      "type": "constructor"
    },
    {
      "inputs": [],
      "name": "AccessControlBadConfirmation",
      "type": "error"
    },
    {
      "inputs": [
        {
          "internalType": "address",
          "name": "account",
          "type": "address"
        },
        {
          "internalType": "bytes32",
          "name": "neededRole",
          "type": "bytes32"
        }
      ],
      "name": "AccessControlUnauthorizedAccount",
      "type": "error"
    },
    {
      "inputs": [
        {
          "internalType": "address",
          "name": "spender",
          "type": "address"
        },
        {
          "internalType": "uint256",
          "name": "allowance",
          "type": "uint256"
        },
        {
          "internalType": "uint256",
          "name": "needed",
          "type": "uint256"
        }
      ],
      "name": "ERC20InsufficientAllowance",
      "type": "error"
    },
    {
      "inputs": [
        {
          "internalType": "address",
          "name": "sender",
          "type": "address"
        },
        {
          "internalType": "uint256",
          "name": "balance",
          "type": "uint256"
        },
        {
          "internalType": "uint256",
          "name": "needed",
          "type": "uint256"
        }
      ],
      "name": "ERC20InsufficientBalance",
      "type": "error"
    },
    {
      "inputs": [
        {
          "internalType": "address",
          "name": "approver",
          "type": "address"
        }
      ],
      "name": "ERC20InvalidApprover",
      "type": "error"
    },
    {
      "inputs": [
        {
          "internalType": "address",
          "name": "receiver",
          "type": "address"
        }
      ],
      "name": "ERC20InvalidReceiver",
      "type": "error"
    },
    {
      "inputs": [
        {
          "internalType": "address",
          "name": "sender",
          "type": "address"
        }
      ],
      "name": "ERC20InvalidSender",
      "type": "error"
    },
    {
      "inputs": [
        {
          "internalType": "address",
          "name": "spender",
          "type": "address"
        }
      ],
      "name": "ERC20InvalidSpender",
      "type": "error"
    },
    {
      "inputs": [
        {
          "internalType": "address",
          "name": "owner",
          "type": "address"
        }
      ],
      "name": "OwnableInvalidOwner",
      "type": "error"
    },
    {
      "inputs": [
        {
          "internalType": "address",
          "name": "account",
          "type": "address"
        }
      ],
      "name": "OwnableUnauthorizedAccount",
      "type": "error"
    },
    {
      "anonymous": false,
      "inputs": [
        {
          "indexed": true,
          "internalType": "address",
          "name": "owner",
          "type": "address"
        },
        {
          "indexed": true,
          "internalType": "address",
          "name": "spender",
          "type": "address"
        },
        {
          "indexed": false,
          "internalType": "uint256",
          "name": "value",
          "type": "uint256"
        }
      ],
      "name": "Approval",
      "type": "event"
    },
    {
      "anonymous": false,
      "inputs": [
        {
          "indexed": true,
          "internalType": "address",
          "name": "previousOwner",
          "type": "address"
        },
        {
          "indexed": true,
          "internalType": "address",
          "name": "newOwner",
          "type": "address"
        }
      ],
      "name": "OwnershipTransferred",
      "type": "event"
    },
    {
      "anonymous": false,
      "inputs": [
        {
          "indexed": true,
          "internalType": "bytes32",
          "name": "role",
          "type": "bytes32"
        },
        {
          "indexed": true,
          "internalType": "bytes32",
          "name": "previousAdminRole",
          "type": "bytes32"
        },
        {
          "indexed": true,
          "internalType": "bytes32",
          "name": "newAdminRole",
          "type": "bytes32"
        }
      ],
      "name": "RoleAdminChanged",
      "type": "event"
    },
    {
      "anonymous": false,
      "inputs": [
        {
          "indexed": true,
          "internalType": "bytes32",
          "name": "role",
          "type": "bytes32"
        },
        {
          "indexed": true,
          "internalType": "address",
          "name": "account",
          "type": "address"
        },
        {
          "indexed": true,
          "internalType": "address",
          "name": "sender",
          "type": "address"
        }
      ],
      "name": "RoleGranted",
      "type": "event"
    },
    {
      "anonymous": false,
      "inputs": [
        {
          "indexed": true,
          "internalType": "bytes32",
          "name": "role",
          "type": "bytes32"
        },
        {
          "indexed": true,
          "internalType": "address",
          "name": "account",
          "type": "address"
        },
        {
          "indexed": true,
          "internalType": "address",
          "name": "sender",
          "type": "address"
        }
      ],
      "name": "RoleRevoked",
      "type": "event"
    },
    {
      "anonymous": false,
      "inputs": [
        {
          "indexed": true,
          "internalType": "address",
          "name": "from",
          "type": "address"
        },
        {
          "indexed": true,
          "internalType": "address",
          "name": "to",
          "type": "address"
        },
        {
          "indexed": false,
          "internalType": "uint256",
          "name": "value",
          "type": "uint256"
        }
      ],
      "name": "Transfer",
      "type": "event"
    },
    {
      "inputs": [],
      "name": "BLACKLIST_MANAGER_ROLE",
      "outputs": [
        {
          "internalType": "bytes32",
          "name": "",
          "type": "bytes32"
        }
      ],
      "stateMutability": "view",
      "type": "function"
    },
    {
      "inputs": [],
      "name": "BURNER_ROLE",
      "outputs": [
        {
          "internalType": "bytes32",
          "name": "",
          "type": "bytes32"
        }
      ],
      "stateMutability": "view",
      "type": "function"
    },
    {
      "inputs": [],
      "name": "DEFAULT_ADMIN_ROLE",
      "outputs": [
        {
          "internalType": "bytes32",
          "name": "",
          "type": "bytes32"
        }
      ],
      "stateMutability": "view",
      "type": "function"
    },
    {
      "inputs": [],
      "name": "FREEZER_ROLE",
      "outputs": [
        {
          "internalType": "bytes32",
          "name": "",
          "type": "bytes32"
        }
      ],
      "stateMutability": "view",
      "type": "function"
    },
    {
      "inputs": [],
      "name": "MINTER_ROLE",
      "outputs": [
        {
          "internalType": "bytes32",
          "name": "",
          "type": "bytes32"
        }
      ],
      "stateMutability": "view",
      "type": "function"
    },
    {
      "inputs": [],
      "name": "RECOVER_ROLE",
      "outputs": [
        {
          "internalType": "bytes32",
          "name": "",
          "type": "bytes32"
        }
      ],
      "stateMutability": "view",
      "type": "function"
    },
    {
      "inputs": [
        {
          "internalType": "address",
          "name": "account",
          "type": "address"
        }
      ],
      "name": "addBlacklistManager",
      "outputs": [],
      "stateMutability": "nonpayable",
      "type": "function"
    },
    {
      "inputs": [
        {
          "internalType": "address",
          "name": "account",
          "type": "address"
        }
      ],
      "name": "addBurner",
      "outputs": [],
      "stateMutability": "nonpayable",
      "type": "function"
    },
    {
      "inputs": [
        {
          "internalType": "address",
          "name": "account",
          "type": "address"
        }
      ],
      "name": "addFreezer",
      "outputs": [],
      "stateMutability": "nonpayable",
      "type": "function"
    },
    {
      "inputs": [
        {
          "internalType": "address",
          "name": "account",
          "type": "address"
        }
      ],
      "name": "addMinter",
      "outputs": [],
      "stateMutability": "nonpayable",
      "type": "function"
    },
    {
      "inputs": [
        {
          "internalType": "address",
          "name": "account",
          "type": "address"
        }
      ],
      "name": "addRecoverer",
      "outputs": [],
      "stateMutability": "nonpayable",
      "type": "function"
    },
    {
      "inputs": [
        {
          "internalType": "address",
          "name": "account",
          "type": "address"
        }
      ],
      "name": "addToBlacklist",
      "outputs": [],
      "stateMutability": "nonpayable",
      "type": "function"
    },
    {
      "inputs": [
        {
          "internalType": "address",
          "name": "owner",
          "type": "address"
        },
        {
          "internalType": "address",
          "name": "spender",
          "type": "address"
        }
      ],
      "name": "allowance",
      "outputs": [
        {
          "internalType": "uint256",
          "name": "",
          "type": "uint256"
        }
      ],
      "stateMutability": "view",
      "type": "function"
    },
    {
      "inputs": [
        {
          "internalType": "address",
          "name": "spender",
          "type": "address"
        },
        {
          "internalType": "uint256",
          "name": "value",
          "type": "uint256"
        }
      ],
      "name": "approve",
      "outputs": [
        {
          "internalType": "bool",
          "name": "",
          "type": "bool"
        }
      ],
      "stateMutability": "nonpayable",
      "type": "function"
    },
    {
      "inputs": [
        {
          "internalType": "address",
          "name": "account",
          "type": "address"
        }
      ],
      "name": "balanceOf",
      "outputs": [
        {
          "internalType": "uint256",
          "name": "",
          "type": "uint256"
        }
      ],
      "stateMutability": "view",
      "type": "function"
    },
    {
      "inputs": [
        {
          "internalType": "address",
          "name": "from",
          "type": "address"
        },
        {
          "internalType": "uint256",
          "name": "amount",
          "type": "uint256"
        }
      ],
      "name": "burn",
      "outputs": [],
      "stateMutability": "nonpayable",
      "type": "function"
    },
    {
      "inputs": [
        {
          "internalType": "address",
          "name": "account",
          "type": "address"
        }
      ],
      "name": "checkBlacklisted",
      "outputs": [
        {
          "internalType": "bool",
          "name": "",
          "type": "bool"
        }
      ],
      "stateMutability": "view",
      "type": "function"
    },
    {
      "inputs": [
        {
          "internalType": "address",
          "name": "account",
          "type": "address"
        }
      ],
      "name": "checkFrozen",
      "outputs": [
        {
          "internalType": "bool",
          "name": "",
          "type": "bool"
        }
      ],
      "stateMutability": "view",
      "type": "function"
    },
    {
      "inputs": [],
      "name": "decimals",
      "outputs": [
        {
          "internalType": "uint8",
          "name": "",
          "type": "uint8"
        }
      ],
      "stateMutability": "view",
      "type": "function"
    },
    {
      "inputs": [
        {
          "internalType": "address",
          "name": "account",
          "type": "address"
        }
      ],
      "name": "freezeAccount",
      "outputs": [],
      "stateMutability": "nonpayable",
      "type": "function"
    },
    {
      "inputs": [
        {
          "internalType": "bytes32",
          "name": "role",
          "type": "bytes32"
        }
      ],
      "name": "getRoleAdmin",
      "outputs": [
        {
          "internalType": "bytes32",
          "name": "",
          "type": "bytes32"
        }
      ],
      "stateMutability": "view",
      "type": "function"
    },
    {
      "inputs": [
        {
          "internalType": "bytes32",
          "name": "role",
          "type": "bytes32"
        },
        {
          "internalType": "uint256",
          "name": "index",
          "type": "uint256"
        }
      ],
      "name": "getRoleMember",
      "outputs": [
        {
          "internalType": "address",
          "name": "",
          "type": "address"
        }
      ],
      "stateMutability": "view",
      "type": "function"
    },
    {
      "inputs": [
        {
          "internalType": "bytes32",
          "name": "role",
          "type": "bytes32"
        }
      ],
      "name": "getRoleMemberCount",
      "outputs": [
        {
          "internalType": "uint256",
          "name": "",
          "type": "uint256"
        }
      ],
      "stateMutability": "view",
      "type": "function"
    },
    {
      "inputs": [
        {
          "internalType": "bytes32",
          "name": "role",
          "type": "bytes32"
        },
        {
          "internalType": "address",
          "name": "account",
          "type": "address"
        }
      ],
      "name": "grantRole",
      "outputs": [],
      "stateMutability": "nonpayable",
      "type": "function"
    },
    {
      "inputs": [
        {
          "internalType": "bytes32",
          "name": "role",
          "type": "bytes32"
        },
        {
          "internalType": "address",
          "name": "account",
          "type": "address"
        }
      ],
      "name": "hasRole",
      "outputs": [
        {
          "internalType": "bool",
          "name": "",
          "type": "bool"
        }
      ],
      "stateMutability": "view",
      "type": "function"
    },
    {
      "inputs": [],
      "name": "isBlacklistable",
      "outputs": [
        {
          "internalType": "bool",
          "name": "",
          "type": "bool"
        }
      ],
      "stateMutability": "view",
      "type": "function"
    },
    {
      "inputs": [],
      "name": "isBurnable",
      "outputs": [
        {
          "internalType": "bool",
          "name": "",
          "type": "bool"
        }
      ],
      "stateMutability": "view",
      "type": "function"
    },
    {
      "inputs": [],
      "name": "isFreezable",
      "outputs": [
        {
          "internalType": "bool",
          "name": "",
          "type": "bool"
        }
      ],
      "stateMutability": "view",
      "type": "function"
    },
    {
      "inputs": [],
      "name": "isMintable",
      "outputs": [
        {
          "internalType": "bool",
          "name": "",
          "type": "bool"
        }
      ],
      "stateMutability": "view",
      "type": "function"
    },
    {
      "inputs": [],
      "name": "isRecoverable",
      "outputs": [
        {
          "internalType": "bool",
          "name": "",
          "type": "bool"
        }
      ],
      "stateMutability": "view",
      "type": "function"
    },
    {
      "inputs": [
        {
          "internalType": "address",
          "name": "to",
          "type": "address"
        },
        {
          "internalType": "uint256",
          "name": "amount",
          "type": "uint256"
        }
      ],
      "name": "mint",
      "outputs": [],
      "stateMutability": "nonpayable",
      "type": "function"
    },
    {
      "inputs": [],
      "name": "name",
      "outputs": [
        {
          "internalType": "string",
          "name": "",
          "type": "string"
        }
      ],
      "stateMutability": "view",
      "type": "function"
    },
    {
      "inputs": [],
      "name": "owner",
      "outputs": [
        {
          "internalType": "address",
          "name": "",
          "type": "address"
        }
      ],
      "stateMutability": "view",
      "type": "function"
    },
    {
      "inputs": [],
      "name": "points",
      "outputs": [
        {
          "internalType": "uint256",
          "name": "",
          "type": "uint256"
        }
      ],
      "stateMutability": "view",
      "type": "function"
    },
    {
      "inputs": [
        {
          "internalType": "address",
          "name": "from",
          "type": "address"
        },
        {
          "internalType": "address",
          "name": "to",
          "type": "address"
        },
        {
          "internalType": "uint256",
          "name": "amount",
          "type": "uint256"
        }
      ],
      "name": "recover",
      "outputs": [],
      "stateMutability": "nonpayable",
      "type": "function"
    },
    {
      "inputs": [
        {
          "internalType": "address",
          "name": "account",
          "type": "address"
        }
      ],
      "name": "removeBlacklistManager",
      "outputs": [],
      "stateMutability": "nonpayable",
      "type": "function"
    },
    {
      "inputs": [
        {
          "internalType": "address",
          "name": "account",
          "type": "address"
        }
      ],
      "name": "removeBurner",
      "outputs": [],
      "stateMutability": "nonpayable",
      "type": "function"
    },
    {
      "inputs": [
        {
          "internalType": "address",
          "name": "account",
          "type": "address"
        }
      ],
      "name": "removeFreezer",
      "outputs": [],
      "stateMutability": "nonpayable",
      "type": "function"
    },
    {
      "inputs": [
        {
          "internalType": "address",
          "name": "account",
          "type": "address"
        }
      ],
      "name": "removeFromBlacklist",
      "outputs": [],
      "stateMutability": "nonpayable",
      "type": "function"
    },
    {
      "inputs": [
        {
          "internalType": "address",
          "name": "account",
          "type": "address"
        }
      ],
      "name": "removeMinter",
      "outputs": [],
      "stateMutability": "nonpayable",
      "type": "function"
    },
    {
      "inputs": [
        {
          "internalType": "address",
          "name": "account",
          "type": "address"
        }
      ],
      "name": "removeRecoverer",
      "outputs": [],
      "stateMutability": "nonpayable",
      "type": "function"
    },
    {
      "inputs": [],
      "name": "renounceOwnership",
      "outputs": [],
      "stateMutability": "nonpayable",
      "type": "function"
    },
    {
      "inputs": [
        {
          "internalType": "bytes32",
          "name": "role",
          "type": "bytes32"
        },
        {
          "internalType": "address",
          "name": "callerConfirmation",
          "type": "address"
        }
      ],
      "name": "renounceRole",
      "outputs": [],
      "stateMutability": "nonpayable",
      "type": "function"
    },
    {
      "inputs": [],
      "name": "revokeBlacklistManager",
      "outputs": [],
      "stateMutability": "nonpayable",
      "type": "function"
    },
    {
      "inputs": [],
      "name": "revokeBurner",
      "outputs": [],
      "stateMutability": "nonpayable",
      "type": "function"
    },
    {
      "inputs": [],
      "name": "revokeFreezer",
      "outputs": [],
      "stateMutability": "nonpayable",
      "type": "function"
    },
    {
      "inputs": [],
      "name": "revokeMinter",
      "outputs": [],
      "stateMutability": "nonpayable",
      "type": "function"
    },
    {
      "inputs": [],
      "name": "revokeRecoverer",
      "outputs": [],
      "stateMutability": "nonpayable",
      "type": "function"
    },
    {
      "inputs": [
        {
          "internalType": "bytes32",
          "name": "role",
          "type": "bytes32"
        },
        {
          "internalType": "address",
          "name": "account",
          "type": "address"
        }
      ],
      "name": "revokeRole",
      "outputs": [],
      "stateMutability": "nonpayable",
      "type": "function"
    },
    {
      "inputs": [
        {
          "internalType": "bytes4",
          "name": "interfaceId",
          "type": "bytes4"
        }
      ],
      "name": "supportsInterface",
      "outputs": [
        {
          "internalType": "bool",
          "name": "",
          "type": "bool"
        }
      ],
      "stateMutability": "view",
      "type": "function"
    },
    {
      "inputs": [],
      "name": "symbol",
      "outputs": [
        {
          "internalType": "string",
          "name": "",
          "type": "string"
        }
      ],
      "stateMutability": "view",
      "type": "function"
    },
    {
      "inputs": [],
      "name": "totalSupply",
      "outputs": [
        {
          "internalType": "uint256",
          "name": "",
          "type": "uint256"
        }
      ],
      "stateMutability": "view",
      "type": "function"
    },
    {
      "inputs": [
        {
          "internalType": "address",
          "name": "to",
          "type": "address"
        },
        {
          "internalType": "uint256",
          "name": "amount",
          "type": "uint256"
        }
      ],
      "name": "transfer",
      "outputs": [
        {
          "internalType": "bool",
          "name": "",
          "type": "bool"
        }
      ],
      "stateMutability": "nonpayable",
      "type": "function"
    },
    {
      "inputs": [
        {
          "internalType": "address",
          "name": "from",
          "type": "address"
        },
        {
          "internalType": "address",
          "name": "to",
          "type": "address"
        },
        {
          "internalType": "uint256",
          "name": "value",
          "type": "uint256"
        }
      ],
      "name": "transferFrom",
      "outputs": [
        {
          "internalType": "bool",
          "name": "",
          "type": "bool"
        }
      ],
      "stateMutability": "nonpayable",
      "type": "function"
    },
    {
      "inputs": [
        {
          "internalType": "address",
          "name": "newOwner",
          "type": "address"
        }
      ],
      "name": "transferOwnership",
      "outputs": [],
      "stateMutability": "nonpayable",
      "type": "function"
    },
    {
      "inputs": [
        {
          "internalType": "address",
          "name": "account",
          "type": "address"
        }
      ],
      "name": "unfreezeAccount",
      "outputs": [],
      "stateMutability": "nonpayable",
      "type": "function"
    }
  ],
  "bytecode": "0x60806040526001600c60006101000a81548160ff0219169083151502179055506001600c60016101000a81548160ff0219169083151502179055506001600c60026101000a81548160ff0219169083151502179055506001600c60036101000a81548160ff0219169083151502179055506001600c60046101000a81548160ff0219169083151502179055506103e8600d553480156200009e57600080fd5b5060405162004abe38038062004abe8339818101604052810190620000c4919062000d73565b3383838160039081620000d891906200104e565b508060049081620000ea91906200104e565b505050600073ffffffffffffffffffffffffffffffffffffffff168173ffffffffffffffffffffffffffffffffffffffff1603620001625760006040517f1e4fbdf70000000000000000000000000000000000000000000000000000000081526004016200015991906200117a565b60405180910390fd5b6200017381620001fa60201b60201c565b50620001896000801b33620002c060201b60201c565b506200019c33826200031160201b60201c565b620001ad336200039e60201b60201c565b620001be33620003ff60201b60201c565b620001cf336200046060201b60201c565b620001e033620004c160201b60201c565b620001f1336200052260201b60201c565b505050620012b4565b6000600760009054906101000a900473ffffffffffffffffffffffffffffffffffffffff16905081600760006101000a81548173ffffffffffffffffffffffffffffffffffffffff021916908373ffffffffffffffffffffffffffffffffffffffff1602179055508173ffffffffffffffffffffffffffffffffffffffff168173ffffffffffffffffffffffffffffffffffffffff167f8be0079c531659141344cd1fd0a4f28419497f9722a3daafe3b4186f6b6457e060405160405180910390a35050565b600080620002d584846200058360201b60201c565b9050801562000307576200030583600660008781526020019081526020016000206200068760201b90919060201c565b505b8091505092915050565b600073ffffffffffffffffffffffffffffffffffffffff168273ffffffffffffffffffffffffffffffffffffffff1603620003865760006040517fec442f050000000000000000000000000000000000000000000000000000000081526004016200037d91906200117a565b60405180910390fd5b6200039a60008383620006bf60201b60201c565b5050565b620003ae620008ef60201b60201c565b620003e07f9f2df0fed2c77648de5860a4cc508cd0818c85b8b8a1ab4ceeef8d981c8956a6826200099160201b60201c565b6064600d6000828254620003f59190620011c6565b9250508190555050565b6200040f620008ef60201b60201c565b620004417f3c11d16cbaffd01df69ce1c404f6340ee057498f5f00246190ea54220576a848826200099160201b60201c565b6064600d6000828254620004569190620011c6565b9250508190555050565b62000470620008ef60201b60201c565b620004a27f92de27771f92d6942691d73358b3a4673e4880de8356f8f2cf452be87e02d363826200099160201b60201c565b6064600d6000828254620004b79190620011c6565b9250508190555050565b620004d1620008ef60201b60201c565b620005037ff988e4fb62b8e14f4820fed03192306ddf4d7dbfa215595ba1c6ba4b76b369ee826200099160201b60201c565b6064600d6000828254620005189190620011c6565b9250508190555050565b62000532620008ef60201b60201c565b620005647f62b337eaefec74dadf1a62e856bf9db4f14a0f27d4f48156a95a9f98e7d5e066826200099160201b60201c565b6064600d6000828254620005799190620011c6565b9250508190555050565b6000620005978383620009cb60201b60201c565b6200067c5760016005600085815260200190815260200160002060000160008473ffffffffffffffffffffffffffffffffffffffff1673ffffffffffffffffffffffffffffffffffffffff16815260200190815260200160002060006101000a81548160ff0219169083151502179055506200061862000a3660201b60201c565b73ffffffffffffffffffffffffffffffffffffffff168273ffffffffffffffffffffffffffffffffffffffff16847f2f8788117e7eff1d82e926ec794901d17c78024a50270940304540a733656f0d60405160405180910390a46001905062000681565b600090505b92915050565b6000620006b7836000018373ffffffffffffffffffffffffffffffffffffffff1660001b62000a3e60201b60201c565b905092915050565b600073ffffffffffffffffffffffffffffffffffffffff168373ffffffffffffffffffffffffffffffffffffffff160362000715578060026000828254620007089190620011c6565b92505081905550620007eb565b60008060008573ffffffffffffffffffffffffffffffffffffffff1673ffffffffffffffffffffffffffffffffffffffff16815260200190815260200160002054905081811015620007a4578381836040517fe450d38c0000000000000000000000000000000000000000000000000000000081526004016200079b9392919062001212565b60405180910390fd5b8181036000808673ffffffffffffffffffffffffffffffffffffffff1673ffffffffffffffffffffffffffffffffffffffff16815260200190815260200160002081905550505b600073ffffffffffffffffffffffffffffffffffffffff168273ffffffffffffffffffffffffffffffffffffffff160362000836578060026000828254039250508190555062000883565b806000808473ffffffffffffffffffffffffffffffffffffffff1673ffffffffffffffffffffffffffffffffffffffff168152602001908152602001600020600082825401925050819055505b8173ffffffffffffffffffffffffffffffffffffffff168373ffffffffffffffffffffffffffffffffffffffff167fddf252ad1be2c89b69c2b068fc378daa952ba7f163c4a11628f55a4df523b3ef83604051620008e291906200124f565b60405180910390a3505050565b620008ff62000a3660201b60201c565b73ffffffffffffffffffffffffffffffffffffffff166200092562000ab860201b60201c565b73ffffffffffffffffffffffffffffffffffffffff16146200098f576200095162000a3660201b60201c565b6040517f118cdaa70000000000000000000000000000000000000000000000000000000081526004016200098691906200117a565b60405180910390fd5b565b620009a28262000ae260201b60201c565b620009b38162000b0260201b60201c565b620009c58383620002c060201b60201c565b50505050565b60006005600084815260200190815260200160002060000160008373ffffffffffffffffffffffffffffffffffffffff1673ffffffffffffffffffffffffffffffffffffffff16815260200190815260200160002060009054906101000a900460ff16905092915050565b600033905090565b600062000a52838362000b2660201b60201c565b62000aad57826000018290806001815401808255809150506001900390600052602060002001600090919091909150558260000180549050836001016000848152602001908152602001600020819055506001905062000ab2565b600090505b92915050565b6000600760009054906101000a900473ffffffffffffffffffffffffffffffffffffffff16905090565b600060056000838152602001908152602001600020600101549050919050565b62000b238162000b1762000a3660201b60201c565b62000b4960201b60201c565b50565b600080836001016000848152602001908152602001600020541415905092915050565b62000b5b8282620009cb60201b60201c565b62000ba15780826040517fe2517d3f00000000000000000000000000000000000000000000000000000000815260040162000b9892919062001287565b60405180910390fd5b5050565b6000604051905090565b600080fd5b600080fd5b600080fd5b600080fd5b6000601f19601f8301169050919050565b7f4e487b7100000000000000000000000000000000000000000000000000000000600052604160045260246000fd5b62000c0e8262000bc3565b810181811067ffffffffffffffff8211171562000c305762000c2f62000bd4565b5b80604052505050565b600062000c4562000ba5565b905062000c53828262000c03565b919050565b600067ffffffffffffffff82111562000c765762000c7562000bd4565b5b62000c818262000bc3565b9050602081019050919050565b60005b8381101562000cae57808201518184015260208101905062000c91565b60008484015250505050565b600062000cd162000ccb8462000c58565b62000c39565b90508281526020810184848401111562000cf05762000cef62000bbe565b5b62000cfd84828562000c8e565b509392505050565b600082601f83011262000d1d5762000d1c62000bb9565b5b815162000d2f84826020860162000cba565b91505092915050565b6000819050919050565b62000d4d8162000d38565b811462000d5957600080fd5b50565b60008151905062000d6d8162000d42565b92915050565b60008060006060848603121562000d8f5762000d8e62000baf565b5b600084015167ffffffffffffffff81111562000db05762000daf62000bb4565b5b62000dbe8682870162000d05565b935050602084015167ffffffffffffffff81111562000de25762000de162000bb4565b5b62000df08682870162000d05565b925050604062000e038682870162000d5c565b9150509250925092565b600081519050919050565b7f4e487b7100000000000000000000000000000000000000000000000000000000600052602260045260246000fd5b6000600282049050600182168062000e6057607f821691505b60208210810362000e765762000e7562000e18565b5b50919050565b60008190508160005260206000209050919050565b60006020601f8301049050919050565b600082821b905092915050565b60006008830262000ee07fffffffffffffffffffffffffffffffffffffffffffffffffffffffffffffffff8262000ea1565b62000eec868362000ea1565b95508019841693508086168417925050509392505050565b6000819050919050565b600062000f2f62000f2962000f238462000d38565b62000f04565b62000d38565b9050919050565b6000819050919050565b62000f4b8362000f0e565b62000f6362000f5a8262000f36565b84845462000eae565b825550505050565b600090565b62000f7a62000f6b565b62000f8781848462000f40565b505050565b5b8181101562000faf5762000fa360008262000f70565b60018101905062000f8d565b5050565b601f82111562000ffe5762000fc88162000e7c565b62000fd38462000e91565b8101602085101562000fe3578190505b62000ffb62000ff28562000e91565b83018262000f8c565b50505b505050565b600082821c905092915050565b6000620010236000198460080262001003565b1980831691505092915050565b60006200103e838362001010565b9150826002028217905092915050565b620010598262000e0d565b67ffffffffffffffff81111562001075576200107462000bd4565b5b62001081825462000e47565b6200108e82828562000fb3565b600060209050601f831160018114620010c65760008415620010b1578287015190505b620010bd858262001030565b8655506200112d565b601f198416620010d68662000e7c565b60005b828110156200110057848901518255600182019150602085019450602081019050620010d9565b868310156200112057848901516200111c601f89168262001010565b8355505b6001600288020188555050505b505050505050565b600073ffffffffffffffffffffffffffffffffffffffff82169050919050565b6000620011628262001135565b9050919050565b620011748162001155565b82525050565b600060208201905062001191600083018462001169565b92915050565b7f4e487b7100000000000000000000000000000000000000000000000000000000600052601160045260246000fd5b6000620011d38262000d38565b9150620011e08362000d38565b9250828201905080821115620011fb57620011fa62001197565b5b92915050565b6200120c8162000d38565b82525050565b600060608201905062001229600083018662001169565b62001238602083018562001201565b62001247604083018462001201565b949350505050565b600060208201905062001266600083018462001201565b92915050565b6000819050919050565b62001281816200126c565b82525050565b60006040820190506200129e600083018562001169565b620012ad602083018462001276565b9392505050565b6137fa80620012c46000396000f3fe608060405234801561001057600080fd5b50600436106103785760003560e01c8063788649ea116101d3578063a217fddf11610104578063d547741f116100a2578063f1f2e51c1161007c578063f1f2e51c146109e5578063f26c159f146109ef578063f2fde38b14610a0b578063f44637ba14610a2757610378565b8063d547741f1461097b578063d724114414610997578063dd62ed3e146109b557610378565b8063c2134b23116100de578063c2134b23146108f5578063ca15c87314610911578063d1c2de0a14610941578063d53913931461095d57610378565b8063a217fddf14610889578063a9059cbb146108a7578063b319031c146108d757610378565b806391d1485411610171578063974b368c1161014b578063974b368c14610805578063983b2d56146108215780639dc29fac1461083d578063a04a85c01461085957610378565b806391d1485414610799578063939bcbc9146107c957806395d89b41146107e757610378565b8063883356d9116101ad578063883356d9146107235780638da5cb5b146107415780639010d07c1461075f5780639140052b1461078f57610378565b8063788649ea146106f35780637c202fc91461070f578063805a9d5a1461071957610378565b80633092afd5116102ad57806346b45af71161024b578063585212fb11610225578063585212fb1461067f57806370a0823114610689578063715018a6146106b957806371fb7493146106c357610378565b806346b45af714610629578063526606c914610647578063537df3b61461066357610378565b806338fdd6501161028757806338fdd650146105b557806340c10f19146105d3578063410b2424146105ef57806344337ea11461060d57610378565b80633092afd51461055f578063313ce5671461057b57806336568abe1461059957610378565b80631be6dd641161031a578063248a9ca3116102f4578063248a9ca3146104d9578063282c51f3146105095780632acd2000146105275780632f2ff15d1461054357610378565b80631be6dd641461046f5780631ec82cb81461048d57806323b872dd146104a957610378565b806306fdde031161035657806306fdde03146103e7578063095ea7b3146104055780630eff2afc1461043557806318160ddd1461045157610378565b806301ffc9a71461037d57806302846858146103ad57806306a85f0f146103c9575b600080fd5b61039760048036038101906103929190612cbe565b610a43565b6040516103a49190612d06565b60405180910390f35b6103c760048036038101906103c29190612d7f565b610abd565b005b6103d1610b0c565b6040516103de9190612dc5565b60405180910390f35b6103ef610b30565b6040516103fc9190612e70565b60405180910390f35b61041f600480360381019061041a9190612ec8565b610bc2565b60405161042c9190612d06565b60405180910390f35b61044f600480360381019061044a9190612d7f565b610be5565b005b610459610c34565b6040516104669190612f17565b60405180910390f35b610477610c3e565b6040516104849190612f17565b60405180910390f35b6104a760048036038101906104a29190612f32565b610c44565b005b6104c360048036038101906104be9190612f32565b610cce565b6040516104d09190612d06565b60405180910390f35b6104f360048036038101906104ee9190612fb1565b610cfd565b6040516105009190612dc5565b60405180910390f35b610511610d1d565b60405161051e9190612dc5565b60405180910390f35b610541600480360381019061053c9190612d7f565b610d41565b005b61055d60048036038101906105589190612fde565b610d90565b005b61057960048036038101906105749190612d7f565b610db2565b005b610583610e01565b604051610590919061303a565b60405180910390f35b6105b360048036038101906105ae9190612fde565b610e0a565b005b6105bd610e85565b6040516105ca9190612d06565b60405180910390f35b6105ed60048036038101906105e89190612ec8565b610e98565b005b6105f7610f3a565b6040516106049190612dc5565b60405180910390f35b61062760048036038101906106229190612d7f565b610f5e565b005b610631611044565b60405161063e9190612d06565b60405180910390f35b610661600480360381019061065c9190612d7f565b611057565b005b61067d60048036038101906106789190612d7f565b6110a6565b005b61068761113c565b005b6106a3600480360381019061069e9190612d7f565b6111ff565b6040516106b09190612f17565b60405180910390f35b6106c1611247565b005b6106dd60048036038101906106d89190612d7f565b61125b565b6040516106ea9190612d06565b60405180910390f35b61070d60048036038101906107089190612d7f565b611278565b005b61071761130e565b005b6107216113d1565b005b61072b611494565b6040516107389190612d06565b60405180910390f35b6107496114a7565b6040516107569190613064565b60405180910390f35b6107796004803603810190610774919061307f565b6114d1565b6040516107869190613064565b60405180910390f35b610797611500565b005b6107b360048036038101906107ae9190612fde565b6115c3565b6040516107c09190612d06565b60405180910390f35b6107d161162e565b6040516107de9190612dc5565b60405180910390f35b6107ef611652565b6040516107fc9190612e70565b60405180910390f35b61081f600480360381019061081a9190612d7f565b6116e4565b005b61083b60048036038101906108369190612d7f565b611733565b005b61085760048036038101906108529190612ec8565b611782565b005b610873600480360381019061086e9190612d7f565b611824565b6040516108809190612d06565b60405180910390f35b610891611841565b60405161089e9190612dc5565b60405180910390f35b6108c160048036038101906108bc9190612ec8565b611848565b6040516108ce9190612d06565b60405180910390f35b6108df611964565b6040516108ec9190612d06565b60405180910390f35b61090f600480360381019061090a9190612d7f565b611977565b005b61092b60048036038101906109269190612fb1565b6119c6565b6040516109389190612f17565b60405180910390f35b61095b60048036038101906109569190612d7f565b6119ea565b005b610965611a39565b6040516109729190612dc5565b60405180910390f35b61099560048036038101906109909190612fde565b611a5d565b005b61099f611a7f565b6040516109ac9190612d06565b60405180910390f35b6109cf60048036038101906109ca91906130bf565b611a92565b6040516109dc9190612f17565b60405180910390f35b6109ed611b19565b005b610a096004803603810190610a049190612d7f565b611bdc565b005b610a256004803603810190610a209190612d7f565b611cc2565b005b610a416004803603810190610a3c9190612d7f565b611d48565b005b60007f5a05180f000000000000000000000000000000000000000000000000000000007bffffffffffffffffffffffffffffffffffffffffffffffffffffffff1916827bffffffffffffffffffffffffffffffffffffffffffffffffffffffff19161480610ab65750610ab582611d97565b5b9050919050565b610ac5611e11565b610aef7f3c11d16cbaffd01df69ce1c404f6340ee057498f5f00246190ea54220576a84882611a5d565b6064600d6000828254610b02919061312e565b9250508190555050565b7f92de27771f92d6942691d73358b3a4673e4880de8356f8f2cf452be87e02d36381565b606060038054610b3f90613191565b80601f0160208091040260200160405190810160405280929190818152602001828054610b6b90613191565b8015610bb85780601f10610b8d57610100808354040283529160200191610bb8565b820191906000526020600020905b815481529060010190602001808311610b9b57829003601f168201915b5050505050905090565b600080610bcd611e98565b9050610bda818585611ea0565b600191505092915050565b610bed611e11565b610c177ff988e4fb62b8e14f4820fed03192306ddf4d7dbfa215595ba1c6ba4b76b369ee82610d90565b6064600d6000828254610c2a919061312e565b9250508190555050565b6000600254905090565b600d5481565b7f62b337eaefec74dadf1a62e856bf9db4f14a0f27d4f48156a95a9f98e7d5e066610c6e81611eb2565b600c60049054906101000a900460ff16610cbd576040517f08c379a0000000000000000000000000000000000000000000000000000000008152600401610cb49061320e565b60405180910390fd5b610cc8848484611ec6565b50505050565b600080610cd9611e98565b9050610ce6858285611fba565b610cf1858585611ec6565b60019150509392505050565b600060056000838152602001908152602001600020600101549050919050565b7f3c11d16cbaffd01df69ce1c404f6340ee057498f5f00246190ea54220576a84881565b610d49611e11565b610d737f92de27771f92d6942691d73358b3a4673e4880de8356f8f2cf452be87e02d36382611a5d565b6064600d6000828254610d86919061312e565b9250508190555050565b610d9982610cfd565b610da281611eb2565b610dac838361204e565b50505050565b610dba611e11565b610de47f9f2df0fed2c77648de5860a4cc508cd0818c85b8b8a1ab4ceeef8d981c8956a682611a5d565b6064600d6000828254610df7919061312e565b9250508190555050565b60006012905090565b610e12611e98565b73ffffffffffffffffffffffffffffffffffffffff168173ffffffffffffffffffffffffffffffffffffffff1614610e76576040517f6697b23200000000000000000000000000000000000000000000000000000000815260040160405180910390fd5b610e808282612094565b505050565b600c60029054906101000a900460ff1681565b7f9f2df0fed2c77648de5860a4cc508cd0818c85b8b8a1ab4ceeef8d981c8956a6610ec281611eb2565b600c60009054906101000a900460ff16610f11576040517f08c379a0000000000000000000000000000000000000000000000000000000008152600401610f089061327a565b60405180910390fd5b610f1b83836120da565b6014600d6000828254610f2e919061312e565b92505081905550505050565b7ff988e4fb62b8e14f4820fed03192306ddf4d7dbfa215595ba1c6ba4b76b369ee81565b7ff988e4fb62b8e14f4820fed03192306ddf4d7dbfa215595ba1c6ba4b76b369ee610f8881611eb2565b610f9c82600a61215c90919063ffffffff16565b15610fdc576040517f08c379a0000000000000000000000000000000000000000000000000000000008152600401610fd3906132e6565b60405180910390fd5b600c60039054906101000a900460ff1661102b576040517f08c379a000000000000000000000000000000000000000000000000000000000815260040161102290613352565b60405180910390fd5b61103f82600a61218c90919063ffffffff16565b505050565b600c60009054906101000a900460ff1681565b61105f611e11565b6110897f92de27771f92d6942691d73358b3a4673e4880de8356f8f2cf452be87e02d36382610d90565b6064600d600082825461109c919061312e565b9250508190555050565b7ff988e4fb62b8e14f4820fed03192306ddf4d7dbfa215595ba1c6ba4b76b369ee6110d081611eb2565b6110e482600a61215c90919063ffffffff16565b611123576040517f08c379a000000000000000000000000000000000000000000000000000000000815260040161111a906133be565b60405180910390fd5b61113782600a6121bc90919063ffffffff16565b505050565b611144611e11565b7f9f2df0fed2c77648de5860a4cc508cd0818c85b8b8a1ab4ceeef8d981c8956a6600c60009054906101000a900460ff166000611180836119c6565b905060005b818110156111b457600061119a8560006114d1565b90506111a68582611a5d565b508080600101915050611185565b506111c26000801b30612094565b506111cd8330612094565b506111db836000801b6121ec565b6000915061012c600d60008282546111f3919061312e565b92505081905550505050565b60008060008373ffffffffffffffffffffffffffffffffffffffff1673ffffffffffffffffffffffffffffffffffffffff168152602001908152602001600020549050919050565b61124f611e11565b6112596000612248565b565b600061127182600a61215c90919063ffffffff16565b9050919050565b7f92de27771f92d6942691d73358b3a4673e4880de8356f8f2cf452be87e02d3636112a281611eb2565b6112b682600861215c90919063ffffffff16565b6112f5576040517f08c379a00000000000000000000000000000000000000000000000000000000081526004016112ec9061342a565b60405180910390fd5b6113098260086121bc90919063ffffffff16565b505050565b611316611e11565b7ff988e4fb62b8e14f4820fed03192306ddf4d7dbfa215595ba1c6ba4b76b369ee600c60039054906101000a900460ff166000611352836119c6565b905060005b8181101561138657600061136c8560006114d1565b90506113788582611a5d565b508080600101915050611357565b506113946000801b30612094565b5061139f8330612094565b506113ad836000801b6121ec565b6000915061012c600d60008282546113c5919061312e565b92505081905550505050565b6113d9611e11565b7f62b337eaefec74dadf1a62e856bf9db4f14a0f27d4f48156a95a9f98e7d5e066600c60049054906101000a900460ff166000611415836119c6565b905060005b8181101561144957600061142f8560006114d1565b905061143b8582611a5d565b50808060010191505061141a565b506114576000801b30612094565b506114628330612094565b50611470836000801b6121ec565b6000915061012c600d6000828254611488919061312e565b92505081905550505050565b600c60019054906101000a900460ff1681565b6000600760009054906101000a900473ffffffffffffffffffffffffffffffffffffffff16905090565b60006114f8826006600086815260200190815260200160002061230e90919063ffffffff16565b905092915050565b611508611e11565b7f92de27771f92d6942691d73358b3a4673e4880de8356f8f2cf452be87e02d363600c60029054906101000a900460ff166000611544836119c6565b905060005b8181101561157857600061155e8560006114d1565b905061156a8582611a5d565b508080600101915050611549565b506115866000801b30612094565b506115918330612094565b5061159f836000801b6121ec565b6000915061012c600d60008282546115b7919061312e565b92505081905550505050565b60006005600084815260200190815260200160002060000160008373ffffffffffffffffffffffffffffffffffffffff1673ffffffffffffffffffffffffffffffffffffffff16815260200190815260200160002060009054906101000a900460ff16905092915050565b7f62b337eaefec74dadf1a62e856bf9db4f14a0f27d4f48156a95a9f98e7d5e06681565b60606004805461166190613191565b80601f016020809104026020016040519081016040528092919081815260200182805461168d90613191565b80156116da5780601f106116af576101008083540402835291602001916116da565b820191906000526020600020905b8154815290600101906020018083116116bd57829003601f168201915b5050505050905090565b6116ec611e11565b6117167ff988e4fb62b8e14f4820fed03192306ddf4d7dbfa215595ba1c6ba4b76b369ee82611a5d565b6064600d6000828254611729919061312e565b9250508190555050565b61173b611e11565b6117657f9f2df0fed2c77648de5860a4cc508cd0818c85b8b8a1ab4ceeef8d981c8956a682610d90565b6064600d6000828254611778919061312e565b9250508190555050565b7f3c11d16cbaffd01df69ce1c404f6340ee057498f5f00246190ea54220576a8486117ac81611eb2565b600c60019054906101000a900460ff166117fb576040517f08c379a00000000000000000000000000000000000000000000000000000000081526004016117f290613496565b60405180910390fd5b6118058383612328565b6028600d6000828254611818919061312e565b92505081905550505050565b600061183a82600861215c90919063ffffffff16565b9050919050565b6000801b81565b600080611853611e98565b905061186981600861215c90919063ffffffff16565b156118a9576040517f08c379a00000000000000000000000000000000000000000000000000000000081526004016118a090613502565b60405180910390fd5b6118bd81600a61215c90919063ffffffff16565b156118fd576040517f08c379a00000000000000000000000000000000000000000000000000000000081526004016118f49061356e565b60405180910390fd5b61191184600a61215c90919063ffffffff16565b15611951576040517f08c379a0000000000000000000000000000000000000000000000000000000008152600401611948906135da565b60405180910390fd5b61195b84846123aa565b91505092915050565b600c60039054906101000a900460ff1681565b61197f611e11565b6119a97f62b337eaefec74dadf1a62e856bf9db4f14a0f27d4f48156a95a9f98e7d5e06682610d90565b6064600d60008282546119bc919061312e565b9250508190555050565b60006119e3600660008481526020019081526020016000206123cd565b9050919050565b6119f2611e11565b611a1c7f62b337eaefec74dadf1a62e856bf9db4f14a0f27d4f48156a95a9f98e7d5e06682611a5d565b6064600d6000828254611a2f919061312e565b9250508190555050565b7f9f2df0fed2c77648de5860a4cc508cd0818c85b8b8a1ab4ceeef8d981c8956a681565b611a6682610cfd565b611a6f81611eb2565b611a798383612094565b50505050565b600c60049054906101000a900460ff1681565b6000600160008473ffffffffffffffffffffffffffffffffffffffff1673ffffffffffffffffffffffffffffffffffffffff16815260200190815260200160002060008373ffffffffffffffffffffffffffffffffffffffff1673ffffffffffffffffffffffffffffffffffffffff16815260200190815260200160002054905092915050565b611b21611e11565b7f3c11d16cbaffd01df69ce1c404f6340ee057498f5f00246190ea54220576a848600c60019054906101000a900460ff166000611b5d836119c6565b905060005b81811015611b91576000611b778560006114d1565b9050611b838582611a5d565b508080600101915050611b62565b50611b9f6000801b30612094565b50611baa8330612094565b50611bb8836000801b6121ec565b6000915061012c600d6000828254611bd0919061312e565b92505081905550505050565b7f92de27771f92d6942691d73358b3a4673e4880de8356f8f2cf452be87e02d363611c0681611eb2565b611c1a82600861215c90919063ffffffff16565b15611c5a576040517f08c379a0000000000000000000000000000000000000000000000000000000008152600401611c5190613646565b60405180910390fd5b600c60029054906101000a900460ff16611ca9576040517f08c379a0000000000000000000000000000000000000000000000000000000008152600401611ca0906136b2565b60405180910390fd5b611cbd82600861218c90919063ffffffff16565b505050565b611cca611e11565b600073ffffffffffffffffffffffffffffffffffffffff168173ffffffffffffffffffffffffffffffffffffffff1603611d3c5760006040517f1e4fbdf7000000000000000000000000000000000000000000000000000000008152600401611d339190613064565b60405180910390fd5b611d4581612248565b50565b611d50611e11565b611d7a7f3c11d16cbaffd01df69ce1c404f6340ee057498f5f00246190ea54220576a84882610d90565b6064600d6000828254611d8d919061312e565b9250508190555050565b60007f7965db0b000000000000000000000000000000000000000000000000000000007bffffffffffffffffffffffffffffffffffffffffffffffffffffffff1916827bffffffffffffffffffffffffffffffffffffffffffffffffffffffff19161480611e0a5750611e09826123e2565b5b9050919050565b611e19611e98565b73ffffffffffffffffffffffffffffffffffffffff16611e376114a7565b73ffffffffffffffffffffffffffffffffffffffff1614611e9657611e5a611e98565b6040517f118cdaa7000000000000000000000000000000000000000000000000000000008152600401611e8d9190613064565b60405180910390fd5b565b600033905090565b611ead838383600161244c565b505050565b611ec381611ebe611e98565b612623565b50565b600073ffffffffffffffffffffffffffffffffffffffff168373ffffffffffffffffffffffffffffffffffffffff1603611f385760006040517f96c6fd1e000000000000000000000000000000000000000000000000000000008152600401611f2f9190613064565b60405180910390fd5b600073ffffffffffffffffffffffffffffffffffffffff168273ffffffffffffffffffffffffffffffffffffffff1603611faa5760006040517fec442f05000000000000000000000000000000000000000000000000000000008152600401611fa19190613064565b60405180910390fd5b611fb5838383612674565b505050565b6000611fc68484611a92565b90507fffffffffffffffffffffffffffffffffffffffffffffffffffffffffffffffff81146120485781811015612038578281836040517ffb8f41b200000000000000000000000000000000000000000000000000000000815260040161202f939291906136d2565b60405180910390fd5b6120478484848403600061244c565b5b50505050565b60008061205b8484612899565b9050801561208a57612088836006600087815260200190815260200160002061218c90919063ffffffff16565b505b8091505092915050565b6000806120a1848461298b565b905080156120d0576120ce83600660008781526020019081526020016000206121bc90919063ffffffff16565b505b8091505092915050565b600073ffffffffffffffffffffffffffffffffffffffff168273ffffffffffffffffffffffffffffffffffffffff160361214c5760006040517fec442f050000000000000000000000000000000000000000000000000000000081526004016121439190613064565b60405180910390fd5b61215860008383612674565b5050565b6000612184836000018373ffffffffffffffffffffffffffffffffffffffff1660001b612a7e565b905092915050565b60006121b4836000018373ffffffffffffffffffffffffffffffffffffffff1660001b612aa1565b905092915050565b60006121e4836000018373ffffffffffffffffffffffffffffffffffffffff1660001b612b11565b905092915050565b60006121f783610cfd565b90508160056000858152602001908152602001600020600101819055508181847fbd79b86ffe0ab8e8776151514217cd7cacd52c909f66475c3af44e129f0b00ff60405160405180910390a4505050565b6000600760009054906101000a900473ffffffffffffffffffffffffffffffffffffffff16905081600760006101000a81548173ffffffffffffffffffffffffffffffffffffffff021916908373ffffffffffffffffffffffffffffffffffffffff1602179055508173ffffffffffffffffffffffffffffffffffffffff168173ffffffffffffffffffffffffffffffffffffffff167f8be0079c531659141344cd1fd0a4f28419497f9722a3daafe3b4186f6b6457e060405160405180910390a35050565b600061231d8360000183612c25565b60001c905092915050565b600073ffffffffffffffffffffffffffffffffffffffff168273ffffffffffffffffffffffffffffffffffffffff160361239a5760006040517f96c6fd1e0000000000000000000000000000000000000000000000000000000081526004016123919190613064565b60405180910390fd5b6123a682600083612674565b5050565b6000806123b5611e98565b90506123c2818585611ec6565b600191505092915050565b60006123db82600001612c50565b9050919050565b60007f01ffc9a7000000000000000000000000000000000000000000000000000000007bffffffffffffffffffffffffffffffffffffffffffffffffffffffff1916827bffffffffffffffffffffffffffffffffffffffffffffffffffffffff1916149050919050565b600073ffffffffffffffffffffffffffffffffffffffff168473ffffffffffffffffffffffffffffffffffffffff16036124be5760006040517fe602df050000000000000000000000000000000000000000000000000000000081526004016124b59190613064565b60405180910390fd5b600073ffffffffffffffffffffffffffffffffffffffff168373ffffffffffffffffffffffffffffffffffffffff16036125305760006040517f94280d620000000000000000000000000000000000000000000000000000000081526004016125279190613064565b60405180910390fd5b81600160008673ffffffffffffffffffffffffffffffffffffffff1673ffffffffffffffffffffffffffffffffffffffff16815260200190815260200160002060008573ffffffffffffffffffffffffffffffffffffffff1673ffffffffffffffffffffffffffffffffffffffff16815260200190815260200160002081905550801561261d578273ffffffffffffffffffffffffffffffffffffffff168473ffffffffffffffffffffffffffffffffffffffff167f8c5be1e5ebec7d5bd14f71427d1e84f3dd0314c0f7b2291e5b200ac8c7c3b925846040516126149190612f17565b60405180910390a35b50505050565b61262d82826115c3565b6126705780826040517fe2517d3f000000000000000000000000000000000000000000000000000000008152600401612667929190613709565b60405180910390fd5b5050565b600073ffffffffffffffffffffffffffffffffffffffff168373ffffffffffffffffffffffffffffffffffffffff16036126c65780600260008282546126ba919061312e565b92505081905550612799565b60008060008573ffffffffffffffffffffffffffffffffffffffff1673ffffffffffffffffffffffffffffffffffffffff16815260200190815260200160002054905081811015612752578381836040517fe450d38c000000000000000000000000000000000000000000000000000000008152600401612749939291906136d2565b60405180910390fd5b8181036000808673ffffffffffffffffffffffffffffffffffffffff1673ffffffffffffffffffffffffffffffffffffffff16815260200190815260200160002081905550505b600073ffffffffffffffffffffffffffffffffffffffff168273ffffffffffffffffffffffffffffffffffffffff16036127e2578060026000828254039250508190555061282f565b806000808473ffffffffffffffffffffffffffffffffffffffff1673ffffffffffffffffffffffffffffffffffffffff168152602001908152602001600020600082825401925050819055505b8173ffffffffffffffffffffffffffffffffffffffff168373ffffffffffffffffffffffffffffffffffffffff167fddf252ad1be2c89b69c2b068fc378daa952ba7f163c4a11628f55a4df523b3ef8360405161288c9190612f17565b60405180910390a3505050565b60006128a583836115c3565b6129805760016005600085815260200190815260200160002060000160008473ffffffffffffffffffffffffffffffffffffffff1673ffffffffffffffffffffffffffffffffffffffff16815260200190815260200160002060006101000a81548160ff02191690831515021790555061291d611e98565b73ffffffffffffffffffffffffffffffffffffffff168273ffffffffffffffffffffffffffffffffffffffff16847f2f8788117e7eff1d82e926ec794901d17c78024a50270940304540a733656f0d60405160405180910390a460019050612985565b600090505b92915050565b600061299783836115c3565b15612a735760006005600085815260200190815260200160002060000160008473ffffffffffffffffffffffffffffffffffffffff1673ffffffffffffffffffffffffffffffffffffffff16815260200190815260200160002060006101000a81548160ff021916908315150217905550612a10611e98565b73ffffffffffffffffffffffffffffffffffffffff168273ffffffffffffffffffffffffffffffffffffffff16847ff6391f5c32d9c69d2a47ea670b442974b53935d1edc7fd64eb21e047a839171b60405160405180910390a460019050612a78565b600090505b92915050565b600080836001016000848152602001908152602001600020541415905092915050565b6000612aad8383612a7e565b612b06578260000182908060018154018082558091505060019003906000526020600020016000909190919091505582600001805490508360010160008481526020019081526020016000208190555060019050612b0b565b600090505b92915050565b60008083600101600084815260200190815260200160002054905060008114612c19576000600182612b439190613732565b9050600060018660000180549050612b5b9190613732565b9050808214612bca576000866000018281548110612b7c57612b7b613766565b5b9060005260206000200154905080876000018481548110612ba057612b9f613766565b5b90600052602060002001819055508387600101600083815260200190815260200160002081905550505b85600001805480612bde57612bdd613795565b5b600190038181906000526020600020016000905590558560010160008681526020019081526020016000206000905560019350505050612c1f565b60009150505b92915050565b6000826000018281548110612c3d57612c3c613766565b5b9060005260206000200154905092915050565b600081600001805490509050919050565b600080fd5b60007fffffffff0000000000000000000000000000000000000000000000000000000082169050919050565b612c9b81612c66565b8114612ca657600080fd5b50565b600081359050612cb881612c92565b92915050565b600060208284031215612cd457612cd3612c61565b5b6000612ce284828501612ca9565b91505092915050565b60008115159050919050565b612d0081612ceb565b82525050565b6000602082019050612d1b6000830184612cf7565b92915050565b600073ffffffffffffffffffffffffffffffffffffffff82169050919050565b6000612d4c82612d21565b9050919050565b612d5c81612d41565b8114612d6757600080fd5b50565b600081359050612d7981612d53565b92915050565b600060208284031215612d9557612d94612c61565b5b6000612da384828501612d6a565b91505092915050565b6000819050919050565b612dbf81612dac565b82525050565b6000602082019050612dda6000830184612db6565b92915050565b600081519050919050565b600082825260208201905092915050565b60005b83811015612e1a578082015181840152602081019050612dff565b60008484015250505050565b6000601f19601f8301169050919050565b6000612e4282612de0565b612e4c8185612deb565b9350612e5c818560208601612dfc565b612e6581612e26565b840191505092915050565b60006020820190508181036000830152612e8a8184612e37565b905092915050565b6000819050919050565b612ea581612e92565b8114612eb057600080fd5b50565b600081359050612ec281612e9c565b92915050565b60008060408385031215612edf57612ede612c61565b5b6000612eed85828601612d6a565b9250506020612efe85828601612eb3565b9150509250929050565b612f1181612e92565b82525050565b6000602082019050612f2c6000830184612f08565b92915050565b600080600060608486031215612f4b57612f4a612c61565b5b6000612f5986828701612d6a565b9350506020612f6a86828701612d6a565b9250506040612f7b86828701612eb3565b9150509250925092565b612f8e81612dac565b8114612f9957600080fd5b50565b600081359050612fab81612f85565b92915050565b600060208284031215612fc757612fc6612c61565b5b6000612fd584828501612f9c565b91505092915050565b60008060408385031215612ff557612ff4612c61565b5b600061300385828601612f9c565b925050602061301485828601612d6a565b9150509250929050565b600060ff82169050919050565b6130348161301e565b82525050565b600060208201905061304f600083018461302b565b92915050565b61305e81612d41565b82525050565b60006020820190506130796000830184613055565b92915050565b6000806040838503121561309657613095612c61565b5b60006130a485828601612f9c565b92505060206130b585828601612eb3565b9150509250929050565b600080604083850312156130d6576130d5612c61565b5b60006130e485828601612d6a565b92505060206130f585828601612d6a565b9150509250929050565b7f4e487b7100000000000000000000000000000000000000000000000000000000600052601160045260246000fd5b600061313982612e92565b915061314483612e92565b925082820190508082111561315c5761315b6130ff565b5b92915050565b7f4e487b7100000000000000000000000000000000000000000000000000000000600052602260045260246000fd5b600060028204905060018216806131a957607f821691505b6020821081036131bc576131bb613162565b5b50919050565b7f5265636f766572792069732064697361626c6564000000000000000000000000600082015250565b60006131f8601483612deb565b9150613203826131c2565b602082019050919050565b60006020820190508181036000830152613227816131eb565b9050919050565b7f4d696e74696e672069732064697361626c656400000000000000000000000000600082015250565b6000613264601383612deb565b915061326f8261322e565b602082019050919050565b6000602082019050818103600083015261329381613257565b9050919050565b7f4163636f756e7420697320616c726561647920626c61636b6c69737465640000600082015250565b60006132d0601e83612deb565b91506132db8261329a565b602082019050919050565b600060208201905081810360008301526132ff816132c3565b9050919050565b7f426c61636b6c6973742069732064697361626c65640000000000000000000000600082015250565b600061333c601583612deb565b915061334782613306565b602082019050919050565b6000602082019050818103600083015261336b8161332f565b9050919050565b7f4163636f756e74206973206e6f7420626c61636b6c6973746564000000000000600082015250565b60006133a8601a83612deb565b91506133b382613372565b602082019050919050565b600060208201905081810360008301526133d78161339b565b9050919050565b7f4163636f756e74206973206e6f742066726f7a656e0000000000000000000000600082015250565b6000613414601583612deb565b915061341f826133de565b602082019050919050565b6000602082019050818103600083015261344381613407565b9050919050565b7f4275726e696e672069732064697361626c656400000000000000000000000000600082015250565b6000613480601383612deb565b915061348b8261344a565b602082019050919050565b600060208201905081810360008301526134af81613473565b9050919050565b7f53656e646572206163636f756e742069732066726f7a656e0000000000000000600082015250565b60006134ec601883612deb565b91506134f7826134b6565b602082019050919050565b6000602082019050818103600083015261351b816134df565b9050919050565b7f53656e646572206163636f756e7420697320626c61636b6c6973746564000000600082015250565b6000613558601d83612deb565b915061356382613522565b602082019050919050565b600060208201905081810360008301526135878161354b565b9050919050565b7f526563697069656e74206163636f756e7420697320626c61636b6c6973746564600082015250565b60006135c4602083612deb565b91506135cf8261358e565b602082019050919050565b600060208201905081810360008301526135f3816135b7565b9050919050565b7f4163636f756e7420697320616c72656164792066726f7a656e00000000000000600082015250565b6000613630601983612deb565b915061363b826135fa565b602082019050919050565b6000602082019050818103600083015261365f81613623565b9050919050565b7f467265657a696e672069732064697361626c6564000000000000000000000000600082015250565b600061369c601483612deb565b91506136a782613666565b602082019050919050565b600060208201905081810360008301526136cb8161368f565b9050919050565b60006060820190506136e76000830186613055565b6136f46020830185612f08565b6137016040830184612f08565b949350505050565b600060408201905061371e6000830185613055565b61372b6020830184612db6565b9392505050565b600061373d82612e92565b915061374883612e92565b92508282039050818111156137605761375f6130ff565b5b92915050565b7f4e487b7100000000000000000000000000000000000000000000000000000000600052603260045260246000fd5b7f4e487b7100000000000000000000000000000000000000000000000000000000600052603160045260246000fdfea264697066735822122073b4e20102678b9cc114510dd644ce01cb08ad50a84720aca6bb3e19b963467164736f6c63430008180033",
  "linkReferences": {},
  "deployedLinkReferences": {}
}