{
  "_format": "hh-sol-artifact-1",
  "contractName": "Launchpad",
  "sourceName": "contracts/launchpad/Launchpad.sol",
  "abi": [
    {
      "inputs": [
        {
          "internalType": "address",
          "name": "_tokenAddress",
          "type": "address"
        }
      ],
      "stateMutability": "nonpayable",
      "type": "constructor"
    },
    {
      "inputs": [
        {
          "internalType": "address",
          "name": "_sender",
          "type": "address"
        },
        {
          "internalType": "uint256",
          "name": "_ticketPrice",
          "type": "uint256"
        },
        {
          "internalType": "uint256",
          "name": "_ticketAmount",
          "type": "uint256"
        }
      ],
      "name": "buyTicket",
      "outputs": [],
      "stateMutability": "payable",
      "type": "function"
    },
    {
      "inputs": [
        {
          "internalType": "uint256",
          "name": "",
          "type": "uint256"
        }
      ],
      "name": "buyer",
      "outputs": [
        {
          "internalType": "address",
          "name": "",
          "type": "address"
        }
      ],
      "stateMutability": "view",
      "type": "function"
    },
    {
      "inputs": [],
      "name": "getBuyer",
      "outputs": [
        {
          "internalType": "address[]",
          "name": "",
          "type": "address[]"
        }
      ],
      "stateMutability": "view",
      "type": "function"
    },
    {
      "inputs": [],
      "name": "getIsExcuted",
      "outputs": [
        {
          "internalType": "bool",
          "name": "",
          "type": "bool"
        }
      ],
      "stateMutability": "view",
      "type": "function"
    },
    {
      "inputs": [],
      "name": "getSubscribers",
      "outputs": [
        {
          "internalType": "uint256",
          "name": "",
          "type": "uint256"
        }
      ],
      "stateMutability": "view",
      "type": "function"
    },
    {
      "inputs": [
        {
          "internalType": "address",
          "name": "_sender",
          "type": "address"
        }
      ],
      "name": "getTicketAmount",
      "outputs": [
        {
          "internalType": "uint256",
          "name": "",
          "type": "uint256"
        }
      ],
      "stateMutability": "view",
      "type": "function"
    },
    {
      "inputs": [
        {
          "internalType": "address",
          "name": "_sender",
          "type": "address"
        }
      ],
      "name": "isNonWinner",
      "outputs": [
        {
          "internalType": "bool",
          "name": "",
          "type": "bool"
        }
      ],
      "stateMutability": "view",
      "type": "function"
    },
    {
      "inputs": [
        {
          "internalType": "address",
          "name": "_sender",
          "type": "address"
        }
      ],
      "name": "isSubscribe",
      "outputs": [
        {
          "internalType": "bool",
          "name": "",
          "type": "bool"
        }
      ],
      "stateMutability": "view",
      "type": "function"
    },
    {
      "inputs": [
        {
          "internalType": "address",
          "name": "_sender",
          "type": "address"
        }
      ],
      "name": "isWinner",
      "outputs": [
        {
          "internalType": "bool",
          "name": "",
          "type": "bool"
        }
      ],
      "stateMutability": "view",
      "type": "function"
    },
    {
      "inputs": [
        {
          "internalType": "address",
          "name": "_sender",
          "type": "address"
        },
        {
          "internalType": "uint256",
          "name": "_claimAmount",
          "type": "uint256"
        }
      ],
      "name": "launchpadClaimToken",
      "outputs": [],
      "stateMutability": "nonpayable",
      "type": "function"
    },
    {
      "inputs": [
        {
          "internalType": "address",
          "name": "_sender",
          "type": "address"
        },
        {
          "internalType": "uint256",
          "name": "_refundAmount",
          "type": "uint256"
        }
      ],
      "name": "launchpadRefundETH",
      "outputs": [],
      "stateMutability": "nonpayable",
      "type": "function"
    },
    {
      "inputs": [
        {
          "internalType": "address",
          "name": "",
          "type": "address"
        }
      ],
      "name": "nonWinners",
      "outputs": [
        {
          "internalType": "uint256",
          "name": "",
          "type": "uint256"
        }
      ],
      "stateMutability": "view",
      "type": "function"
    },
    {
      "inputs": [],
      "name": "owner",
      "outputs": [
        {
          "internalType": "address",
          "name": "",
          "type": "address"
        }
      ],
      "stateMutability": "view",
      "type": "function"
    },
    {
      "inputs": [
        {
          "components": [
            {
              "internalType": "address",
              "name": "buyer",
              "type": "address"
            },
            {
              "internalType": "uint256",
              "name": "wins",
              "type": "uint256"
            }
          ],
          "internalType": "struct Launchpad.ILotteryWinner[]",
          "name": "_winners",
          "type": "tuple[]"
        },
        {
          "components": [
            {
              "internalType": "address",
              "name": "buyer",
              "type": "address"
            },
            {
              "internalType": "uint256",
              "name": "nonWins",
              "type": "uint256"
            }
          ],
          "internalType": "struct Launchpad.ILotteryNonWinner[]",
          "name": "_nonWinners",
          "type": "tuple[]"
        }
      ],
      "name": "setLotteryResult",
      "outputs": [],
      "stateMutability": "nonpayable",
      "type": "function"
    },
    {
      "inputs": [],
      "name": "subscriberCount",
      "outputs": [
        {
          "internalType": "uint256",
          "name": "",
          "type": "uint256"
        }
      ],
      "stateMutability": "view",
      "type": "function"
    },
    {
      "inputs": [
        {
          "internalType": "address",
          "name": "",
          "type": "address"
        }
      ],
      "name": "subscribers",
      "outputs": [
        {
          "internalType": "bool",
          "name": "",
          "type": "bool"
        }
      ],
      "stateMutability": "view",
      "type": "function"
    },
    {
      "inputs": [
        {
          "internalType": "address",
          "name": "_sender",
          "type": "address"
        },
        {
          "internalType": "uint256",
          "name": "_point",
          "type": "uint256"
        }
      ],
      "name": "subscription",
      "outputs": [],
      "stateMutability": "nonpayable",
      "type": "function"
    },
    {
      "inputs": [],
      "name": "tokenAddress",
      "outputs": [
        {
          "internalType": "address",
          "name": "",
          "type": "address"
        }
      ],
      "stateMutability": "view",
      "type": "function"
    },
    {
      "inputs": [
        {
          "internalType": "address",
          "name": "",
          "type": "address"
        }
      ],
      "name": "winners",
      "outputs": [
        {
          "internalType": "uint256",
          "name": "",
          "type": "uint256"
        }
      ],
      "stateMutability": "view",
      "type": "function"
    },
    {
      "inputs": [],
      "name": "withdraw",
      "outputs": [],
      "stateMutability": "nonpayable",
      "type": "function"
    }
  ],
  "bytecode": "0x60806040523480156200001157600080fd5b5060405162001efd38038062001efd833981810160405281019062000037919062000185565b80600160006101000a81548173ffffffffffffffffffffffffffffffffffffffff021916908373ffffffffffffffffffffffffffffffffffffffff160217905550336000806101000a81548173ffffffffffffffffffffffffffffffffffffffff021916908373ffffffffffffffffffffffffffffffffffffffff1602179055506000600a60006101000a81548160ff02191690831515021790555080600360006101000a81548173ffffffffffffffffffffffffffffffffffffffff021916908373ffffffffffffffffffffffffffffffffffffffff16021790555050620001b7565b600080fd5b600073ffffffffffffffffffffffffffffffffffffffff82169050919050565b60006200014d8262000120565b9050919050565b6200015f8162000140565b81146200016b57600080fd5b50565b6000815190506200017f8162000154565b92915050565b6000602082840312156200019e576200019d6200011b565b5b6000620001ae848285016200016e565b91505092915050565b611d3680620001c76000396000f3fe60806040526004361061011f5760003560e01c806370ea49b2116100a0578063a309d05c11610064578063a309d05c1461040d578063a3ccfea014610436578063e3e5c2b914610461578063ef352bbe1461047d578063fb647892146104a85761011f565b806370ea49b21461030057806378bd29171461033d5780638da5cb5b1461037a5780639d76ea58146103a55780639d9ca28d146103d05761011f565b80634dd4acaf116100e75780634dd4acaf146101e15780635322f0751461021e5780635745ae281461025b578063603daf9a146102985780636bd5450a146102c35761011f565b806305cc61ad146101245780630f48bdd11461014f5780633ccfd60b146101785780634012c8341461018f57806344d14ff4146101b8575b600080fd5b34801561013057600080fd5b506101396104e5565b604051610146919061125b565b60405180910390f35b34801561015b57600080fd5b506101766004803603810190610171919061133b565b6104ef565b005b34801561018457600080fd5b5061018d6106ac565b005b34801561019b57600080fd5b506101b660048036038101906101b19190611446565b6107a3565b005b3480156101c457600080fd5b506101df60048036038101906101da9190611446565b6109cc565b005b3480156101ed57600080fd5b5061020860048036038101906102039190611486565b610b11565b60405161021591906114c2565b60405180910390f35b34801561022a57600080fd5b50610245600480360381019061024091906114dd565b610b50565b604051610252919061125b565b60405180910390f35b34801561026757600080fd5b50610282600480360381019061027d91906114dd565b610b68565b60405161028f9190611525565b60405180910390f35b3480156102a457600080fd5b506102ad610b88565b6040516102ba91906115fe565b60405180910390f35b3480156102cf57600080fd5b506102ea60048036038101906102e591906114dd565b610c16565b6040516102f7919061125b565b60405180910390f35b34801561030c57600080fd5b50610327600480360381019061032291906114dd565b610c2e565b6040516103349190611525565b60405180910390f35b34801561034957600080fd5b50610364600480360381019061035f91906114dd565b610c79565b604051610371919061125b565b60405180910390f35b34801561038657600080fd5b5061038f610cc2565b60405161039c91906114c2565b60405180910390f35b3480156103b157600080fd5b506103ba610ce6565b6040516103c791906114c2565b60405180910390f35b3480156103dc57600080fd5b506103f760048036038101906103f291906114dd565b610d0c565b6040516104049190611525565b60405180910390f35b34801561041957600080fd5b50610434600480360381019061042f9190611446565b610d57565b005b34801561044257600080fd5b5061044b61101e565b6040516104589190611525565b60405180910390f35b61047b60048036038101906104769190611620565b611035565b005b34801561048957600080fd5b506104926111e6565b60405161049f919061125b565b60405180910390f35b3480156104b457600080fd5b506104cf60048036038101906104ca91906114dd565b6111ec565b6040516104dc9190611525565b60405180910390f35b6000600254905090565b600a60009054906101000a900460ff161561053f576040517f08c379a0000000000000000000000000000000000000000000000000000000008152600401610536906116d0565b60405180910390fd5b60005b848490508110156105e4578484828181106105605761055f6116f0565b5b9050604002016020013560076000878785818110610581576105806116f0565b5b905060400201600001602081019061059991906114dd565b73ffffffffffffffffffffffffffffffffffffffff1673ffffffffffffffffffffffffffffffffffffffff168152602001908152602001600020819055508080600101915050610542565b5060005b8282905081101561068a57828282818110610606576106056116f0565b5b9050604002016020013560086000858585818110610627576106266116f0565b5b905060400201600001602081019061063f91906114dd565b73ffffffffffffffffffffffffffffffffffffffff1673ffffffffffffffffffffffffffffffffffffffff1681526020019081526020016000208190555080806001019150506105e8565b506001600a60006101000a81548160ff02191690831515021790555050505050565b60008054906101000a900473ffffffffffffffffffffffffffffffffffffffff1673ffffffffffffffffffffffffffffffffffffffff163373ffffffffffffffffffffffffffffffffffffffff161461073a576040517f08c379a00000000000000000000000000000000000000000000000000000000081526004016107319061176b565b60405180910390fd5b60008054906101000a900473ffffffffffffffffffffffffffffffffffffffff1673ffffffffffffffffffffffffffffffffffffffff166108fc479081150290604051600060405180830381858888f193505050501580156107a0573d6000803e3d6000fd5b50565b6000600860008473ffffffffffffffffffffffffffffffffffffffff1673ffffffffffffffffffffffffffffffffffffffff1681526020019081526020016000205411610825576040517f08c379a000000000000000000000000000000000000000000000000000000000815260040161081c906117d7565b60405180910390fd5b6000600460008473ffffffffffffffffffffffffffffffffffffffff1673ffffffffffffffffffffffffffffffffffffffff16815260200190815260200160002054116108a7576040517f08c379a000000000000000000000000000000000000000000000000000000000815260040161089e90611869565b60405180910390fd5b8173ffffffffffffffffffffffffffffffffffffffff166108fc829081150290604051600060405180830381858888f193505050501580156108ed573d6000803e3d6000fd5b50600860008373ffffffffffffffffffffffffffffffffffffffff1673ffffffffffffffffffffffffffffffffffffffff16815260200190815260200160002054600460008473ffffffffffffffffffffffffffffffffffffffff1673ffffffffffffffffffffffffffffffffffffffff168152602001908152602001600020600082825461097c91906118b8565b925050819055506000600860008473ffffffffffffffffffffffffffffffffffffffff1673ffffffffffffffffffffffffffffffffffffffff168152602001908152602001600020819055505050565b600560008373ffffffffffffffffffffffffffffffffffffffff1673ffffffffffffffffffffffffffffffffffffffff16815260200190815260200160002060009054906101000a900460ff1615610a59576040517f08c379a0000000000000000000000000000000000000000000000000000000008152600401610a5090611938565b60405180910390fd5b6064811015610a9d576040517f08c379a0000000000000000000000000000000000000000000000000000000008152600401610a94906119a4565b60405180910390fd5b6001600560008473ffffffffffffffffffffffffffffffffffffffff1673ffffffffffffffffffffffffffffffffffffffff16815260200190815260200160002060006101000a81548160ff02191690831515021790555060026000815480929190610b08906119c4565b91905055505050565b60098181548110610b2157600080fd5b906000526020600020016000915054906101000a900473ffffffffffffffffffffffffffffffffffffffff1681565b60086020528060005260406000206000915090505481565b60056020528060005260406000206000915054906101000a900460ff1681565b60606009805480602002602001604051908101604052809291908181526020018280548015610c0c57602002820191906000526020600020905b8160009054906101000a900473ffffffffffffffffffffffffffffffffffffffff1673ffffffffffffffffffffffffffffffffffffffff1681526020019060010190808311610bc2575b5050505050905090565b60076020528060005260406000206000915090505481565b600080600860008473ffffffffffffffffffffffffffffffffffffffff1673ffffffffffffffffffffffffffffffffffffffff16815260200190815260200160002054119050919050565b6000600460008373ffffffffffffffffffffffffffffffffffffffff1673ffffffffffffffffffffffffffffffffffffffff168152602001908152602001600020549050919050565b60008054906101000a900473ffffffffffffffffffffffffffffffffffffffff1681565b600160009054906101000a900473ffffffffffffffffffffffffffffffffffffffff1681565b600080600760008473ffffffffffffffffffffffffffffffffffffffff1673ffffffffffffffffffffffffffffffffffffffff16815260200190815260200160002054119050919050565b6000600760008473ffffffffffffffffffffffffffffffffffffffff1673ffffffffffffffffffffffffffffffffffffffff1681526020019081526020016000205411610dd9576040517f08c379a0000000000000000000000000000000000000000000000000000000008152600401610dd090611a58565b60405180910390fd5b6000600460008473ffffffffffffffffffffffffffffffffffffffff1673ffffffffffffffffffffffffffffffffffffffff1681526020019081526020016000205411610e5b576040517f08c379a0000000000000000000000000000000000000000000000000000000008152600401610e5290611869565b60405180910390fd5b6000600360009054906101000a900473ffffffffffffffffffffffffffffffffffffffff1673ffffffffffffffffffffffffffffffffffffffff1663a9059cbb84846040518363ffffffff1660e01b8152600401610eba929190611a78565b6020604051808303816000875af1158015610ed9573d6000803e3d6000fd5b505050506040513d601f19601f82011682018060405250810190610efd9190611acd565b905080610f3f576040517f08c379a0000000000000000000000000000000000000000000000000000000008152600401610f3690611b6c565b60405180910390fd5b600760008473ffffffffffffffffffffffffffffffffffffffff1673ffffffffffffffffffffffffffffffffffffffff16815260200190815260200160002054600460008573ffffffffffffffffffffffffffffffffffffffff1673ffffffffffffffffffffffffffffffffffffffff1681526020019081526020016000206000828254610fcd91906118b8565b925050819055506000600760008573ffffffffffffffffffffffffffffffffffffffff1673ffffffffffffffffffffffffffffffffffffffff16815260200190815260200160002081905550505050565b6000600a60009054906101000a900460ff16905090565b600560008473ffffffffffffffffffffffffffffffffffffffff1673ffffffffffffffffffffffffffffffffffffffff16815260200190815260200160002060009054906101000a900460ff166110c1576040517f08c379a00000000000000000000000000000000000000000000000000000000081526004016110b890611bfe565b60405180910390fd5b80826110cd9190611c1e565b34101561110f576040517f08c379a000000000000000000000000000000000000000000000000000000000815260040161110690611cac565b60405180910390fd5b80600460008573ffffffffffffffffffffffffffffffffffffffff1673ffffffffffffffffffffffffffffffffffffffff168152602001908152602001600020600082825461115e9190611ccc565b9250508190555060005b818110156111e0576009849080600181540180825580915050600190039060005260206000200160009091909190916101000a81548173ffffffffffffffffffffffffffffffffffffffff021916908373ffffffffffffffffffffffffffffffffffffffff1602179055508080600101915050611168565b50505050565b60025481565b6000600560008373ffffffffffffffffffffffffffffffffffffffff1673ffffffffffffffffffffffffffffffffffffffff16815260200190815260200160002060009054906101000a900460ff169050919050565b6000819050919050565b61125581611242565b82525050565b6000602082019050611270600083018461124c565b92915050565b600080fd5b600080fd5b600080fd5b600080fd5b600080fd5b60008083601f8401126112a5576112a4611280565b5b8235905067ffffffffffffffff8111156112c2576112c1611285565b5b6020830191508360408202830111156112de576112dd61128a565b5b9250929050565b60008083601f8401126112fb576112fa611280565b5b8235905067ffffffffffffffff81111561131857611317611285565b5b6020830191508360408202830111156113345761133361128a565b5b9250929050565b6000806000806040858703121561135557611354611276565b5b600085013567ffffffffffffffff8111156113735761137261127b565b5b61137f8782880161128f565b9450945050602085013567ffffffffffffffff8111156113a2576113a161127b565b5b6113ae878288016112e5565b925092505092959194509250565b600073ffffffffffffffffffffffffffffffffffffffff82169050919050565b60006113e7826113bc565b9050919050565b6113f7816113dc565b811461140257600080fd5b50565b600081359050611414816113ee565b92915050565b61142381611242565b811461142e57600080fd5b50565b6000813590506114408161141a565b92915050565b6000806040838503121561145d5761145c611276565b5b600061146b85828601611405565b925050602061147c85828601611431565b9150509250929050565b60006020828403121561149c5761149b611276565b5b60006114aa84828501611431565b91505092915050565b6114bc816113dc565b82525050565b60006020820190506114d760008301846114b3565b92915050565b6000602082840312156114f3576114f2611276565b5b600061150184828501611405565b91505092915050565b60008115159050919050565b61151f8161150a565b82525050565b600060208201905061153a6000830184611516565b92915050565b600081519050919050565b600082825260208201905092915050565b6000819050602082019050919050565b611575816113dc565b82525050565b6000611587838361156c565b60208301905092915050565b6000602082019050919050565b60006115ab82611540565b6115b5818561154b565b93506115c08361155c565b8060005b838110156115f15781516115d8888261157b565b97506115e383611593565b9250506001810190506115c4565b5085935050505092915050565b6000602082019050818103600083015261161881846115a0565b905092915050565b60008060006060848603121561163957611638611276565b5b600061164786828701611405565b935050602061165886828701611431565b925050604061166986828701611431565b9150509250925092565b600082825260208201905092915050565b7fec9db4ebafb820ec8ba4ed9689eb9098ec9788ec8ab5eb8b88eb8ba42e000000600082015250565b60006116ba601d83611673565b91506116c582611684565b602082019050919050565b600060208201905081810360008301526116e9816116ad565b9050919050565b7f4e487b7100000000000000000000000000000000000000000000000000000000600052603260045260246000fd5b7f4f776e6572eab08020ec9584eb8b99eb8b88eb8ba42e00000000000000000000600082015250565b6000611755601683611673565b91506117608261171f565b602082019050919050565b6000602082019050818103600083015261178481611748565b9050919050565b7fed9998ebb688ebb09bec9d8420ec889820ec9786ec8ab5eb8b88eb8ba42e0000600082015250565b60006117c1601e83611673565b91506117cc8261178b565b602082019050919050565b600060208201905081810360008301526117f0816117b4565b9050919050565b7feab5aceba7a4ed959c20ed8bb0ecbc93ec9db420ec9786ec8ab5eb8b88eb8ba460008201527f2e00000000000000000000000000000000000000000000000000000000000000602082015250565b6000611853602183611673565b915061185e826117f7565b604082019050919050565b6000602082019050818103600083015261188281611846565b9050919050565b7f4e487b7100000000000000000000000000000000000000000000000000000000600052601160045260246000fd5b60006118c382611242565b91506118ce83611242565b92508282039050818111156118e6576118e5611889565b5b92915050565b7fec9db4ebafb820eab5aceb8f8520eca491ec9e85eb8b88eb8ba42e0000000000600082015250565b6000611922601b83611673565b915061192d826118ec565b602082019050919050565b6000602082019050818103600083015261195181611915565b9050919050565b7fed8facec9db8ed8ab8eab08020ebb680eca1b1ed95a9eb8b88eb8ba42e000000600082015250565b600061198e601d83611673565b915061199982611958565b602082019050919050565b600060208201905081810360008301526119bd81611981565b9050919050565b60006119cf82611242565b91507fffffffffffffffffffffffffffffffffffffffffffffffffffffffffffffffff8203611a0157611a00611889565b5b600182019050919050565b7feb8bb9ecb2a8eb9098eca78020ec958aec9598ec8ab5eb8b88eb8ba42e000000600082015250565b6000611a42601d83611673565b9150611a4d82611a0c565b602082019050919050565b60006020820190508181036000830152611a7181611a35565b9050919050565b6000604082019050611a8d60008301856114b3565b611a9a602083018461124c565b9392505050565b611aaa8161150a565b8114611ab557600080fd5b50565b600081519050611ac781611aa1565b92915050565b600060208284031215611ae357611ae2611276565b5b6000611af184828501611ab8565b91505092915050565b7fed86a0ed81b020eca084ec86a1ec9db420ec8ba4ed8ca8ed9688ec8ab5eb8b8860008201527feb8ba42e00000000000000000000000000000000000000000000000000000000602082015250565b6000611b56602483611673565b9150611b6182611afa565b604082019050919050565b60006020820190508181036000830152611b8581611b49565b9050919050565b7feab5aceb8f8520eb8c80ec8381ec9e90eab08020ec9584eb8b99eb8b88eb8ba460008201527f2e00000000000000000000000000000000000000000000000000000000000000602082015250565b6000611be8602183611673565b9150611bf382611b8c565b604082019050919050565b60006020820190508181036000830152611c1781611bdb565b9050919050565b6000611c2982611242565b9150611c3483611242565b9250828202611c4281611242565b91508282048414831517611c5957611c58611889565b5b5092915050565b7feab888ec95a1ec9db420ebb680eca1b1ed95a9eb8b88eb8ba42e000000000000600082015250565b6000611c96601a83611673565b9150611ca182611c60565b602082019050919050565b60006020820190508181036000830152611cc581611c89565b9050919050565b6000611cd782611242565b9150611ce283611242565b9250828201905080821115611cfa57611cf9611889565b5b9291505056fea2646970667358221220f4ee484f4229d97b2f7b5360a85d9c90ba285c9ab0b338c6767ace095477eb6364736f6c63430008180033",
  "linkReferences": {},
  "deployedLinkReferences": {}
}