{
  "_format": "hh-sol-artifact-1",
  "contractName": "MintyWay_MintMeme",
  "sourceName": "contracts/permissions/memePlan.sol",
  "abi": [
    {
      "inputs": [
        {
          "internalType": "string",
          "name": "name",
          "type": "string"
        },
        {
          "internalType": "string",
          "name": "symbol",
          "type": "string"
        },
        {
          "internalType": "uint256",
          "name": "amout",
          "type": "uint256"
        }
      ],
      "stateMutability": "nonpayable",
      "type": "constructor"
    },
    {
      "inputs": [
        {
          "internalType": "address",
          "name": "spender",
          "type": "address"
        },
        {
          "internalType": "uint256",
          "name": "allowance",
          "type": "uint256"
        },
        {
          "internalType": "uint256",
          "name": "needed",
          "type": "uint256"
        }
      ],
      "name": "ERC20InsufficientAllowance",
      "type": "error"
    },
    {
      "inputs": [
        {
          "internalType": "address",
          "name": "sender",
          "type": "address"
        },
        {
          "internalType": "uint256",
          "name": "balance",
          "type": "uint256"
        },
        {
          "internalType": "uint256",
          "name": "needed",
          "type": "uint256"
        }
      ],
      "name": "ERC20InsufficientBalance",
      "type": "error"
    },
    {
      "inputs": [
        {
          "internalType": "address",
          "name": "approver",
          "type": "address"
        }
      ],
      "name": "ERC20InvalidApprover",
      "type": "error"
    },
    {
      "inputs": [
        {
          "internalType": "address",
          "name": "receiver",
          "type": "address"
        }
      ],
      "name": "ERC20InvalidReceiver",
      "type": "error"
    },
    {
      "inputs": [
        {
          "internalType": "address",
          "name": "sender",
          "type": "address"
        }
      ],
      "name": "ERC20InvalidSender",
      "type": "error"
    },
    {
      "inputs": [
        {
          "internalType": "address",
          "name": "spender",
          "type": "address"
        }
      ],
      "name": "ERC20InvalidSpender",
      "type": "error"
    },
    {
      "inputs": [
        {
          "internalType": "address",
          "name": "owner",
          "type": "address"
        }
      ],
      "name": "OwnableInvalidOwner",
      "type": "error"
    },
    {
      "inputs": [
        {
          "internalType": "address",
          "name": "account",
          "type": "address"
        }
      ],
      "name": "OwnableUnauthorizedAccount",
      "type": "error"
    },
    {
      "anonymous": false,
      "inputs": [
        {
          "indexed": true,
          "internalType": "address",
          "name": "owner",
          "type": "address"
        },
        {
          "indexed": true,
          "internalType": "address",
          "name": "spender",
          "type": "address"
        },
        {
          "indexed": false,
          "internalType": "uint256",
          "name": "value",
          "type": "uint256"
        }
      ],
      "name": "Approval",
      "type": "event"
    },
    {
      "anonymous": false,
      "inputs": [
        {
          "indexed": true,
          "internalType": "address",
          "name": "previousOwner",
          "type": "address"
        },
        {
          "indexed": true,
          "internalType": "address",
          "name": "newOwner",
          "type": "address"
        }
      ],
      "name": "OwnershipTransferred",
      "type": "event"
    },
    {
      "anonymous": false,
      "inputs": [
        {
          "indexed": true,
          "internalType": "address",
          "name": "from",
          "type": "address"
        },
        {
          "indexed": true,
          "internalType": "address",
          "name": "to",
          "type": "address"
        },
        {
          "indexed": false,
          "internalType": "uint256",
          "name": "value",
          "type": "uint256"
        }
      ],
      "name": "Transfer",
      "type": "event"
    },
    {
      "inputs": [
        {
          "internalType": "address",
          "name": "owner",
          "type": "address"
        },
        {
          "internalType": "address",
          "name": "spender",
          "type": "address"
        }
      ],
      "name": "allowance",
      "outputs": [
        {
          "internalType": "uint256",
          "name": "",
          "type": "uint256"
        }
      ],
      "stateMutability": "view",
      "type": "function"
    },
    {
      "inputs": [
        {
          "internalType": "address",
          "name": "spender",
          "type": "address"
        },
        {
          "internalType": "uint256",
          "name": "value",
          "type": "uint256"
        }
      ],
      "name": "approve",
      "outputs": [
        {
          "internalType": "bool",
          "name": "",
          "type": "bool"
        }
      ],
      "stateMutability": "nonpayable",
      "type": "function"
    },
    {
      "inputs": [
        {
          "internalType": "address",
          "name": "account",
          "type": "address"
        }
      ],
      "name": "balanceOf",
      "outputs": [
        {
          "internalType": "uint256",
          "name": "",
          "type": "uint256"
        }
      ],
      "stateMutability": "view",
      "type": "function"
    },
    {
      "inputs": [
        {
          "internalType": "address",
          "name": "from",
          "type": "address"
        },
        {
          "internalType": "uint256",
          "name": "amount",
          "type": "uint256"
        }
      ],
      "name": "burn",
      "outputs": [],
      "stateMutability": "nonpayable",
      "type": "function"
    },
    {
      "inputs": [],
      "name": "decimals",
      "outputs": [
        {
          "internalType": "uint8",
          "name": "",
          "type": "uint8"
        }
      ],
      "stateMutability": "view",
      "type": "function"
    },
    {
      "inputs": [
        {
          "internalType": "address",
          "name": "to",
          "type": "address"
        },
        {
          "internalType": "uint256",
          "name": "amount",
          "type": "uint256"
        }
      ],
      "name": "mint",
      "outputs": [],
      "stateMutability": "nonpayable",
      "type": "function"
    },
    {
      "inputs": [],
      "name": "mintedOnce",
      "outputs": [
        {
          "internalType": "bool",
          "name": "",
          "type": "bool"
        }
      ],
      "stateMutability": "view",
      "type": "function"
    },
    {
      "inputs": [],
      "name": "name",
      "outputs": [
        {
          "internalType": "string",
          "name": "",
          "type": "string"
        }
      ],
      "stateMutability": "view",
      "type": "function"
    },
    {
      "inputs": [],
      "name": "owner",
      "outputs": [
        {
          "internalType": "address",
          "name": "",
          "type": "address"
        }
      ],
      "stateMutability": "view",
      "type": "function"
    },
    {
      "inputs": [],
      "name": "points",
      "outputs": [
        {
          "internalType": "uint256",
          "name": "",
          "type": "uint256"
        }
      ],
      "stateMutability": "view",
      "type": "function"
    },
    {
      "inputs": [],
      "name": "renounceOwnership",
      "outputs": [],
      "stateMutability": "nonpayable",
      "type": "function"
    },
    {
      "inputs": [],
      "name": "symbol",
      "outputs": [
        {
          "internalType": "string",
          "name": "",
          "type": "string"
        }
      ],
      "stateMutability": "view",
      "type": "function"
    },
    {
      "inputs": [],
      "name": "totalSupply",
      "outputs": [
        {
          "internalType": "uint256",
          "name": "",
          "type": "uint256"
        }
      ],
      "stateMutability": "view",
      "type": "function"
    },
    {
      "inputs": [
        {
          "internalType": "address",
          "name": "to",
          "type": "address"
        },
        {
          "internalType": "uint256",
          "name": "value",
          "type": "uint256"
        }
      ],
      "name": "transfer",
      "outputs": [
        {
          "internalType": "bool",
          "name": "",
          "type": "bool"
        }
      ],
      "stateMutability": "nonpayable",
      "type": "function"
    },
    {
      "inputs": [
        {
          "internalType": "address",
          "name": "from",
          "type": "address"
        },
        {
          "internalType": "address",
          "name": "to",
          "type": "address"
        },
        {
          "internalType": "uint256",
          "name": "value",
          "type": "uint256"
        }
      ],
      "name": "transferFrom",
      "outputs": [
        {
          "internalType": "bool",
          "name": "",
          "type": "bool"
        }
      ],
      "stateMutability": "nonpayable",
      "type": "function"
    },
    {
      "inputs": [
        {
          "internalType": "address",
          "name": "newOwner",
          "type": "address"
        }
      ],
      "name": "transferOwnership",
      "outputs": [],
      "stateMutability": "nonpayable",
      "type": "function"
    }
  ],
  "bytecode": "0x608060405260646006556000600760006101000a81548160ff0219169083151502179055503480156200003157600080fd5b5060405162001ec238038062001ec283398181016040528101906200005791906200068e565b33838381600390816200006b919062000969565b5080600490816200007d919062000969565b505050600073ffffffffffffffffffffffffffffffffffffffff168173ffffffffffffffffffffffffffffffffffffffff1603620000f55760006040517f1e4fbdf7000000000000000000000000000000000000000000000000000000008152600401620000ec919062000a95565b60405180910390fd5b62000106816200013d60201b60201c565b506200011933826200020360201b60201c565b6001600760006101000a81548160ff02191690831515021790555050505062000b87565b6000600560009054906101000a900473ffffffffffffffffffffffffffffffffffffffff16905081600560006101000a81548173ffffffffffffffffffffffffffffffffffffffff021916908373ffffffffffffffffffffffffffffffffffffffff1602179055508173ffffffffffffffffffffffffffffffffffffffff168173ffffffffffffffffffffffffffffffffffffffff167f8be0079c531659141344cd1fd0a4f28419497f9722a3daafe3b4186f6b6457e060405160405180910390a35050565b600073ffffffffffffffffffffffffffffffffffffffff168273ffffffffffffffffffffffffffffffffffffffff1603620002785760006040517fec442f050000000000000000000000000000000000000000000000000000000081526004016200026f919062000a95565b60405180910390fd5b6200028c600083836200029060201b60201c565b5050565b600073ffffffffffffffffffffffffffffffffffffffff168373ffffffffffffffffffffffffffffffffffffffff1603620002e6578060026000828254620002d9919062000ae1565b92505081905550620003bc565b60008060008573ffffffffffffffffffffffffffffffffffffffff1673ffffffffffffffffffffffffffffffffffffffff1681526020019081526020016000205490508181101562000375578381836040517fe450d38c0000000000000000000000000000000000000000000000000000000081526004016200036c9392919062000b2d565b60405180910390fd5b8181036000808673ffffffffffffffffffffffffffffffffffffffff1673ffffffffffffffffffffffffffffffffffffffff16815260200190815260200160002081905550505b600073ffffffffffffffffffffffffffffffffffffffff168273ffffffffffffffffffffffffffffffffffffffff160362000407578060026000828254039250508190555062000454565b806000808473ffffffffffffffffffffffffffffffffffffffff1673ffffffffffffffffffffffffffffffffffffffff168152602001908152602001600020600082825401925050819055505b8173ffffffffffffffffffffffffffffffffffffffff168373ffffffffffffffffffffffffffffffffffffffff167fddf252ad1be2c89b69c2b068fc378daa952ba7f163c4a11628f55a4df523b3ef83604051620004b3919062000b6a565b60405180910390a3505050565b6000604051905090565b600080fd5b600080fd5b600080fd5b600080fd5b6000601f19601f8301169050919050565b7f4e487b7100000000000000000000000000000000000000000000000000000000600052604160045260246000fd5b6200052982620004de565b810181811067ffffffffffffffff821117156200054b576200054a620004ef565b5b80604052505050565b600062000560620004c0565b90506200056e82826200051e565b919050565b600067ffffffffffffffff821115620005915762000590620004ef565b5b6200059c82620004de565b9050602081019050919050565b60005b83811015620005c9578082015181840152602081019050620005ac565b60008484015250505050565b6000620005ec620005e68462000573565b62000554565b9050828152602081018484840111156200060b576200060a620004d9565b5b62000618848285620005a9565b509392505050565b600082601f830112620006385762000637620004d4565b5b81516200064a848260208601620005d5565b91505092915050565b6000819050919050565b620006688162000653565b81146200067457600080fd5b50565b60008151905062000688816200065d565b92915050565b600080600060608486031215620006aa57620006a9620004ca565b5b600084015167ffffffffffffffff811115620006cb57620006ca620004cf565b5b620006d98682870162000620565b935050602084015167ffffffffffffffff811115620006fd57620006fc620004cf565b5b6200070b8682870162000620565b92505060406200071e8682870162000677565b9150509250925092565b600081519050919050565b7f4e487b7100000000000000000000000000000000000000000000000000000000600052602260045260246000fd5b600060028204905060018216806200077b57607f821691505b60208210810362000791576200079062000733565b5b50919050565b60008190508160005260206000209050919050565b60006020601f8301049050919050565b600082821b905092915050565b600060088302620007fb7fffffffffffffffffffffffffffffffffffffffffffffffffffffffffffffffff82620007bc565b620008078683620007bc565b95508019841693508086168417925050509392505050565b6000819050919050565b60006200084a620008446200083e8462000653565b6200081f565b62000653565b9050919050565b6000819050919050565b620008668362000829565b6200087e620008758262000851565b848454620007c9565b825550505050565b600090565b6200089562000886565b620008a28184846200085b565b505050565b5b81811015620008ca57620008be6000826200088b565b600181019050620008a8565b5050565b601f8211156200091957620008e38162000797565b620008ee84620007ac565b81016020851015620008fe578190505b620009166200090d85620007ac565b830182620008a7565b50505b505050565b600082821c905092915050565b60006200093e600019846008026200091e565b1980831691505092915050565b60006200095983836200092b565b9150826002028217905092915050565b620009748262000728565b67ffffffffffffffff81111562000990576200098f620004ef565b5b6200099c825462000762565b620009a9828285620008ce565b600060209050601f831160018114620009e15760008415620009cc578287015190505b620009d885826200094b565b86555062000a48565b601f198416620009f18662000797565b60005b8281101562000a1b57848901518255600182019150602085019450602081019050620009f4565b8683101562000a3b578489015162000a37601f8916826200092b565b8355505b6001600288020188555050505b505050505050565b600073ffffffffffffffffffffffffffffffffffffffff82169050919050565b600062000a7d8262000a50565b9050919050565b62000a8f8162000a70565b82525050565b600060208201905062000aac600083018462000a84565b92915050565b7f4e487b7100000000000000000000000000000000000000000000000000000000600052601160045260246000fd5b600062000aee8262000653565b915062000afb8362000653565b925082820190508082111562000b165762000b1562000ab2565b5b92915050565b62000b278162000653565b82525050565b600060608201905062000b44600083018662000a84565b62000b53602083018562000b1c565b62000b62604083018462000b1c565b949350505050565b600060208201905062000b81600083018462000b1c565b92915050565b61132b8062000b976000396000f3fe608060405234801561001057600080fd5b50600436106101005760003560e01c8063715018a611610097578063a9059cbb11610066578063a9059cbb1461028b578063c8e7d8cf146102bb578063dd62ed3e146102d9578063f2fde38b1461030957610100565b8063715018a6146102295780638da5cb5b1461023357806395d89b41146102515780639dc29fac1461026f57610100565b806323b872dd116100d357806323b872dd1461018f578063313ce567146101bf57806340c10f19146101dd57806370a08231146101f957610100565b806306fdde0314610105578063095ea7b31461012357806318160ddd146101535780631be6dd6414610171575b600080fd5b61010d610325565b60405161011a9190610f7f565b60405180910390f35b61013d6004803603810190610138919061103a565b6103b7565b60405161014a9190611095565b60405180910390f35b61015b6103da565b60405161016891906110bf565b60405180910390f35b6101796103e4565b60405161018691906110bf565b60405180910390f35b6101a960048036038101906101a491906110da565b6103ea565b6040516101b69190611095565b60405180910390f35b6101c7610419565b6040516101d49190611149565b60405180910390f35b6101f760048036038101906101f2919061103a565b610422565b005b610213600480360381019061020e9190611164565b610475565b60405161022091906110bf565b60405180910390f35b6102316104bd565b005b61023b6104d1565b60405161024891906111a0565b60405180910390f35b6102596104fb565b6040516102669190610f7f565b60405180910390f35b6102896004803603810190610284919061103a565b61058d565b005b6102a560048036038101906102a0919061103a565b6105bd565b6040516102b29190611095565b60405180910390f35b6102c36105e0565b6040516102d09190611095565b60405180910390f35b6102f360048036038101906102ee91906111bb565b6105f3565b60405161030091906110bf565b60405180910390f35b610323600480360381019061031e9190611164565b61067a565b005b6060600380546103349061122a565b80601f01602080910402602001604051908101604052809291908181526020018280546103609061122a565b80156103ad5780601f10610382576101008083540402835291602001916103ad565b820191906000526020600020905b81548152906001019060200180831161039057829003601f168201915b5050505050905090565b6000806103c2610700565b90506103cf818585610708565b600191505092915050565b6000600254905090565b60065481565b6000806103f5610700565b905061040285828561071a565b61040d8585856107ae565b60019150509392505050565b60006012905090565b61042a6108a2565b6000600760006101000a81548160ff021916908315150217905561044d57600080fd5b6104578282610929565b60146006600082825461046a919061128a565b925050819055505050565b60008060008373ffffffffffffffffffffffffffffffffffffffff1673ffffffffffffffffffffffffffffffffffffffff168152602001908152602001600020549050919050565b6104c56108a2565b6104cf60006109ab565b565b6000600560009054906101000a900473ffffffffffffffffffffffffffffffffffffffff16905090565b60606004805461050a9061122a565b80601f01602080910402602001604051908101604052809291908181526020018280546105369061122a565b80156105835780601f1061055857610100808354040283529160200191610583565b820191906000526020600020905b81548152906001019060200180831161056657829003601f168201915b5050505050905090565b6105956108a2565b61059f8282610a71565b6028600660008282546105b2919061128a565b925050819055505050565b6000806105c8610700565b90506105d58185856107ae565b600191505092915050565b600760009054906101000a900460ff1681565b6000600160008473ffffffffffffffffffffffffffffffffffffffff1673ffffffffffffffffffffffffffffffffffffffff16815260200190815260200160002060008373ffffffffffffffffffffffffffffffffffffffff1673ffffffffffffffffffffffffffffffffffffffff16815260200190815260200160002054905092915050565b6106826108a2565b600073ffffffffffffffffffffffffffffffffffffffff168173ffffffffffffffffffffffffffffffffffffffff16036106f45760006040517f1e4fbdf70000000000000000000000000000000000000000000000000000000081526004016106eb91906111a0565b60405180910390fd5b6106fd816109ab565b50565b600033905090565b6107158383836001610af3565b505050565b600061072684846105f3565b90507fffffffffffffffffffffffffffffffffffffffffffffffffffffffffffffffff81146107a85781811015610798578281836040517ffb8f41b200000000000000000000000000000000000000000000000000000000815260040161078f939291906112be565b60405180910390fd5b6107a784848484036000610af3565b5b50505050565b600073ffffffffffffffffffffffffffffffffffffffff168373ffffffffffffffffffffffffffffffffffffffff16036108205760006040517f96c6fd1e00000000000000000000000000000000000000000000000000000000815260040161081791906111a0565b60405180910390fd5b600073ffffffffffffffffffffffffffffffffffffffff168273ffffffffffffffffffffffffffffffffffffffff16036108925760006040517fec442f0500000000000000000000000000000000000000000000000000000000815260040161088991906111a0565b60405180910390fd5b61089d838383610cca565b505050565b6108aa610700565b73ffffffffffffffffffffffffffffffffffffffff166108c86104d1565b73ffffffffffffffffffffffffffffffffffffffff1614610927576108eb610700565b6040517f118cdaa700000000000000000000000000000000000000000000000000000000815260040161091e91906111a0565b60405180910390fd5b565b600073ffffffffffffffffffffffffffffffffffffffff168273ffffffffffffffffffffffffffffffffffffffff160361099b5760006040517fec442f0500000000000000000000000000000000000000000000000000000000815260040161099291906111a0565b60405180910390fd5b6109a760008383610cca565b5050565b6000600560009054906101000a900473ffffffffffffffffffffffffffffffffffffffff16905081600560006101000a81548173ffffffffffffffffffffffffffffffffffffffff021916908373ffffffffffffffffffffffffffffffffffffffff1602179055508173ffffffffffffffffffffffffffffffffffffffff168173ffffffffffffffffffffffffffffffffffffffff167f8be0079c531659141344cd1fd0a4f28419497f9722a3daafe3b4186f6b6457e060405160405180910390a35050565b600073ffffffffffffffffffffffffffffffffffffffff168273ffffffffffffffffffffffffffffffffffffffff1603610ae35760006040517f96c6fd1e000000000000000000000000000000000000000000000000000000008152600401610ada91906111a0565b60405180910390fd5b610aef82600083610cca565b5050565b600073ffffffffffffffffffffffffffffffffffffffff168473ffffffffffffffffffffffffffffffffffffffff1603610b655760006040517fe602df05000000000000000000000000000000000000000000000000000000008152600401610b5c91906111a0565b60405180910390fd5b600073ffffffffffffffffffffffffffffffffffffffff168373ffffffffffffffffffffffffffffffffffffffff1603610bd75760006040517f94280d62000000000000000000000000000000000000000000000000000000008152600401610bce91906111a0565b60405180910390fd5b81600160008673ffffffffffffffffffffffffffffffffffffffff1673ffffffffffffffffffffffffffffffffffffffff16815260200190815260200160002060008573ffffffffffffffffffffffffffffffffffffffff1673ffffffffffffffffffffffffffffffffffffffff168152602001908152602001600020819055508015610cc4578273ffffffffffffffffffffffffffffffffffffffff168473ffffffffffffffffffffffffffffffffffffffff167f8c5be1e5ebec7d5bd14f71427d1e84f3dd0314c0f7b2291e5b200ac8c7c3b92584604051610cbb91906110bf565b60405180910390a35b50505050565b600073ffffffffffffffffffffffffffffffffffffffff168373ffffffffffffffffffffffffffffffffffffffff1603610d1c578060026000828254610d10919061128a565b92505081905550610def565b60008060008573ffffffffffffffffffffffffffffffffffffffff1673ffffffffffffffffffffffffffffffffffffffff16815260200190815260200160002054905081811015610da8578381836040517fe450d38c000000000000000000000000000000000000000000000000000000008152600401610d9f939291906112be565b60405180910390fd5b8181036000808673ffffffffffffffffffffffffffffffffffffffff1673ffffffffffffffffffffffffffffffffffffffff16815260200190815260200160002081905550505b600073ffffffffffffffffffffffffffffffffffffffff168273ffffffffffffffffffffffffffffffffffffffff1603610e385780600260008282540392505081905550610e85565b806000808473ffffffffffffffffffffffffffffffffffffffff1673ffffffffffffffffffffffffffffffffffffffff168152602001908152602001600020600082825401925050819055505b8173ffffffffffffffffffffffffffffffffffffffff168373ffffffffffffffffffffffffffffffffffffffff167fddf252ad1be2c89b69c2b068fc378daa952ba7f163c4a11628f55a4df523b3ef83604051610ee291906110bf565b60405180910390a3505050565b600081519050919050565b600082825260208201905092915050565b60005b83811015610f29578082015181840152602081019050610f0e565b60008484015250505050565b6000601f19601f8301169050919050565b6000610f5182610eef565b610f5b8185610efa565b9350610f6b818560208601610f0b565b610f7481610f35565b840191505092915050565b60006020820190508181036000830152610f998184610f46565b905092915050565b600080fd5b600073ffffffffffffffffffffffffffffffffffffffff82169050919050565b6000610fd182610fa6565b9050919050565b610fe181610fc6565b8114610fec57600080fd5b50565b600081359050610ffe81610fd8565b92915050565b6000819050919050565b61101781611004565b811461102257600080fd5b50565b6000813590506110348161100e565b92915050565b6000806040838503121561105157611050610fa1565b5b600061105f85828601610fef565b925050602061107085828601611025565b9150509250929050565b60008115159050919050565b61108f8161107a565b82525050565b60006020820190506110aa6000830184611086565b92915050565b6110b981611004565b82525050565b60006020820190506110d460008301846110b0565b92915050565b6000806000606084860312156110f3576110f2610fa1565b5b600061110186828701610fef565b935050602061111286828701610fef565b925050604061112386828701611025565b9150509250925092565b600060ff82169050919050565b6111438161112d565b82525050565b600060208201905061115e600083018461113a565b92915050565b60006020828403121561117a57611179610fa1565b5b600061118884828501610fef565b91505092915050565b61119a81610fc6565b82525050565b60006020820190506111b56000830184611191565b92915050565b600080604083850312156111d2576111d1610fa1565b5b60006111e085828601610fef565b92505060206111f185828601610fef565b9150509250929050565b7f4e487b7100000000000000000000000000000000000000000000000000000000600052602260045260246000fd5b6000600282049050600182168061124257607f821691505b602082108103611255576112546111fb565b5b50919050565b7f4e487b7100000000000000000000000000000000000000000000000000000000600052601160045260246000fd5b600061129582611004565b91506112a083611004565b92508282019050808211156112b8576112b761125b565b5b92915050565b60006060820190506112d36000830186611191565b6112e060208301856110b0565b6112ed60408301846110b0565b94935050505056fea2646970667358221220f2d01b1ba2bcc395ef76ca51df162413e790c1145ed8e9ddd05609f988b11a3f64736f6c63430008180033",
  "linkReferences": {},
  "deployedLinkReferences": {}
}