{
  "_format": "hh-sol-artifact-1",
  "contractName": "LaunchpadManager",
  "sourceName": "contracts/launchpad/LaunchpadManager.sol",
  "abi": [
    {
      "inputs": [
        {
          "internalType": "address",
          "name": "_tokenAddress",
          "type": "address"
        },
        {
          "internalType": "address",
          "name": "_launchpadAddress",
          "type": "address"
        }
      ],
      "name": "addLaunchpad",
      "outputs": [],
      "stateMutability": "nonpayable",
      "type": "function"
    },
    {
      "inputs": [
        {
          "internalType": "address",
          "name": "_tokenAddress",
          "type": "address"
        }
      ],
      "name": "getLaunchpad",
      "outputs": [
        {
          "internalType": "address",
          "name": "",
          "type": "address"
        }
      ],
      "stateMutability": "view",
      "type": "function"
    },
    {
      "inputs": [],
      "name": "getLaunchpadList",
      "outputs": [
        {
          "internalType": "address[]",
          "name": "",
          "type": "address[]"
        }
      ],
      "stateMutability": "view",
      "type": "function"
    }
  ],
  "bytecode": "0x608060405234801561001057600080fd5b5061073d806100206000396000f3fe608060405234801561001057600080fd5b50600436106100415760003560e01c806353cb932f14610046578063a025b04e14610062578063b6fbc2e114610080575b600080fd5b610060600480360381019061005b919061048f565b6100b0565b005b61006a610261565b604051610077919061058d565b60405180910390f35b61009a600480360381019061009591906105af565b6103c4565b6040516100a791906105eb565b60405180910390f35b600073ffffffffffffffffffffffffffffffffffffffff166000808473ffffffffffffffffffffffffffffffffffffffff1673ffffffffffffffffffffffffffffffffffffffff16815260200190815260200160002060009054906101000a900473ffffffffffffffffffffffffffffffffffffffff1673ffffffffffffffffffffffffffffffffffffffff161461017d576040517f08c379a000000000000000000000000000000000000000000000000000000000815260040161017490610689565b60405180910390fd5b806000808473ffffffffffffffffffffffffffffffffffffffff1673ffffffffffffffffffffffffffffffffffffffff16815260200190815260200160002060006101000a81548173ffffffffffffffffffffffffffffffffffffffff021916908373ffffffffffffffffffffffffffffffffffffffff1602179055506001829080600181540180825580915050600190039060005260206000200160009091909190916101000a81548173ffffffffffffffffffffffffffffffffffffffff021916908373ffffffffffffffffffffffffffffffffffffffff1602179055505050565b6060600060018054905067ffffffffffffffff811115610284576102836106a9565b5b6040519080825280602002602001820160405280156102b25781602001602082028036833780820191505090505b50905060005b6001805490508110156103bc57600080600183815481106102dc576102db6106d8565b5b9060005260206000200160009054906101000a900473ffffffffffffffffffffffffffffffffffffffff1673ffffffffffffffffffffffffffffffffffffffff1673ffffffffffffffffffffffffffffffffffffffff16815260200190815260200160002060009054906101000a900473ffffffffffffffffffffffffffffffffffffffff16828281518110610375576103746106d8565b5b602002602001019073ffffffffffffffffffffffffffffffffffffffff16908173ffffffffffffffffffffffffffffffffffffffff168152505080806001019150506102b8565b508091505090565b60008060008373ffffffffffffffffffffffffffffffffffffffff1673ffffffffffffffffffffffffffffffffffffffff16815260200190815260200160002060009054906101000a900473ffffffffffffffffffffffffffffffffffffffff169050919050565b600080fd5b600073ffffffffffffffffffffffffffffffffffffffff82169050919050565b600061045c82610431565b9050919050565b61046c81610451565b811461047757600080fd5b50565b60008135905061048981610463565b92915050565b600080604083850312156104a6576104a561042c565b5b60006104b48582860161047a565b92505060206104c58582860161047a565b9150509250929050565b600081519050919050565b600082825260208201905092915050565b6000819050602082019050919050565b61050481610451565b82525050565b600061051683836104fb565b60208301905092915050565b6000602082019050919050565b600061053a826104cf565b61054481856104da565b935061054f836104eb565b8060005b83811015610580578151610567888261050a565b975061057283610522565b925050600181019050610553565b5085935050505092915050565b600060208201905081810360008301526105a7818461052f565b905092915050565b6000602082840312156105c5576105c461042c565b5b60006105d38482850161047a565b91505092915050565b6105e581610451565b82525050565b600060208201905061060060008301846105dc565b92915050565b600082825260208201905092915050565b7fec9db4ebafb820eb9fb0ecb998ed8ca8eb939ceab08020eca784ed968920eca460008201527f91ec9e85eb8b88eb8ba42e000000000000000000000000000000000000000000602082015250565b6000610673602b83610606565b915061067e82610617565b604082019050919050565b600060208201905081810360008301526106a281610666565b9050919050565b7f4e487b7100000000000000000000000000000000000000000000000000000000600052604160045260246000fd5b7f4e487b7100000000000000000000000000000000000000000000000000000000600052603260045260246000fdfea2646970667358221220c818d23153b4fef82a20be01e97920edcfe42476d0ea48e26023d1e2b5c7bf6264736f6c63430008180033",
  "linkReferences": {},
  "deployedLinkReferences": {}
}