{
  "_format": "hh-sol-artifact-1",
  "contractName": "MintyWay_MintBasic",
  "sourceName": "contracts/permissions/basicPlan.sol",
  "abi": [
    {
      "inputs": [
        {
          "internalType": "string",
          "name": "name",
          "type": "string"
        },
        {
          "internalType": "string",
          "name": "symbol",
          "type": "string"
        },
        {
          "internalType": "uint256",
          "name": "amout",
          "type": "uint256"
        }
      ],
      "stateMutability": "nonpayable",
      "type": "constructor"
    },
    {
      "inputs": [],
      "name": "AccessControlBadConfirmation",
      "type": "error"
    },
    {
      "inputs": [
        {
          "internalType": "address",
          "name": "account",
          "type": "address"
        },
        {
          "internalType": "bytes32",
          "name": "neededRole",
          "type": "bytes32"
        }
      ],
      "name": "AccessControlUnauthorizedAccount",
      "type": "error"
    },
    {
      "inputs": [
        {
          "internalType": "address",
          "name": "spender",
          "type": "address"
        },
        {
          "internalType": "uint256",
          "name": "allowance",
          "type": "uint256"
        },
        {
          "internalType": "uint256",
          "name": "needed",
          "type": "uint256"
        }
      ],
      "name": "ERC20InsufficientAllowance",
      "type": "error"
    },
    {
      "inputs": [
        {
          "internalType": "address",
          "name": "sender",
          "type": "address"
        },
        {
          "internalType": "uint256",
          "name": "balance",
          "type": "uint256"
        },
        {
          "internalType": "uint256",
          "name": "needed",
          "type": "uint256"
        }
      ],
      "name": "ERC20InsufficientBalance",
      "type": "error"
    },
    {
      "inputs": [
        {
          "internalType": "address",
          "name": "approver",
          "type": "address"
        }
      ],
      "name": "ERC20InvalidApprover",
      "type": "error"
    },
    {
      "inputs": [
        {
          "internalType": "address",
          "name": "receiver",
          "type": "address"
        }
      ],
      "name": "ERC20InvalidReceiver",
      "type": "error"
    },
    {
      "inputs": [
        {
          "internalType": "address",
          "name": "sender",
          "type": "address"
        }
      ],
      "name": "ERC20InvalidSender",
      "type": "error"
    },
    {
      "inputs": [
        {
          "internalType": "address",
          "name": "spender",
          "type": "address"
        }
      ],
      "name": "ERC20InvalidSpender",
      "type": "error"
    },
    {
      "inputs": [
        {
          "internalType": "address",
          "name": "owner",
          "type": "address"
        }
      ],
      "name": "OwnableInvalidOwner",
      "type": "error"
    },
    {
      "inputs": [
        {
          "internalType": "address",
          "name": "account",
          "type": "address"
        }
      ],
      "name": "OwnableUnauthorizedAccount",
      "type": "error"
    },
    {
      "anonymous": false,
      "inputs": [
        {
          "indexed": true,
          "internalType": "address",
          "name": "owner",
          "type": "address"
        },
        {
          "indexed": true,
          "internalType": "address",
          "name": "spender",
          "type": "address"
        },
        {
          "indexed": false,
          "internalType": "uint256",
          "name": "value",
          "type": "uint256"
        }
      ],
      "name": "Approval",
      "type": "event"
    },
    {
      "anonymous": false,
      "inputs": [
        {
          "indexed": true,
          "internalType": "address",
          "name": "previousOwner",
          "type": "address"
        },
        {
          "indexed": true,
          "internalType": "address",
          "name": "newOwner",
          "type": "address"
        }
      ],
      "name": "OwnershipTransferred",
      "type": "event"
    },
    {
      "anonymous": false,
      "inputs": [
        {
          "indexed": true,
          "internalType": "bytes32",
          "name": "role",
          "type": "bytes32"
        },
        {
          "indexed": true,
          "internalType": "bytes32",
          "name": "previousAdminRole",
          "type": "bytes32"
        },
        {
          "indexed": true,
          "internalType": "bytes32",
          "name": "newAdminRole",
          "type": "bytes32"
        }
      ],
      "name": "RoleAdminChanged",
      "type": "event"
    },
    {
      "anonymous": false,
      "inputs": [
        {
          "indexed": true,
          "internalType": "bytes32",
          "name": "role",
          "type": "bytes32"
        },
        {
          "indexed": true,
          "internalType": "address",
          "name": "account",
          "type": "address"
        },
        {
          "indexed": true,
          "internalType": "address",
          "name": "sender",
          "type": "address"
        }
      ],
      "name": "RoleGranted",
      "type": "event"
    },
    {
      "anonymous": false,
      "inputs": [
        {
          "indexed": true,
          "internalType": "bytes32",
          "name": "role",
          "type": "bytes32"
        },
        {
          "indexed": true,
          "internalType": "address",
          "name": "account",
          "type": "address"
        },
        {
          "indexed": true,
          "internalType": "address",
          "name": "sender",
          "type": "address"
        }
      ],
      "name": "RoleRevoked",
      "type": "event"
    },
    {
      "anonymous": false,
      "inputs": [
        {
          "indexed": true,
          "internalType": "address",
          "name": "from",
          "type": "address"
        },
        {
          "indexed": true,
          "internalType": "address",
          "name": "to",
          "type": "address"
        },
        {
          "indexed": false,
          "internalType": "uint256",
          "name": "value",
          "type": "uint256"
        }
      ],
      "name": "Transfer",
      "type": "event"
    },
    {
      "inputs": [],
      "name": "BURNER_ROLE",
      "outputs": [
        {
          "internalType": "bytes32",
          "name": "",
          "type": "bytes32"
        }
      ],
      "stateMutability": "view",
      "type": "function"
    },
    {
      "inputs": [],
      "name": "DEFAULT_ADMIN_ROLE",
      "outputs": [
        {
          "internalType": "bytes32",
          "name": "",
          "type": "bytes32"
        }
      ],
      "stateMutability": "view",
      "type": "function"
    },
    {
      "inputs": [],
      "name": "MINTER_ROLE",
      "outputs": [
        {
          "internalType": "bytes32",
          "name": "",
          "type": "bytes32"
        }
      ],
      "stateMutability": "view",
      "type": "function"
    },
    {
      "inputs": [
        {
          "internalType": "address",
          "name": "account",
          "type": "address"
        }
      ],
      "name": "addBurner",
      "outputs": [],
      "stateMutability": "nonpayable",
      "type": "function"
    },
    {
      "inputs": [
        {
          "internalType": "address",
          "name": "account",
          "type": "address"
        }
      ],
      "name": "addMinter",
      "outputs": [],
      "stateMutability": "nonpayable",
      "type": "function"
    },
    {
      "inputs": [
        {
          "internalType": "address",
          "name": "owner",
          "type": "address"
        },
        {
          "internalType": "address",
          "name": "spender",
          "type": "address"
        }
      ],
      "name": "allowance",
      "outputs": [
        {
          "internalType": "uint256",
          "name": "",
          "type": "uint256"
        }
      ],
      "stateMutability": "view",
      "type": "function"
    },
    {
      "inputs": [
        {
          "internalType": "address",
          "name": "spender",
          "type": "address"
        },
        {
          "internalType": "uint256",
          "name": "value",
          "type": "uint256"
        }
      ],
      "name": "approve",
      "outputs": [
        {
          "internalType": "bool",
          "name": "",
          "type": "bool"
        }
      ],
      "stateMutability": "nonpayable",
      "type": "function"
    },
    {
      "inputs": [
        {
          "internalType": "address",
          "name": "account",
          "type": "address"
        }
      ],
      "name": "balanceOf",
      "outputs": [
        {
          "internalType": "uint256",
          "name": "",
          "type": "uint256"
        }
      ],
      "stateMutability": "view",
      "type": "function"
    },
    {
      "inputs": [
        {
          "internalType": "address",
          "name": "from",
          "type": "address"
        },
        {
          "internalType": "uint256",
          "name": "amount",
          "type": "uint256"
        }
      ],
      "name": "burn",
      "outputs": [],
      "stateMutability": "nonpayable",
      "type": "function"
    },
    {
      "inputs": [],
      "name": "decimals",
      "outputs": [
        {
          "internalType": "uint8",
          "name": "",
          "type": "uint8"
        }
      ],
      "stateMutability": "view",
      "type": "function"
    },
    {
      "inputs": [
        {
          "internalType": "bytes32",
          "name": "role",
          "type": "bytes32"
        }
      ],
      "name": "getRoleAdmin",
      "outputs": [
        {
          "internalType": "bytes32",
          "name": "",
          "type": "bytes32"
        }
      ],
      "stateMutability": "view",
      "type": "function"
    },
    {
      "inputs": [
        {
          "internalType": "bytes32",
          "name": "role",
          "type": "bytes32"
        },
        {
          "internalType": "uint256",
          "name": "index",
          "type": "uint256"
        }
      ],
      "name": "getRoleMember",
      "outputs": [
        {
          "internalType": "address",
          "name": "",
          "type": "address"
        }
      ],
      "stateMutability": "view",
      "type": "function"
    },
    {
      "inputs": [
        {
          "internalType": "bytes32",
          "name": "role",
          "type": "bytes32"
        }
      ],
      "name": "getRoleMemberCount",
      "outputs": [
        {
          "internalType": "uint256",
          "name": "",
          "type": "uint256"
        }
      ],
      "stateMutability": "view",
      "type": "function"
    },
    {
      "inputs": [
        {
          "internalType": "bytes32",
          "name": "role",
          "type": "bytes32"
        },
        {
          "internalType": "address",
          "name": "account",
          "type": "address"
        }
      ],
      "name": "grantRole",
      "outputs": [],
      "stateMutability": "nonpayable",
      "type": "function"
    },
    {
      "inputs": [
        {
          "internalType": "bytes32",
          "name": "role",
          "type": "bytes32"
        },
        {
          "internalType": "address",
          "name": "account",
          "type": "address"
        }
      ],
      "name": "hasRole",
      "outputs": [
        {
          "internalType": "bool",
          "name": "",
          "type": "bool"
        }
      ],
      "stateMutability": "view",
      "type": "function"
    },
    {
      "inputs": [],
      "name": "isBurnable",
      "outputs": [
        {
          "internalType": "bool",
          "name": "",
          "type": "bool"
        }
      ],
      "stateMutability": "view",
      "type": "function"
    },
    {
      "inputs": [],
      "name": "isMintable",
      "outputs": [
        {
          "internalType": "bool",
          "name": "",
          "type": "bool"
        }
      ],
      "stateMutability": "view",
      "type": "function"
    },
    {
      "inputs": [
        {
          "internalType": "address",
          "name": "to",
          "type": "address"
        },
        {
          "internalType": "uint256",
          "name": "amount",
          "type": "uint256"
        }
      ],
      "name": "mint",
      "outputs": [],
      "stateMutability": "nonpayable",
      "type": "function"
    },
    {
      "inputs": [],
      "name": "name",
      "outputs": [
        {
          "internalType": "string",
          "name": "",
          "type": "string"
        }
      ],
      "stateMutability": "view",
      "type": "function"
    },
    {
      "inputs": [],
      "name": "owner",
      "outputs": [
        {
          "internalType": "address",
          "name": "",
          "type": "address"
        }
      ],
      "stateMutability": "view",
      "type": "function"
    },
    {
      "inputs": [],
      "name": "points",
      "outputs": [
        {
          "internalType": "uint256",
          "name": "",
          "type": "uint256"
        }
      ],
      "stateMutability": "view",
      "type": "function"
    },
    {
      "inputs": [
        {
          "internalType": "address",
          "name": "account",
          "type": "address"
        }
      ],
      "name": "removeBurner",
      "outputs": [],
      "stateMutability": "nonpayable",
      "type": "function"
    },
    {
      "inputs": [
        {
          "internalType": "address",
          "name": "account",
          "type": "address"
        }
      ],
      "name": "removeMinter",
      "outputs": [],
      "stateMutability": "nonpayable",
      "type": "function"
    },
    {
      "inputs": [],
      "name": "renounceOwnership",
      "outputs": [],
      "stateMutability": "nonpayable",
      "type": "function"
    },
    {
      "inputs": [
        {
          "internalType": "bytes32",
          "name": "role",
          "type": "bytes32"
        },
        {
          "internalType": "address",
          "name": "callerConfirmation",
          "type": "address"
        }
      ],
      "name": "renounceRole",
      "outputs": [],
      "stateMutability": "nonpayable",
      "type": "function"
    },
    {
      "inputs": [],
      "name": "revokeBurner",
      "outputs": [],
      "stateMutability": "nonpayable",
      "type": "function"
    },
    {
      "inputs": [],
      "name": "revokeMinter",
      "outputs": [],
      "stateMutability": "nonpayable",
      "type": "function"
    },
    {
      "inputs": [
        {
          "internalType": "bytes32",
          "name": "role",
          "type": "bytes32"
        },
        {
          "internalType": "address",
          "name": "account",
          "type": "address"
        }
      ],
      "name": "revokeRole",
      "outputs": [],
      "stateMutability": "nonpayable",
      "type": "function"
    },
    {
      "inputs": [
        {
          "internalType": "bytes4",
          "name": "interfaceId",
          "type": "bytes4"
        }
      ],
      "name": "supportsInterface",
      "outputs": [
        {
          "internalType": "bool",
          "name": "",
          "type": "bool"
        }
      ],
      "stateMutability": "view",
      "type": "function"
    },
    {
      "inputs": [],
      "name": "symbol",
      "outputs": [
        {
          "internalType": "string",
          "name": "",
          "type": "string"
        }
      ],
      "stateMutability": "view",
      "type": "function"
    },
    {
      "inputs": [],
      "name": "totalSupply",
      "outputs": [
        {
          "internalType": "uint256",
          "name": "",
          "type": "uint256"
        }
      ],
      "stateMutability": "view",
      "type": "function"
    },
    {
      "inputs": [
        {
          "internalType": "address",
          "name": "to",
          "type": "address"
        },
        {
          "internalType": "uint256",
          "name": "value",
          "type": "uint256"
        }
      ],
      "name": "transfer",
      "outputs": [
        {
          "internalType": "bool",
          "name": "",
          "type": "bool"
        }
      ],
      "stateMutability": "nonpayable",
      "type": "function"
    },
    {
      "inputs": [
        {
          "internalType": "address",
          "name": "from",
          "type": "address"
        },
        {
          "internalType": "address",
          "name": "to",
          "type": "address"
        },
        {
          "internalType": "uint256",
          "name": "value",
          "type": "uint256"
        }
      ],
      "name": "transferFrom",
      "outputs": [
        {
          "internalType": "bool",
          "name": "",
          "type": "bool"
        }
      ],
      "stateMutability": "nonpayable",
      "type": "function"
    },
    {
      "inputs": [
        {
          "internalType": "address",
          "name": "newOwner",
          "type": "address"
        }
      ],
      "name": "transferOwnership",
      "outputs": [],
      "stateMutability": "nonpayable",
      "type": "function"
    }
  ],
  "bytecode": "0x60806040526001600760146101000a81548160ff0219169083151502179055506001600760156101000a81548160ff0219169083151502179055506101f46008553480156200004d57600080fd5b506040516200373738038062003737833981810160405281019062000073919062000bcc565b338383816003908162000087919062000ea7565b50806004908162000099919062000ea7565b505050600073ffffffffffffffffffffffffffffffffffffffff168173ffffffffffffffffffffffffffffffffffffffff1603620001115760006040517f1e4fbdf700000000000000000000000000000000000000000000000000000000815260040162000108919062000fd3565b60405180910390fd5b62000122816200017660201b60201c565b50620001386000801b336200023c60201b60201c565b506200014b33826200028d60201b60201c565b6200015c336200031a60201b60201c565b6200016d336200037b60201b60201c565b5050506200110d565b6000600760009054906101000a900473ffffffffffffffffffffffffffffffffffffffff16905081600760006101000a81548173ffffffffffffffffffffffffffffffffffffffff021916908373ffffffffffffffffffffffffffffffffffffffff1602179055508173ffffffffffffffffffffffffffffffffffffffff168173ffffffffffffffffffffffffffffffffffffffff167f8be0079c531659141344cd1fd0a4f28419497f9722a3daafe3b4186f6b6457e060405160405180910390a35050565b600080620002518484620003dc60201b60201c565b905080156200028357620002818360066000878152602001908152602001600020620004e060201b90919060201c565b505b8091505092915050565b600073ffffffffffffffffffffffffffffffffffffffff168273ffffffffffffffffffffffffffffffffffffffff1603620003025760006040517fec442f05000000000000000000000000000000000000000000000000000000008152600401620002f9919062000fd3565b60405180910390fd5b62000316600083836200051860201b60201c565b5050565b6200032a6200074860201b60201c565b6200035c7f9f2df0fed2c77648de5860a4cc508cd0818c85b8b8a1ab4ceeef8d981c8956a682620007ea60201b60201c565b6064600860008282546200037191906200101f565b9250508190555050565b6200038b6200074860201b60201c565b620003bd7f3c11d16cbaffd01df69ce1c404f6340ee057498f5f00246190ea54220576a84882620007ea60201b60201c565b606460086000828254620003d291906200101f565b9250508190555050565b6000620003f083836200082460201b60201c565b620004d55760016005600085815260200190815260200160002060000160008473ffffffffffffffffffffffffffffffffffffffff1673ffffffffffffffffffffffffffffffffffffffff16815260200190815260200160002060006101000a81548160ff021916908315150217905550620004716200088f60201b60201c565b73ffffffffffffffffffffffffffffffffffffffff168273ffffffffffffffffffffffffffffffffffffffff16847f2f8788117e7eff1d82e926ec794901d17c78024a50270940304540a733656f0d60405160405180910390a460019050620004da565b600090505b92915050565b600062000510836000018373ffffffffffffffffffffffffffffffffffffffff1660001b6200089760201b60201c565b905092915050565b600073ffffffffffffffffffffffffffffffffffffffff168373ffffffffffffffffffffffffffffffffffffffff16036200056e5780600260008282546200056191906200101f565b9250508190555062000644565b60008060008573ffffffffffffffffffffffffffffffffffffffff1673ffffffffffffffffffffffffffffffffffffffff16815260200190815260200160002054905081811015620005fd578381836040517fe450d38c000000000000000000000000000000000000000000000000000000008152600401620005f4939291906200106b565b60405180910390fd5b8181036000808673ffffffffffffffffffffffffffffffffffffffff1673ffffffffffffffffffffffffffffffffffffffff16815260200190815260200160002081905550505b600073ffffffffffffffffffffffffffffffffffffffff168273ffffffffffffffffffffffffffffffffffffffff16036200068f5780600260008282540392505081905550620006dc565b806000808473ffffffffffffffffffffffffffffffffffffffff1673ffffffffffffffffffffffffffffffffffffffff168152602001908152602001600020600082825401925050819055505b8173ffffffffffffffffffffffffffffffffffffffff168373ffffffffffffffffffffffffffffffffffffffff167fddf252ad1be2c89b69c2b068fc378daa952ba7f163c4a11628f55a4df523b3ef836040516200073b9190620010a8565b60405180910390a3505050565b620007586200088f60201b60201c565b73ffffffffffffffffffffffffffffffffffffffff166200077e6200091160201b60201c565b73ffffffffffffffffffffffffffffffffffffffff1614620007e857620007aa6200088f60201b60201c565b6040517f118cdaa7000000000000000000000000000000000000000000000000000000008152600401620007df919062000fd3565b60405180910390fd5b565b620007fb826200093b60201b60201c565b6200080c816200095b60201b60201c565b6200081e83836200023c60201b60201c565b50505050565b60006005600084815260200190815260200160002060000160008373ffffffffffffffffffffffffffffffffffffffff1673ffffffffffffffffffffffffffffffffffffffff16815260200190815260200160002060009054906101000a900460ff16905092915050565b600033905090565b6000620008ab83836200097f60201b60201c565b620009065782600001829080600181540180825580915050600190039060005260206000200160009091909190915055826000018054905083600101600084815260200190815260200160002081905550600190506200090b565b600090505b92915050565b6000600760009054906101000a900473ffffffffffffffffffffffffffffffffffffffff16905090565b600060056000838152602001908152602001600020600101549050919050565b6200097c81620009706200088f60201b60201c565b620009a260201b60201c565b50565b600080836001016000848152602001908152602001600020541415905092915050565b620009b482826200082460201b60201c565b620009fa5780826040517fe2517d3f000000000000000000000000000000000000000000000000000000008152600401620009f1929190620010e0565b60405180910390fd5b5050565b6000604051905090565b600080fd5b600080fd5b600080fd5b600080fd5b6000601f19601f8301169050919050565b7f4e487b7100000000000000000000000000000000000000000000000000000000600052604160045260246000fd5b62000a678262000a1c565b810181811067ffffffffffffffff8211171562000a895762000a8862000a2d565b5b80604052505050565b600062000a9e620009fe565b905062000aac828262000a5c565b919050565b600067ffffffffffffffff82111562000acf5762000ace62000a2d565b5b62000ada8262000a1c565b9050602081019050919050565b60005b8381101562000b0757808201518184015260208101905062000aea565b60008484015250505050565b600062000b2a62000b248462000ab1565b62000a92565b90508281526020810184848401111562000b495762000b4862000a17565b5b62000b5684828562000ae7565b509392505050565b600082601f83011262000b765762000b7562000a12565b5b815162000b8884826020860162000b13565b91505092915050565b6000819050919050565b62000ba68162000b91565b811462000bb257600080fd5b50565b60008151905062000bc68162000b9b565b92915050565b60008060006060848603121562000be85762000be762000a08565b5b600084015167ffffffffffffffff81111562000c095762000c0862000a0d565b5b62000c178682870162000b5e565b935050602084015167ffffffffffffffff81111562000c3b5762000c3a62000a0d565b5b62000c498682870162000b5e565b925050604062000c5c8682870162000bb5565b9150509250925092565b600081519050919050565b7f4e487b7100000000000000000000000000000000000000000000000000000000600052602260045260246000fd5b6000600282049050600182168062000cb957607f821691505b60208210810362000ccf5762000cce62000c71565b5b50919050565b60008190508160005260206000209050919050565b60006020601f8301049050919050565b600082821b905092915050565b60006008830262000d397fffffffffffffffffffffffffffffffffffffffffffffffffffffffffffffffff8262000cfa565b62000d45868362000cfa565b95508019841693508086168417925050509392505050565b6000819050919050565b600062000d8862000d8262000d7c8462000b91565b62000d5d565b62000b91565b9050919050565b6000819050919050565b62000da48362000d67565b62000dbc62000db38262000d8f565b84845462000d07565b825550505050565b600090565b62000dd362000dc4565b62000de081848462000d99565b505050565b5b8181101562000e085762000dfc60008262000dc9565b60018101905062000de6565b5050565b601f82111562000e575762000e218162000cd5565b62000e2c8462000cea565b8101602085101562000e3c578190505b62000e5462000e4b8562000cea565b83018262000de5565b50505b505050565b600082821c905092915050565b600062000e7c6000198460080262000e5c565b1980831691505092915050565b600062000e97838362000e69565b9150826002028217905092915050565b62000eb28262000c66565b67ffffffffffffffff81111562000ece5762000ecd62000a2d565b5b62000eda825462000ca0565b62000ee782828562000e0c565b600060209050601f83116001811462000f1f576000841562000f0a578287015190505b62000f16858262000e89565b86555062000f86565b601f19841662000f2f8662000cd5565b60005b8281101562000f595784890151825560018201915060208501945060208101905062000f32565b8683101562000f79578489015162000f75601f89168262000e69565b8355505b6001600288020188555050505b505050505050565b600073ffffffffffffffffffffffffffffffffffffffff82169050919050565b600062000fbb8262000f8e565b9050919050565b62000fcd8162000fae565b82525050565b600060208201905062000fea600083018462000fc2565b92915050565b7f4e487b7100000000000000000000000000000000000000000000000000000000600052601160045260246000fd5b60006200102c8262000b91565b9150620010398362000b91565b925082820190508082111562001054576200105362000ff0565b5b92915050565b620010658162000b91565b82525050565b600060608201905062001082600083018662000fc2565b6200109160208301856200105a565b620010a060408301846200105a565b949350505050565b6000602082019050620010bf60008301846200105a565b92915050565b6000819050919050565b620010da81620010c5565b82525050565b6000604082019050620010f7600083018562000fc2565b620011066020830184620010cf565b9392505050565b61261a806200111d6000396000f3fe608060405234801561001057600080fd5b50600436106102065760003560e01c8063715018a61161011a578063a217fddf116100ad578063d547741f1161007c578063d547741f146105dd578063dd62ed3e146105f9578063f1f2e51c14610629578063f2fde38b14610633578063f44637ba1461064f57610206565b8063a217fddf14610541578063a9059cbb1461055f578063ca15c8731461058f578063d5391393146105bf57610206565b806391d14854116100e957806391d14854146104bb57806395d89b41146104eb578063983b2d56146105095780639dc29fac1461052557610206565b8063715018a614610445578063883356d91461044f5780638da5cb5b1461046d5780639010d07c1461048b57610206565b8063282c51f31161019d57806336568abe1161016c57806336568abe146103b557806340c10f19146103d157806346b45af7146103ed578063585212fb1461040b57806370a082311461041557610206565b8063282c51f3146103415780632f2ff15d1461035f5780633092afd51461037b578063313ce5671461039757610206565b806318160ddd116101d957806318160ddd146102a55780631be6dd64146102c357806323b872dd146102e1578063248a9ca31461031157610206565b806301ffc9a71461020b578063028468581461023b57806306fdde0314610257578063095ea7b314610275575b600080fd5b61022560048036038101906102209190611f16565b61066b565b6040516102329190611f5e565b60405180910390f35b61025560048036038101906102509190611fd7565b6106e5565b005b61025f610734565b60405161026c9190612094565b60405180910390f35b61028f600480360381019061028a91906120ec565b6107c6565b60405161029c9190611f5e565b60405180910390f35b6102ad6107e9565b6040516102ba919061213b565b60405180910390f35b6102cb6107f3565b6040516102d8919061213b565b60405180910390f35b6102fb60048036038101906102f69190612156565b6107f9565b6040516103089190611f5e565b60405180910390f35b61032b600480360381019061032691906121df565b610828565b604051610338919061221b565b60405180910390f35b610349610848565b604051610356919061221b565b60405180910390f35b61037960048036038101906103749190612236565b61086c565b005b61039560048036038101906103909190611fd7565b61088e565b005b61039f6108dd565b6040516103ac9190612292565b60405180910390f35b6103cf60048036038101906103ca9190612236565b6108e6565b005b6103eb60048036038101906103e691906120ec565b610961565b005b6103f5610a03565b6040516104029190611f5e565b60405180910390f35b610413610a16565b005b61042f600480360381019061042a9190611fd7565b610ad9565b60405161043c919061213b565b60405180910390f35b61044d610b21565b005b610457610b35565b6040516104649190611f5e565b60405180910390f35b610475610b48565b60405161048291906122bc565b60405180910390f35b6104a560048036038101906104a091906122d7565b610b72565b6040516104b291906122bc565b60405180910390f35b6104d560048036038101906104d09190612236565b610ba1565b6040516104e29190611f5e565b60405180910390f35b6104f3610c0c565b6040516105009190612094565b60405180910390f35b610523600480360381019061051e9190611fd7565b610c9e565b005b61053f600480360381019061053a91906120ec565b610ced565b005b610549610d8f565b604051610556919061221b565b60405180910390f35b610579600480360381019061057491906120ec565b610d96565b6040516105869190611f5e565b60405180910390f35b6105a960048036038101906105a491906121df565b610db9565b6040516105b6919061213b565b60405180910390f35b6105c7610ddd565b6040516105d4919061221b565b60405180910390f35b6105f760048036038101906105f29190612236565b610e01565b005b610613600480360381019061060e9190612317565b610e23565b604051610620919061213b565b60405180910390f35b610631610eaa565b005b61064d60048036038101906106489190611fd7565b610f6d565b005b61066960048036038101906106649190611fd7565b610ff3565b005b60007f5a05180f000000000000000000000000000000000000000000000000000000007bffffffffffffffffffffffffffffffffffffffffffffffffffffffff1916827bffffffffffffffffffffffffffffffffffffffffffffffffffffffff191614806106de57506106dd82611042565b5b9050919050565b6106ed6110bc565b6107177f3c11d16cbaffd01df69ce1c404f6340ee057498f5f00246190ea54220576a84882610e01565b60646008600082825461072a9190612386565b9250508190555050565b606060038054610743906123e9565b80601f016020809104026020016040519081016040528092919081815260200182805461076f906123e9565b80156107bc5780601f10610791576101008083540402835291602001916107bc565b820191906000526020600020905b81548152906001019060200180831161079f57829003601f168201915b5050505050905090565b6000806107d1611143565b90506107de81858561114b565b600191505092915050565b6000600254905090565b60085481565b600080610804611143565b905061081185828561115d565b61081c8585856111f1565b60019150509392505050565b600060056000838152602001908152602001600020600101549050919050565b7f3c11d16cbaffd01df69ce1c404f6340ee057498f5f00246190ea54220576a84881565b61087582610828565b61087e816112e5565b61088883836112f9565b50505050565b6108966110bc565b6108c07f9f2df0fed2c77648de5860a4cc508cd0818c85b8b8a1ab4ceeef8d981c8956a682610e01565b6064600860008282546108d39190612386565b9250508190555050565b60006012905090565b6108ee611143565b73ffffffffffffffffffffffffffffffffffffffff168173ffffffffffffffffffffffffffffffffffffffff1614610952576040517f6697b23200000000000000000000000000000000000000000000000000000000815260040160405180910390fd5b61095c828261133f565b505050565b7f9f2df0fed2c77648de5860a4cc508cd0818c85b8b8a1ab4ceeef8d981c8956a661098b816112e5565b600760149054906101000a900460ff166109da576040517f08c379a00000000000000000000000000000000000000000000000000000000081526004016109d190612466565b60405180910390fd5b6109e48383611385565b6014600860008282546109f79190612386565b92505081905550505050565b600760149054906101000a900460ff1681565b610a1e6110bc565b7f9f2df0fed2c77648de5860a4cc508cd0818c85b8b8a1ab4ceeef8d981c8956a6600760149054906101000a900460ff166000610a5a83610db9565b905060005b81811015610a8e576000610a74856000610b72565b9050610a808582610e01565b508080600101915050610a5f565b50610a9c6000801b3061133f565b50610aa7833061133f565b50610ab5836000801b611407565b6000915061012c60086000828254610acd9190612386565b92505081905550505050565b60008060008373ffffffffffffffffffffffffffffffffffffffff1673ffffffffffffffffffffffffffffffffffffffff168152602001908152602001600020549050919050565b610b296110bc565b610b336000611463565b565b600760159054906101000a900460ff1681565b6000600760009054906101000a900473ffffffffffffffffffffffffffffffffffffffff16905090565b6000610b99826006600086815260200190815260200160002061152990919063ffffffff16565b905092915050565b60006005600084815260200190815260200160002060000160008373ffffffffffffffffffffffffffffffffffffffff1673ffffffffffffffffffffffffffffffffffffffff16815260200190815260200160002060009054906101000a900460ff16905092915050565b606060048054610c1b906123e9565b80601f0160208091040260200160405190810160405280929190818152602001828054610c47906123e9565b8015610c945780601f10610c6957610100808354040283529160200191610c94565b820191906000526020600020905b815481529060010190602001808311610c7757829003601f168201915b5050505050905090565b610ca66110bc565b610cd07f9f2df0fed2c77648de5860a4cc508cd0818c85b8b8a1ab4ceeef8d981c8956a68261086c565b606460086000828254610ce39190612386565b9250508190555050565b7f3c11d16cbaffd01df69ce1c404f6340ee057498f5f00246190ea54220576a848610d17816112e5565b600760159054906101000a900460ff16610d66576040517f08c379a0000000000000000000000000000000000000000000000000000000008152600401610d5d906124d2565b60405180910390fd5b610d708383611543565b602860086000828254610d839190612386565b92505081905550505050565b6000801b81565b600080610da1611143565b9050610dae8185856111f1565b600191505092915050565b6000610dd6600660008481526020019081526020016000206115c5565b9050919050565b7f9f2df0fed2c77648de5860a4cc508cd0818c85b8b8a1ab4ceeef8d981c8956a681565b610e0a82610828565b610e13816112e5565b610e1d838361133f565b50505050565b6000600160008473ffffffffffffffffffffffffffffffffffffffff1673ffffffffffffffffffffffffffffffffffffffff16815260200190815260200160002060008373ffffffffffffffffffffffffffffffffffffffff1673ffffffffffffffffffffffffffffffffffffffff16815260200190815260200160002054905092915050565b610eb26110bc565b7f3c11d16cbaffd01df69ce1c404f6340ee057498f5f00246190ea54220576a848600760159054906101000a900460ff166000610eee83610db9565b905060005b81811015610f22576000610f08856000610b72565b9050610f148582610e01565b508080600101915050610ef3565b50610f306000801b3061133f565b50610f3b833061133f565b50610f49836000801b611407565b6000915061012c60086000828254610f619190612386565b92505081905550505050565b610f756110bc565b600073ffffffffffffffffffffffffffffffffffffffff168173ffffffffffffffffffffffffffffffffffffffff1603610fe75760006040517f1e4fbdf7000000000000000000000000000000000000000000000000000000008152600401610fde91906122bc565b60405180910390fd5b610ff081611463565b50565b610ffb6110bc565b6110257f3c11d16cbaffd01df69ce1c404f6340ee057498f5f00246190ea54220576a8488261086c565b6064600860008282546110389190612386565b9250508190555050565b60007f7965db0b000000000000000000000000000000000000000000000000000000007bffffffffffffffffffffffffffffffffffffffffffffffffffffffff1916827bffffffffffffffffffffffffffffffffffffffffffffffffffffffff191614806110b557506110b4826115da565b5b9050919050565b6110c4611143565b73ffffffffffffffffffffffffffffffffffffffff166110e2610b48565b73ffffffffffffffffffffffffffffffffffffffff161461114157611105611143565b6040517f118cdaa700000000000000000000000000000000000000000000000000000000815260040161113891906122bc565b60405180910390fd5b565b600033905090565b6111588383836001611644565b505050565b60006111698484610e23565b90507fffffffffffffffffffffffffffffffffffffffffffffffffffffffffffffffff81146111eb57818110156111db578281836040517ffb8f41b20000000000000000000000000000000000000000000000000000000081526004016111d2939291906124f2565b60405180910390fd5b6111ea84848484036000611644565b5b50505050565b600073ffffffffffffffffffffffffffffffffffffffff168373ffffffffffffffffffffffffffffffffffffffff16036112635760006040517f96c6fd1e00000000000000000000000000000000000000000000000000000000815260040161125a91906122bc565b60405180910390fd5b600073ffffffffffffffffffffffffffffffffffffffff168273ffffffffffffffffffffffffffffffffffffffff16036112d55760006040517fec442f050000000000000000000000000000000000000000000000000000000081526004016112cc91906122bc565b60405180910390fd5b6112e083838361181b565b505050565b6112f6816112f1611143565b611a40565b50565b6000806113068484611a91565b90508015611335576113338360066000878152602001908152602001600020611b8390919063ffffffff16565b505b8091505092915050565b60008061134c8484611bb3565b9050801561137b576113798360066000878152602001908152602001600020611ca690919063ffffffff16565b505b8091505092915050565b600073ffffffffffffffffffffffffffffffffffffffff168273ffffffffffffffffffffffffffffffffffffffff16036113f75760006040517fec442f050000000000000000000000000000000000000000000000000000000081526004016113ee91906122bc565b60405180910390fd5b6114036000838361181b565b5050565b600061141283610828565b90508160056000858152602001908152602001600020600101819055508181847fbd79b86ffe0ab8e8776151514217cd7cacd52c909f66475c3af44e129f0b00ff60405160405180910390a4505050565b6000600760009054906101000a900473ffffffffffffffffffffffffffffffffffffffff16905081600760006101000a81548173ffffffffffffffffffffffffffffffffffffffff021916908373ffffffffffffffffffffffffffffffffffffffff1602179055508173ffffffffffffffffffffffffffffffffffffffff168173ffffffffffffffffffffffffffffffffffffffff167f8be0079c531659141344cd1fd0a4f28419497f9722a3daafe3b4186f6b6457e060405160405180910390a35050565b60006115388360000183611cd6565b60001c905092915050565b600073ffffffffffffffffffffffffffffffffffffffff168273ffffffffffffffffffffffffffffffffffffffff16036115b55760006040517f96c6fd1e0000000000000000000000000000000000000000000000000000000081526004016115ac91906122bc565b60405180910390fd5b6115c18260008361181b565b5050565b60006115d382600001611d01565b9050919050565b60007f01ffc9a7000000000000000000000000000000000000000000000000000000007bffffffffffffffffffffffffffffffffffffffffffffffffffffffff1916827bffffffffffffffffffffffffffffffffffffffffffffffffffffffff1916149050919050565b600073ffffffffffffffffffffffffffffffffffffffff168473ffffffffffffffffffffffffffffffffffffffff16036116b65760006040517fe602df050000000000000000000000000000000000000000000000000000000081526004016116ad91906122bc565b60405180910390fd5b600073ffffffffffffffffffffffffffffffffffffffff168373ffffffffffffffffffffffffffffffffffffffff16036117285760006040517f94280d6200000000000000000000000000000000000000000000000000000000815260040161171f91906122bc565b60405180910390fd5b81600160008673ffffffffffffffffffffffffffffffffffffffff1673ffffffffffffffffffffffffffffffffffffffff16815260200190815260200160002060008573ffffffffffffffffffffffffffffffffffffffff1673ffffffffffffffffffffffffffffffffffffffff168152602001908152602001600020819055508015611815578273ffffffffffffffffffffffffffffffffffffffff168473ffffffffffffffffffffffffffffffffffffffff167f8c5be1e5ebec7d5bd14f71427d1e84f3dd0314c0f7b2291e5b200ac8c7c3b9258460405161180c919061213b565b60405180910390a35b50505050565b600073ffffffffffffffffffffffffffffffffffffffff168373ffffffffffffffffffffffffffffffffffffffff160361186d5780600260008282546118619190612386565b92505081905550611940565b60008060008573ffffffffffffffffffffffffffffffffffffffff1673ffffffffffffffffffffffffffffffffffffffff168152602001908152602001600020549050818110156118f9578381836040517fe450d38c0000000000000000000000000000000000000000000000000000000081526004016118f0939291906124f2565b60405180910390fd5b8181036000808673ffffffffffffffffffffffffffffffffffffffff1673ffffffffffffffffffffffffffffffffffffffff16815260200190815260200160002081905550505b600073ffffffffffffffffffffffffffffffffffffffff168273ffffffffffffffffffffffffffffffffffffffff160361198957806002600082825403925050819055506119d6565b806000808473ffffffffffffffffffffffffffffffffffffffff1673ffffffffffffffffffffffffffffffffffffffff168152602001908152602001600020600082825401925050819055505b8173ffffffffffffffffffffffffffffffffffffffff168373ffffffffffffffffffffffffffffffffffffffff167fddf252ad1be2c89b69c2b068fc378daa952ba7f163c4a11628f55a4df523b3ef83604051611a33919061213b565b60405180910390a3505050565b611a4a8282610ba1565b611a8d5780826040517fe2517d3f000000000000000000000000000000000000000000000000000000008152600401611a84929190612529565b60405180910390fd5b5050565b6000611a9d8383610ba1565b611b785760016005600085815260200190815260200160002060000160008473ffffffffffffffffffffffffffffffffffffffff1673ffffffffffffffffffffffffffffffffffffffff16815260200190815260200160002060006101000a81548160ff021916908315150217905550611b15611143565b73ffffffffffffffffffffffffffffffffffffffff168273ffffffffffffffffffffffffffffffffffffffff16847f2f8788117e7eff1d82e926ec794901d17c78024a50270940304540a733656f0d60405160405180910390a460019050611b7d565b600090505b92915050565b6000611bab836000018373ffffffffffffffffffffffffffffffffffffffff1660001b611d12565b905092915050565b6000611bbf8383610ba1565b15611c9b5760006005600085815260200190815260200160002060000160008473ffffffffffffffffffffffffffffffffffffffff1673ffffffffffffffffffffffffffffffffffffffff16815260200190815260200160002060006101000a81548160ff021916908315150217905550611c38611143565b73ffffffffffffffffffffffffffffffffffffffff168273ffffffffffffffffffffffffffffffffffffffff16847ff6391f5c32d9c69d2a47ea670b442974b53935d1edc7fd64eb21e047a839171b60405160405180910390a460019050611ca0565b600090505b92915050565b6000611cce836000018373ffffffffffffffffffffffffffffffffffffffff1660001b611d82565b905092915050565b6000826000018281548110611cee57611ced612552565b5b9060005260206000200154905092915050565b600081600001805490509050919050565b6000611d1e8383611e96565b611d77578260000182908060018154018082558091505060019003906000526020600020016000909190919091505582600001805490508360010160008481526020019081526020016000208190555060019050611d7c565b600090505b92915050565b60008083600101600084815260200190815260200160002054905060008114611e8a576000600182611db49190612581565b9050600060018660000180549050611dcc9190612581565b9050808214611e3b576000866000018281548110611ded57611dec612552565b5b9060005260206000200154905080876000018481548110611e1157611e10612552565b5b90600052602060002001819055508387600101600083815260200190815260200160002081905550505b85600001805480611e4f57611e4e6125b5565b5b600190038181906000526020600020016000905590558560010160008681526020019081526020016000206000905560019350505050611e90565b60009150505b92915050565b600080836001016000848152602001908152602001600020541415905092915050565b600080fd5b60007fffffffff0000000000000000000000000000000000000000000000000000000082169050919050565b611ef381611ebe565b8114611efe57600080fd5b50565b600081359050611f1081611eea565b92915050565b600060208284031215611f2c57611f2b611eb9565b5b6000611f3a84828501611f01565b91505092915050565b60008115159050919050565b611f5881611f43565b82525050565b6000602082019050611f736000830184611f4f565b92915050565b600073ffffffffffffffffffffffffffffffffffffffff82169050919050565b6000611fa482611f79565b9050919050565b611fb481611f99565b8114611fbf57600080fd5b50565b600081359050611fd181611fab565b92915050565b600060208284031215611fed57611fec611eb9565b5b6000611ffb84828501611fc2565b91505092915050565b600081519050919050565b600082825260208201905092915050565b60005b8381101561203e578082015181840152602081019050612023565b60008484015250505050565b6000601f19601f8301169050919050565b600061206682612004565b612070818561200f565b9350612080818560208601612020565b6120898161204a565b840191505092915050565b600060208201905081810360008301526120ae818461205b565b905092915050565b6000819050919050565b6120c9816120b6565b81146120d457600080fd5b50565b6000813590506120e6816120c0565b92915050565b6000806040838503121561210357612102611eb9565b5b600061211185828601611fc2565b9250506020612122858286016120d7565b9150509250929050565b612135816120b6565b82525050565b6000602082019050612150600083018461212c565b92915050565b60008060006060848603121561216f5761216e611eb9565b5b600061217d86828701611fc2565b935050602061218e86828701611fc2565b925050604061219f868287016120d7565b9150509250925092565b6000819050919050565b6121bc816121a9565b81146121c757600080fd5b50565b6000813590506121d9816121b3565b92915050565b6000602082840312156121f5576121f4611eb9565b5b6000612203848285016121ca565b91505092915050565b612215816121a9565b82525050565b6000602082019050612230600083018461220c565b92915050565b6000806040838503121561224d5761224c611eb9565b5b600061225b858286016121ca565b925050602061226c85828601611fc2565b9150509250929050565b600060ff82169050919050565b61228c81612276565b82525050565b60006020820190506122a76000830184612283565b92915050565b6122b681611f99565b82525050565b60006020820190506122d160008301846122ad565b92915050565b600080604083850312156122ee576122ed611eb9565b5b60006122fc858286016121ca565b925050602061230d858286016120d7565b9150509250929050565b6000806040838503121561232e5761232d611eb9565b5b600061233c85828601611fc2565b925050602061234d85828601611fc2565b9150509250929050565b7f4e487b7100000000000000000000000000000000000000000000000000000000600052601160045260246000fd5b6000612391826120b6565b915061239c836120b6565b92508282019050808211156123b4576123b3612357565b5b92915050565b7f4e487b7100000000000000000000000000000000000000000000000000000000600052602260045260246000fd5b6000600282049050600182168061240157607f821691505b602082108103612414576124136123ba565b5b50919050565b7f4d696e74696e672069732064697361626c656400000000000000000000000000600082015250565b600061245060138361200f565b915061245b8261241a565b602082019050919050565b6000602082019050818103600083015261247f81612443565b9050919050565b7f4275726e696e672069732064697361626c656400000000000000000000000000600082015250565b60006124bc60138361200f565b91506124c782612486565b602082019050919050565b600060208201905081810360008301526124eb816124af565b9050919050565b600060608201905061250760008301866122ad565b612514602083018561212c565b612521604083018461212c565b949350505050565b600060408201905061253e60008301856122ad565b61254b602083018461220c565b9392505050565b7f4e487b7100000000000000000000000000000000000000000000000000000000600052603260045260246000fd5b600061258c826120b6565b9150612597836120b6565b92508282039050818111156125af576125ae612357565b5b92915050565b7f4e487b7100000000000000000000000000000000000000000000000000000000600052603160045260246000fdfea264697066735822122067f266775cbf286ef43f621e3a75ee6d1ff371f28f22e7f39084682a7d75cdee64736f6c63430008180033",
  "linkReferences": {},
  "deployedLinkReferences": {}
}