{"contracts/permissions/proPlan.sol":{"MintyWay_MintPro":{"abi":[{"inputs":[{"internalType":"string","name":"name","type":"string"},{"internalType":"string","name":"symbol","type":"string"},{"internalType":"uint256","name":"amout","type":"uint256"}],"stateMutability":"nonpayable","type":"constructor"},{"inputs":[],"name":"AccessControlBadConfirmation","type":"error"},{"inputs":[{"internalType":"address","name":"account","type":"address"},{"internalType":"bytes32","name":"neededRole","type":"bytes32"}],"name":"AccessControlUnauthorizedAccount","type":"error"},{"inputs":[{"internalType":"address","name":"spender","type":"address"},{"internalType":"uint256","name":"allowance","type":"uint256"},{"internalType":"uint256","name":"needed","type":"uint256"}],"name":"ERC20InsufficientAllowance","type":"error"},{"inputs":[{"internalType":"address","name":"sender","type":"address"},{"internalType":"uint256","name":"balance","type":"uint256"},{"internalType":"uint256","name":"needed","type":"uint256"}],"name":"ERC20InsufficientBalance","type":"error"},{"inputs":[{"internalType":"address","name":"approver","type":"address"}],"name":"ERC20InvalidApprover","type":"error"},{"inputs":[{"internalType":"address","name":"receiver","type":"address"}],"name":"ERC20InvalidReceiver","type":"error"},{"inputs":[{"internalType":"address","name":"sender","type":"address"}],"name":"ERC20InvalidSender","type":"error"},{"inputs":[{"internalType":"address","name":"spender","type":"address"}],"name":"ERC20InvalidSpender","type":"error"},{"inputs":[{"internalType":"address","name":"owner","type":"address"}],"name":"OwnableInvalidOwner","type":"error"},{"inputs":[{"internalType":"address","name":"account","type":"address"}],"name":"OwnableUnauthorizedAccount","type":"error"},{"anonymous":false,"inputs":[{"indexed":true,"internalType":"address","name":"owner","type":"address"},{"indexed":true,"internalType":"address","name":"spender","type":"address"},{"indexed":false,"internalType":"uint256","name":"value","type":"uint256"}],"name":"Approval","type":"event"},{"anonymous":false,"inputs":[{"indexed":true,"internalType":"address","name":"previousOwner","type":"address"},{"indexed":true,"internalType":"address","name":"newOwner","type":"address"}],"name":"OwnershipTransferred","type":"event"},{"anonymous":false,"inputs":[{"indexed":true,"internalType":"bytes32","name":"role","type":"bytes32"},{"indexed":true,"internalType":"bytes32","name":"previousAdminRole","type":"bytes32"},{"indexed":true,"internalType":"bytes32","name":"newAdminRole","type":"bytes32"}],"name":"RoleAdminChanged","type":"event"},{"anonymous":false,"inputs":[{"indexed":true,"internalType":"bytes32","name":"role","type":"bytes32"},{"indexed":true,"internalType":"address","name":"account","type":"address"},{"indexed":true,"internalType":"address","name":"sender","type":"address"}],"name":"RoleGranted","type":"event"},{"anonymous":false,"inputs":[{"indexed":true,"internalType":"bytes32","name":"role","type":"bytes32"},{"indexed":true,"internalType":"address","name":"account","type":"address"},{"indexed":true,"internalType":"address","name":"sender","type":"address"}],"name":"RoleRevoked","type":"event"},{"anonymous":false,"inputs":[{"indexed":true,"internalType":"address","name":"from","type":"address"},{"indexed":true,"internalType":"address","name":"to","type":"address"},{"indexed":false,"internalType":"uint256","name":"value","type":"uint256"}],"name":"Transfer","type":"event"},{"inputs":[],"name":"BLACKLIST_MANAGER_ROLE","outputs":[{"internalType":"bytes32","name":"","type":"bytes32"}],"stateMutability":"view","type":"function"},{"inputs":[],"name":"BURNER_ROLE","outputs":[{"internalType":"bytes32","name":"","type":"bytes32"}],"stateMutability":"view","type":"function"},{"inputs":[],"name":"DEFAULT_ADMIN_ROLE","outputs":[{"internalType":"bytes32","name":"","type":"bytes32"}],"stateMutability":"view","type":"function"},{"inputs":[],"name":"FREEZER_ROLE","outputs":[{"internalType":"bytes32","name":"","type":"bytes32"}],"stateMutability":"view","type":"function"},{"inputs":[],"name":"MINTER_ROLE","outputs":[{"internalType":"bytes32","name":"","type":"bytes32"}],"stateMutability":"view","type":"function"},{"inputs":[],"name":"RECOVER_ROLE","outputs":[{"internalType":"bytes32","name":"","type":"bytes32"}],"stateMutability":"view","type":"function"},{"inputs":[{"internalType":"address","name":"account","type":"address"}],"name":"addBlacklistManager","outputs":[],"stateMutability":"nonpayable","type":"function"},{"inputs":[{"internalType":"address","name":"account","type":"address"}],"name":"addBurner","outputs":[],"stateMutability":"nonpayable","type":"function"},{"inputs":[{"internalType":"address","name":"account","type":"address"}],"name":"addFreezer","outputs":[],"stateMutability":"nonpayable","type":"function"},{"inputs":[{"internalType":"address","name":"account","type":"address"}],"name":"addMinter","outputs":[],"stateMutability":"nonpayable","type":"function"},{"inputs":[{"internalType":"address","name":"account","type":"address"}],"name":"addRecoverer","outputs":[],"stateMutability":"nonpayable","type":"function"},{"inputs":[{"internalType":"address","name":"account","type":"address"}],"name":"addToBlacklist","outputs":[],"stateMutability":"nonpayable","type":"function"},{"inputs":[{"internalType":"address","name":"owner","type":"address"},{"internalType":"address","name":"spender","type":"address"}],"name":"allowance","outputs":[{"internalType":"uint256","name":"","type":"uint256"}],"stateMutability":"view","type":"function"},{"inputs":[{"internalType":"address","name":"spender","type":"address"},{"internalType":"uint256","name":"value","type":"uint256"}],"name":"approve","outputs":[{"internalType":"bool","name":"","type":"bool"}],"stateMutability":"nonpayable","type":"function"},{"inputs":[{"internalType":"address","name":"account","type":"address"}],"name":"balanceOf","outputs":[{"internalType":"uint256","name":"","type":"uint256"}],"stateMutability":"view","type":"function"},{"inputs":[{"internalType":"address","name":"from","type":"address"},{"internalType":"uint256","name":"amount","type":"uint256"}],"name":"burn","outputs":[],"stateMutability":"nonpayable","type":"function"},{"inputs":[{"internalType":"address","name":"account","type":"address"}],"name":"checkBlacklisted","outputs":[{"internalType":"bool","name":"","type":"bool"}],"stateMutability":"view","type":"function"},{"inputs":[{"internalType":"address","name":"account","type":"address"}],"name":"checkFrozen","outputs":[{"internalType":"bool","name":"","type":"bool"}],"stateMutability":"view","type":"function"},{"inputs":[],"name":"decimals","outputs":[{"internalType":"uint8","name":"","type":"uint8"}],"stateMutability":"view","type":"function"},{"inputs":[{"internalType":"address","name":"account","type":"address"}],"name":"freezeAccount","outputs":[],"stateMutability":"nonpayable","type":"function"},{"inputs":[{"internalType":"bytes32","name":"role","type":"bytes32"}],"name":"getRoleAdmin","outputs":[{"internalType":"bytes32","name":"","type":"bytes32"}],"stateMutability":"view","type":"function"},{"inputs":[{"internalType":"bytes32","name":"role","type":"bytes32"},{"internalType":"uint256","name":"index","type":"uint256"}],"name":"getRoleMember","outputs":[{"internalType":"address","name":"","type":"address"}],"stateMutability":"view","type":"function"},{"inputs":[{"internalType":"bytes32","name":"role","type":"bytes32"}],"name":"getRoleMemberCount","outputs":[{"internalType":"uint256","name":"","type":"uint256"}],"stateMutability":"view","type":"function"},{"inputs":[{"internalType":"bytes32","name":"role","type":"bytes32"},{"internalType":"address","name":"account","type":"address"}],"name":"grantRole","outputs":[],"stateMutability":"nonpayable","type":"function"},{"inputs":[{"internalType":"bytes32","name":"role","type":"bytes32"},{"internalType":"address","name":"account","type":"address"}],"name":"hasRole","outputs":[{"internalType":"bool","name":"","type":"bool"}],"stateMutability":"view","type":"function"},{"inputs":[],"name":"isBlacklistable","outputs":[{"internalType":"bool","name":"","type":"bool"}],"stateMutability":"view","type":"function"},{"inputs":[],"name":"isBurnable","outputs":[{"internalType":"bool","name":"","type":"bool"}],"stateMutability":"view","type":"function"},{"inputs":[],"name":"isFreezable","outputs":[{"internalType":"bool","name":"","type":"bool"}],"stateMutability":"view","type":"function"},{"inputs":[],"name":"isMintable","outputs":[{"internalType":"bool","name":"","type":"bool"}],"stateMutability":"view","type":"function"},{"inputs":[],"name":"isRecoverable","outputs":[{"internalType":"bool","name":"","type":"bool"}],"stateMutability":"view","type":"function"},{"inputs":[{"internalType":"address","name":"to","type":"address"},{"internalType":"uint256","name":"amount","type":"uint256"}],"name":"mint","outputs":[],"stateMutability":"nonpayable","type":"function"},{"inputs":[],"name":"name","outputs":[{"internalType":"string","name":"","type":"string"}],"stateMutability":"view","type":"function"},{"inputs":[],"name":"owner","outputs":[{"internalType":"address","name":"","type":"address"}],"stateMutability":"view","type":"function"},{"inputs":[],"name":"points","outputs":[{"internalType":"uint256","name":"","type":"uint256"}],"stateMutability":"view","type":"function"},{"inputs":[{"internalType":"address","name":"from","type":"address"},{"internalType":"address","name":"to","type":"address"},{"internalType":"uint256","name":"amount","type":"uint256"}],"name":"recover","outputs":[],"stateMutability":"nonpayable","type":"function"},{"inputs":[{"internalType":"address","name":"account","type":"address"}],"name":"removeBlacklistManager","outputs":[],"stateMutability":"nonpayable","type":"function"},{"inputs":[{"internalType":"address","name":"account","type":"address"}],"name":"removeBurner","outputs":[],"stateMutability":"nonpayable","type":"function"},{"inputs":[{"internalType":"address","name":"account","type":"address"}],"name":"removeFreezer","outputs":[],"stateMutability":"nonpayable","type":"function"},{"inputs":[{"internalType":"address","name":"account","type":"address"}],"name":"removeFromBlacklist","outputs":[],"stateMutability":"nonpayable","type":"function"},{"inputs":[{"internalType":"address","name":"account","type":"address"}],"name":"removeMinter","outputs":[],"stateMutability":"nonpayable","type":"function"},{"inputs":[{"internalType":"address","name":"account","type":"address"}],"name":"removeRecoverer","outputs":[],"stateMutability":"nonpayable","type":"function"},{"inputs":[],"name":"renounceOwnership","outputs":[],"stateMutability":"nonpayable","type":"function"},{"inputs":[{"internalType":"bytes32","name":"role","type":"bytes32"},{"internalType":"address","name":"callerConfirmation","type":"address"}],"name":"renounceRole","outputs":[],"stateMutability":"nonpayable","type":"function"},{"inputs":[],"name":"revokeBlacklistManager","outputs":[],"stateMutability":"nonpayable","type":"function"},{"inputs":[],"name":"revokeBurner","outputs":[],"stateMutability":"nonpayable","type":"function"},{"inputs":[],"name":"revokeFreezer","outputs":[],"stateMutability":"nonpayable","type":"function"},{"inputs":[],"name":"revokeMinter","outputs":[],"stateMutability":"nonpayable","type":"function"},{"inputs":[],"name":"revokeRecoverer","outputs":[],"stateMutability":"nonpayable","type":"function"},{"inputs":[{"internalType":"bytes32","name":"role","type":"bytes32"},{"internalType":"address","name":"account","type":"address"}],"name":"revokeRole","outputs":[],"stateMutability":"nonpayable","type":"function"},{"inputs":[{"internalType":"bytes4","name":"interfaceId","type":"bytes4"}],"name":"supportsInterface","outputs":[{"internalType":"bool","name":"","type":"bool"}],"stateMutability":"view","type":"function"},{"inputs":[],"name":"symbol","outputs":[{"internalType":"string","name":"","type":"string"}],"stateMutability":"view","type":"function"},{"inputs":[],"name":"totalSupply","outputs":[{"internalType":"uint256","name":"","type":"uint256"}],"stateMutability":"view","type":"function"},{"inputs":[{"internalType":"address","name":"to","type":"address"},{"internalType":"uint256","name":"amount","type":"uint256"}],"name":"transfer","outputs":[{"internalType":"bool","name":"","type":"bool"}],"stateMutability":"nonpayable","type":"function"},{"inputs":[{"internalType":"address","name":"from","type":"address"},{"internalType":"address","name":"to","type":"address"},{"internalType":"uint256","name":"value","type":"uint256"}],"name":"transferFrom","outputs":[{"internalType":"bool","name":"","type":"bool"}],"stateMutability":"nonpayable","type":"function"},{"inputs":[{"internalType":"address","name":"newOwner","type":"address"}],"name":"transferOwnership","outputs":[],"stateMutability":"nonpayable","type":"function"},{"inputs":[{"internalType":"address","name":"account","type":"address"}],"name":"unfreezeAccount","outputs":[],"stateMutability":"nonpayable","type":"function"}],"evm":{"bytecode":{"linkReferences":{},"object":"60806040526001600c60006101000a81548160ff0219169083151502179055506001600c60016101000a81548160ff0219169083151502179055506001600c60026101000a81548160ff0219169083151502179055506001600c60036101000a81548160ff0219169083151502179055506001600c60046101000a81548160ff0219169083151502179055506103e8600d553480156200009e57600080fd5b5060405162004abe38038062004abe8339818101604052810190620000c4919062000d73565b3383838160039081620000d891906200104e565b508060049081620000ea91906200104e565b505050600073ffffffffffffffffffffffffffffffffffffffff168173ffffffffffffffffffffffffffffffffffffffff1603620001625760006040517f1e4fbdf70000000000000000000000000000000000000000000000000000000081526004016200015991906200117a565b60405180910390fd5b6200017381620001fa60201b60201c565b50620001896000801b33620002c060201b60201c565b506200019c33826200031160201b60201c565b620001ad336200039e60201b60201c565b620001be33620003ff60201b60201c565b620001cf336200046060201b60201c565b620001e033620004c160201b60201c565b620001f1336200052260201b60201c565b505050620012b4565b6000600760009054906101000a900473ffffffffffffffffffffffffffffffffffffffff16905081600760006101000a81548173ffffffffffffffffffffffffffffffffffffffff021916908373ffffffffffffffffffffffffffffffffffffffff1602179055508173ffffffffffffffffffffffffffffffffffffffff168173ffffffffffffffffffffffffffffffffffffffff167f8be0079c531659141344cd1fd0a4f28419497f9722a3daafe3b4186f6b6457e060405160405180910390a35050565b600080620002d584846200058360201b60201c565b9050801562000307576200030583600660008781526020019081526020016000206200068760201b90919060201c565b505b8091505092915050565b600073ffffffffffffffffffffffffffffffffffffffff168273ffffffffffffffffffffffffffffffffffffffff1603620003865760006040517fec442f050000000000000000000000000000000000000000000000000000000081526004016200037d91906200117a565b60405180910390fd5b6200039a60008383620006bf60201b60201c565b5050565b620003ae620008ef60201b60201c565b620003e07f9f2df0fed2c77648de5860a4cc508cd0818c85b8b8a1ab4ceeef8d981c8956a6826200099160201b60201c565b6064600d6000828254620003f59190620011c6565b9250508190555050565b6200040f620008ef60201b60201c565b620004417f3c11d16cbaffd01df69ce1c404f6340ee057498f5f00246190ea54220576a848826200099160201b60201c565b6064600d6000828254620004569190620011c6565b9250508190555050565b62000470620008ef60201b60201c565b620004a27f92de27771f92d6942691d73358b3a4673e4880de8356f8f2cf452be87e02d363826200099160201b60201c565b6064600d6000828254620004b79190620011c6565b9250508190555050565b620004d1620008ef60201b60201c565b620005037ff988e4fb62b8e14f4820fed03192306ddf4d7dbfa215595ba1c6ba4b76b369ee826200099160201b60201c565b6064600d6000828254620005189190620011c6565b9250508190555050565b62000532620008ef60201b60201c565b620005647f62b337eaefec74dadf1a62e856bf9db4f14a0f27d4f48156a95a9f98e7d5e066826200099160201b60201c565b6064600d6000828254620005799190620011c6565b9250508190555050565b6000620005978383620009cb60201b60201c565b6200067c5760016005600085815260200190815260200160002060000160008473ffffffffffffffffffffffffffffffffffffffff1673ffffffffffffffffffffffffffffffffffffffff16815260200190815260200160002060006101000a81548160ff0219169083151502179055506200061862000a3660201b60201c565b73ffffffffffffffffffffffffffffffffffffffff168273ffffffffffffffffffffffffffffffffffffffff16847f2f8788117e7eff1d82e926ec794901d17c78024a50270940304540a733656f0d60405160405180910390a46001905062000681565b600090505b92915050565b6000620006b7836000018373ffffffffffffffffffffffffffffffffffffffff1660001b62000a3e60201b60201c565b905092915050565b600073ffffffffffffffffffffffffffffffffffffffff168373ffffffffffffffffffffffffffffffffffffffff160362000715578060026000828254620007089190620011c6565b92505081905550620007eb565b60008060008573ffffffffffffffffffffffffffffffffffffffff1673ffffffffffffffffffffffffffffffffffffffff16815260200190815260200160002054905081811015620007a4578381836040517fe450d38c0000000000000000000000000000000000000000000000000000000081526004016200079b9392919062001212565b60405180910390fd5b8181036000808673ffffffffffffffffffffffffffffffffffffffff1673ffffffffffffffffffffffffffffffffffffffff16815260200190815260200160002081905550505b600073ffffffffffffffffffffffffffffffffffffffff168273ffffffffffffffffffffffffffffffffffffffff160362000836578060026000828254039250508190555062000883565b806000808473ffffffffffffffffffffffffffffffffffffffff1673ffffffffffffffffffffffffffffffffffffffff168152602001908152602001600020600082825401925050819055505b8173ffffffffffffffffffffffffffffffffffffffff168373ffffffffffffffffffffffffffffffffffffffff167fddf252ad1be2c89b69c2b068fc378daa952ba7f163c4a11628f55a4df523b3ef83604051620008e291906200124f565b60405180910390a3505050565b620008ff62000a3660201b60201c565b73ffffffffffffffffffffffffffffffffffffffff166200092562000ab860201b60201c565b73ffffffffffffffffffffffffffffffffffffffff16146200098f576200095162000a3660201b60201c565b6040517f118cdaa70000000000000000000000000000000000000000000000000000000081526004016200098691906200117a565b60405180910390fd5b565b620009a28262000ae260201b60201c565b620009b38162000b0260201b60201c565b620009c58383620002c060201b60201c565b50505050565b60006005600084815260200190815260200160002060000160008373ffffffffffffffffffffffffffffffffffffffff1673ffffffffffffffffffffffffffffffffffffffff16815260200190815260200160002060009054906101000a900460ff16905092915050565b600033905090565b600062000a52838362000b2660201b60201c565b62000aad57826000018290806001815401808255809150506001900390600052602060002001600090919091909150558260000180549050836001016000848152602001908152602001600020819055506001905062000ab2565b600090505b92915050565b6000600760009054906101000a900473ffffffffffffffffffffffffffffffffffffffff16905090565b600060056000838152602001908152602001600020600101549050919050565b62000b238162000b1762000a3660201b60201c565b62000b4960201b60201c565b50565b600080836001016000848152602001908152602001600020541415905092915050565b62000b5b8282620009cb60201b60201c565b62000ba15780826040517fe2517d3f00000000000000000000000000000000000000000000000000000000815260040162000b9892919062001287565b60405180910390fd5b5050565b6000604051905090565b600080fd5b600080fd5b600080fd5b600080fd5b6000601f19601f8301169050919050565b7f4e487b7100000000000000000000000000000000000000000000000000000000600052604160045260246000fd5b62000c0e8262000bc3565b810181811067ffffffffffffffff8211171562000c305762000c2f62000bd4565b5b80604052505050565b600062000c4562000ba5565b905062000c53828262000c03565b919050565b600067ffffffffffffffff82111562000c765762000c7562000bd4565b5b62000c818262000bc3565b9050602081019050919050565b60005b8381101562000cae57808201518184015260208101905062000c91565b60008484015250505050565b600062000cd162000ccb8462000c58565b62000c39565b90508281526020810184848401111562000cf05762000cef62000bbe565b5b62000cfd84828562000c8e565b509392505050565b600082601f83011262000d1d5762000d1c62000bb9565b5b815162000d2f84826020860162000cba565b91505092915050565b6000819050919050565b62000d4d8162000d38565b811462000d5957600080fd5b50565b60008151905062000d6d8162000d42565b92915050565b60008060006060848603121562000d8f5762000d8e62000baf565b5b600084015167ffffffffffffffff81111562000db05762000daf62000bb4565b5b62000dbe8682870162000d05565b935050602084015167ffffffffffffffff81111562000de25762000de162000bb4565b5b62000df08682870162000d05565b925050604062000e038682870162000d5c565b9150509250925092565b600081519050919050565b7f4e487b7100000000000000000000000000000000000000000000000000000000600052602260045260246000fd5b6000600282049050600182168062000e6057607f821691505b60208210810362000e765762000e7562000e18565b5b50919050565b60008190508160005260206000209050919050565b60006020601f8301049050919050565b600082821b905092915050565b60006008830262000ee07fffffffffffffffffffffffffffffffffffffffffffffffffffffffffffffffff8262000ea1565b62000eec868362000ea1565b95508019841693508086168417925050509392505050565b6000819050919050565b600062000f2f62000f2962000f238462000d38565b62000f04565b62000d38565b9050919050565b6000819050919050565b62000f4b8362000f0e565b62000f6362000f5a8262000f36565b84845462000eae565b825550505050565b600090565b62000f7a62000f6b565b62000f8781848462000f40565b505050565b5b8181101562000faf5762000fa360008262000f70565b60018101905062000f8d565b5050565b601f82111562000ffe5762000fc88162000e7c565b62000fd38462000e91565b8101602085101562000fe3578190505b62000ffb62000ff28562000e91565b83018262000f8c565b50505b505050565b600082821c905092915050565b6000620010236000198460080262001003565b1980831691505092915050565b60006200103e838362001010565b9150826002028217905092915050565b620010598262000e0d565b67ffffffffffffffff81111562001075576200107462000bd4565b5b62001081825462000e47565b6200108e82828562000fb3565b600060209050601f831160018114620010c65760008415620010b1578287015190505b620010bd858262001030565b8655506200112d565b601f198416620010d68662000e7c565b60005b828110156200110057848901518255600182019150602085019450602081019050620010d9565b868310156200112057848901516200111c601f89168262001010565b8355505b6001600288020188555050505b505050505050565b600073ffffffffffffffffffffffffffffffffffffffff82169050919050565b6000620011628262001135565b9050919050565b620011748162001155565b82525050565b600060208201905062001191600083018462001169565b92915050565b7f4e487b7100000000000000000000000000000000000000000000000000000000600052601160045260246000fd5b6000620011d38262000d38565b9150620011e08362000d38565b9250828201905080821115620011fb57620011fa62001197565b5b92915050565b6200120c8162000d38565b82525050565b600060608201905062001229600083018662001169565b62001238602083018562001201565b62001247604083018462001201565b949350505050565b600060208201905062001266600083018462001201565b92915050565b6000819050919050565b62001281816200126c565b82525050565b60006040820190506200129e600083018562001169565b620012ad602083018462001276565b9392505050565b6137fa80620012c46000396000f3fe608060405234801561001057600080fd5b50600436106103785760003560e01c8063788649ea116101d3578063a217fddf11610104578063d547741f116100a2578063f1f2e51c1161007c578063f1f2e51c146109e5578063f26c159f146109ef578063f2fde38b14610a0b578063f44637ba14610a2757610378565b8063d547741f1461097b578063d724114414610997578063dd62ed3e146109b557610378565b8063c2134b23116100de578063c2134b23146108f5578063ca15c87314610911578063d1c2de0a14610941578063d53913931461095d57610378565b8063a217fddf14610889578063a9059cbb146108a7578063b319031c146108d757610378565b806391d1485411610171578063974b368c1161014b578063974b368c14610805578063983b2d56146108215780639dc29fac1461083d578063a04a85c01461085957610378565b806391d1485414610799578063939bcbc9146107c957806395d89b41146107e757610378565b8063883356d9116101ad578063883356d9146107235780638da5cb5b146107415780639010d07c1461075f5780639140052b1461078f57610378565b8063788649ea146106f35780637c202fc91461070f578063805a9d5a1461071957610378565b80633092afd5116102ad57806346b45af71161024b578063585212fb11610225578063585212fb1461067f57806370a0823114610689578063715018a6146106b957806371fb7493146106c357610378565b806346b45af714610629578063526606c914610647578063537df3b61461066357610378565b806338fdd6501161028757806338fdd650146105b557806340c10f19146105d3578063410b2424146105ef57806344337ea11461060d57610378565b80633092afd51461055f578063313ce5671461057b57806336568abe1461059957610378565b80631be6dd641161031a578063248a9ca3116102f4578063248a9ca3146104d9578063282c51f3146105095780632acd2000146105275780632f2ff15d1461054357610378565b80631be6dd641461046f5780631ec82cb81461048d57806323b872dd146104a957610378565b806306fdde031161035657806306fdde03146103e7578063095ea7b3146104055780630eff2afc1461043557806318160ddd1461045157610378565b806301ffc9a71461037d57806302846858146103ad57806306a85f0f146103c9575b600080fd5b61039760048036038101906103929190612cbe565b610a43565b6040516103a49190612d06565b60405180910390f35b6103c760048036038101906103c29190612d7f565b610abd565b005b6103d1610b0c565b6040516103de9190612dc5565b60405180910390f35b6103ef610b30565b6040516103fc9190612e70565b60405180910390f35b61041f600480360381019061041a9190612ec8565b610bc2565b60405161042c9190612d06565b60405180910390f35b61044f600480360381019061044a9190612d7f565b610be5565b005b610459610c34565b6040516104669190612f17565b60405180910390f35b610477610c3e565b6040516104849190612f17565b60405180910390f35b6104a760048036038101906104a29190612f32565b610c44565b005b6104c360048036038101906104be9190612f32565b610cce565b6040516104d09190612d06565b60405180910390f35b6104f360048036038101906104ee9190612fb1565b610cfd565b6040516105009190612dc5565b60405180910390f35b610511610d1d565b60405161051e9190612dc5565b60405180910390f35b610541600480360381019061053c9190612d7f565b610d41565b005b61055d60048036038101906105589190612fde565b610d90565b005b61057960048036038101906105749190612d7f565b610db2565b005b610583610e01565b604051610590919061303a565b60405180910390f35b6105b360048036038101906105ae9190612fde565b610e0a565b005b6105bd610e85565b6040516105ca9190612d06565b60405180910390f35b6105ed60048036038101906105e89190612ec8565b610e98565b005b6105f7610f3a565b6040516106049190612dc5565b60405180910390f35b61062760048036038101906106229190612d7f565b610f5e565b005b610631611044565b60405161063e9190612d06565b60405180910390f35b610661600480360381019061065c9190612d7f565b611057565b005b61067d60048036038101906106789190612d7f565b6110a6565b005b61068761113c565b005b6106a3600480360381019061069e9190612d7f565b6111ff565b6040516106b09190612f17565b60405180910390f35b6106c1611247565b005b6106dd60048036038101906106d89190612d7f565b61125b565b6040516106ea9190612d06565b60405180910390f35b61070d60048036038101906107089190612d7f565b611278565b005b61071761130e565b005b6107216113d1565b005b61072b611494565b6040516107389190612d06565b60405180910390f35b6107496114a7565b6040516107569190613064565b60405180910390f35b6107796004803603810190610774919061307f565b6114d1565b6040516107869190613064565b60405180910390f35b610797611500565b005b6107b360048036038101906107ae9190612fde565b6115c3565b6040516107c09190612d06565b60405180910390f35b6107d161162e565b6040516107de9190612dc5565b60405180910390f35b6107ef611652565b6040516107fc9190612e70565b60405180910390f35b61081f600480360381019061081a9190612d7f565b6116e4565b005b61083b60048036038101906108369190612d7f565b611733565b005b61085760048036038101906108529190612ec8565b611782565b005b610873600480360381019061086e9190612d7f565b611824565b6040516108809190612d06565b60405180910390f35b610891611841565b60405161089e9190612dc5565b60405180910390f35b6108c160048036038101906108bc9190612ec8565b611848565b6040516108ce9190612d06565b60405180910390f35b6108df611964565b6040516108ec9190612d06565b60405180910390f35b61090f600480360381019061090a9190612d7f565b611977565b005b61092b60048036038101906109269190612fb1565b6119c6565b6040516109389190612f17565b60405180910390f35b61095b60048036038101906109569190612d7f565b6119ea565b005b610965611a39565b6040516109729190612dc5565b60405180910390f35b61099560048036038101906109909190612fde565b611a5d565b005b61099f611a7f565b6040516109ac9190612d06565b60405180910390f35b6109cf60048036038101906109ca91906130bf565b611a92565b6040516109dc9190612f17565b60405180910390f35b6109ed611b19565b005b610a096004803603810190610a049190612d7f565b611bdc565b005b610a256004803603810190610a209190612d7f565b611cc2565b005b610a416004803603810190610a3c9190612d7f565b611d48565b005b60007f5a05180f000000000000000000000000000000000000000000000000000000007bffffffffffffffffffffffffffffffffffffffffffffffffffffffff1916827bffffffffffffffffffffffffffffffffffffffffffffffffffffffff19161480610ab65750610ab582611d97565b5b9050919050565b610ac5611e11565b610aef7f3c11d16cbaffd01df69ce1c404f6340ee057498f5f00246190ea54220576a84882611a5d565b6064600d6000828254610b02919061312e565b9250508190555050565b7f92de27771f92d6942691d73358b3a4673e4880de8356f8f2cf452be87e02d36381565b606060038054610b3f90613191565b80601f0160208091040260200160405190810160405280929190818152602001828054610b6b90613191565b8015610bb85780601f10610b8d57610100808354040283529160200191610bb8565b820191906000526020600020905b815481529060010190602001808311610b9b57829003601f168201915b5050505050905090565b600080610bcd611e98565b9050610bda818585611ea0565b600191505092915050565b610bed611e11565b610c177ff988e4fb62b8e14f4820fed03192306ddf4d7dbfa215595ba1c6ba4b76b369ee82610d90565b6064600d6000828254610c2a919061312e565b9250508190555050565b6000600254905090565b600d5481565b7f62b337eaefec74dadf1a62e856bf9db4f14a0f27d4f48156a95a9f98e7d5e066610c6e81611eb2565b600c60049054906101000a900460ff16610cbd576040517f08c379a0000000000000000000000000000000000000000000000000000000008152600401610cb49061320e565b60405180910390fd5b610cc8848484611ec6565b50505050565b600080610cd9611e98565b9050610ce6858285611fba565b610cf1858585611ec6565b60019150509392505050565b600060056000838152602001908152602001600020600101549050919050565b7f3c11d16cbaffd01df69ce1c404f6340ee057498f5f00246190ea54220576a84881565b610d49611e11565b610d737f92de27771f92d6942691d73358b3a4673e4880de8356f8f2cf452be87e02d36382611a5d565b6064600d6000828254610d86919061312e565b9250508190555050565b610d9982610cfd565b610da281611eb2565b610dac838361204e565b50505050565b610dba611e11565b610de47f9f2df0fed2c77648de5860a4cc508cd0818c85b8b8a1ab4ceeef8d981c8956a682611a5d565b6064600d6000828254610df7919061312e565b9250508190555050565b60006012905090565b610e12611e98565b73ffffffffffffffffffffffffffffffffffffffff168173ffffffffffffffffffffffffffffffffffffffff1614610e76576040517f6697b23200000000000000000000000000000000000000000000000000000000815260040160405180910390fd5b610e808282612094565b505050565b600c60029054906101000a900460ff1681565b7f9f2df0fed2c77648de5860a4cc508cd0818c85b8b8a1ab4ceeef8d981c8956a6610ec281611eb2565b600c60009054906101000a900460ff16610f11576040517f08c379a0000000000000000000000000000000000000000000000000000000008152600401610f089061327a565b60405180910390fd5b610f1b83836120da565b6014600d6000828254610f2e919061312e565b92505081905550505050565b7ff988e4fb62b8e14f4820fed03192306ddf4d7dbfa215595ba1c6ba4b76b369ee81565b7ff988e4fb62b8e14f4820fed03192306ddf4d7dbfa215595ba1c6ba4b76b369ee610f8881611eb2565b610f9c82600a61215c90919063ffffffff16565b15610fdc576040517f08c379a0000000000000000000000000000000000000000000000000000000008152600401610fd3906132e6565b60405180910390fd5b600c60039054906101000a900460ff1661102b576040517f08c379a000000000000000000000000000000000000000000000000000000000815260040161102290613352565b60405180910390fd5b61103f82600a61218c90919063ffffffff16565b505050565b600c60009054906101000a900460ff1681565b61105f611e11565b6110897f92de27771f92d6942691d73358b3a4673e4880de8356f8f2cf452be87e02d36382610d90565b6064600d600082825461109c919061312e565b9250508190555050565b7ff988e4fb62b8e14f4820fed03192306ddf4d7dbfa215595ba1c6ba4b76b369ee6110d081611eb2565b6110e482600a61215c90919063ffffffff16565b611123576040517f08c379a000000000000000000000000000000000000000000000000000000000815260040161111a906133be565b60405180910390fd5b61113782600a6121bc90919063ffffffff16565b505050565b611144611e11565b7f9f2df0fed2c77648de5860a4cc508cd0818c85b8b8a1ab4ceeef8d981c8956a6600c60009054906101000a900460ff166000611180836119c6565b905060005b818110156111b457600061119a8560006114d1565b90506111a68582611a5d565b508080600101915050611185565b506111c26000801b30612094565b506111cd8330612094565b506111db836000801b6121ec565b6000915061012c600d60008282546111f3919061312e565b92505081905550505050565b60008060008373ffffffffffffffffffffffffffffffffffffffff1673ffffffffffffffffffffffffffffffffffffffff168152602001908152602001600020549050919050565b61124f611e11565b6112596000612248565b565b600061127182600a61215c90919063ffffffff16565b9050919050565b7f92de27771f92d6942691d73358b3a4673e4880de8356f8f2cf452be87e02d3636112a281611eb2565b6112b682600861215c90919063ffffffff16565b6112f5576040517f08c379a00000000000000000000000000000000000000000000000000000000081526004016112ec9061342a565b60405180910390fd5b6113098260086121bc90919063ffffffff16565b505050565b611316611e11565b7ff988e4fb62b8e14f4820fed03192306ddf4d7dbfa215595ba1c6ba4b76b369ee600c60039054906101000a900460ff166000611352836119c6565b905060005b8181101561138657600061136c8560006114d1565b90506113788582611a5d565b508080600101915050611357565b506113946000801b30612094565b5061139f8330612094565b506113ad836000801b6121ec565b6000915061012c600d60008282546113c5919061312e565b92505081905550505050565b6113d9611e11565b7f62b337eaefec74dadf1a62e856bf9db4f14a0f27d4f48156a95a9f98e7d5e066600c60049054906101000a900460ff166000611415836119c6565b905060005b8181101561144957600061142f8560006114d1565b905061143b8582611a5d565b50808060010191505061141a565b506114576000801b30612094565b506114628330612094565b50611470836000801b6121ec565b6000915061012c600d6000828254611488919061312e565b92505081905550505050565b600c60019054906101000a900460ff1681565b6000600760009054906101000a900473ffffffffffffffffffffffffffffffffffffffff16905090565b60006114f8826006600086815260200190815260200160002061230e90919063ffffffff16565b905092915050565b611508611e11565b7f92de27771f92d6942691d73358b3a4673e4880de8356f8f2cf452be87e02d363600c60029054906101000a900460ff166000611544836119c6565b905060005b8181101561157857600061155e8560006114d1565b905061156a8582611a5d565b508080600101915050611549565b506115866000801b30612094565b506115918330612094565b5061159f836000801b6121ec565b6000915061012c600d60008282546115b7919061312e565b92505081905550505050565b60006005600084815260200190815260200160002060000160008373ffffffffffffffffffffffffffffffffffffffff1673ffffffffffffffffffffffffffffffffffffffff16815260200190815260200160002060009054906101000a900460ff16905092915050565b7f62b337eaefec74dadf1a62e856bf9db4f14a0f27d4f48156a95a9f98e7d5e06681565b60606004805461166190613191565b80601f016020809104026020016040519081016040528092919081815260200182805461168d90613191565b80156116da5780601f106116af576101008083540402835291602001916116da565b820191906000526020600020905b8154815290600101906020018083116116bd57829003601f168201915b5050505050905090565b6116ec611e11565b6117167ff988e4fb62b8e14f4820fed03192306ddf4d7dbfa215595ba1c6ba4b76b369ee82611a5d565b6064600d6000828254611729919061312e565b9250508190555050565b61173b611e11565b6117657f9f2df0fed2c77648de5860a4cc508cd0818c85b8b8a1ab4ceeef8d981c8956a682610d90565b6064600d6000828254611778919061312e565b9250508190555050565b7f3c11d16cbaffd01df69ce1c404f6340ee057498f5f00246190ea54220576a8486117ac81611eb2565b600c60019054906101000a900460ff166117fb576040517f08c379a00000000000000000000000000000000000000000000000000000000081526004016117f290613496565b60405180910390fd5b6118058383612328565b6028600d6000828254611818919061312e565b92505081905550505050565b600061183a82600861215c90919063ffffffff16565b9050919050565b6000801b81565b600080611853611e98565b905061186981600861215c90919063ffffffff16565b156118a9576040517f08c379a00000000000000000000000000000000000000000000000000000000081526004016118a090613502565b60405180910390fd5b6118bd81600a61215c90919063ffffffff16565b156118fd576040517f08c379a00000000000000000000000000000000000000000000000000000000081526004016118f49061356e565b60405180910390fd5b61191184600a61215c90919063ffffffff16565b15611951576040517f08c379a0000000000000000000000000000000000000000000000000000000008152600401611948906135da565b60405180910390fd5b61195b84846123aa565b91505092915050565b600c60039054906101000a900460ff1681565b61197f611e11565b6119a97f62b337eaefec74dadf1a62e856bf9db4f14a0f27d4f48156a95a9f98e7d5e06682610d90565b6064600d60008282546119bc919061312e565b9250508190555050565b60006119e3600660008481526020019081526020016000206123cd565b9050919050565b6119f2611e11565b611a1c7f62b337eaefec74dadf1a62e856bf9db4f14a0f27d4f48156a95a9f98e7d5e06682611a5d565b6064600d6000828254611a2f919061312e565b9250508190555050565b7f9f2df0fed2c77648de5860a4cc508cd0818c85b8b8a1ab4ceeef8d981c8956a681565b611a6682610cfd565b611a6f81611eb2565b611a798383612094565b50505050565b600c60049054906101000a900460ff1681565b6000600160008473ffffffffffffffffffffffffffffffffffffffff1673ffffffffffffffffffffffffffffffffffffffff16815260200190815260200160002060008373ffffffffffffffffffffffffffffffffffffffff1673ffffffffffffffffffffffffffffffffffffffff16815260200190815260200160002054905092915050565b611b21611e11565b7f3c11d16cbaffd01df69ce1c404f6340ee057498f5f00246190ea54220576a848600c60019054906101000a900460ff166000611b5d836119c6565b905060005b81811015611b91576000611b778560006114d1565b9050611b838582611a5d565b508080600101915050611b62565b50611b9f6000801b30612094565b50611baa8330612094565b50611bb8836000801b6121ec565b6000915061012c600d6000828254611bd0919061312e565b92505081905550505050565b7f92de27771f92d6942691d73358b3a4673e4880de8356f8f2cf452be87e02d363611c0681611eb2565b611c1a82600861215c90919063ffffffff16565b15611c5a576040517f08c379a0000000000000000000000000000000000000000000000000000000008152600401611c5190613646565b60405180910390fd5b600c60029054906101000a900460ff16611ca9576040517f08c379a0000000000000000000000000000000000000000000000000000000008152600401611ca0906136b2565b60405180910390fd5b611cbd82600861218c90919063ffffffff16565b505050565b611cca611e11565b600073ffffffffffffffffffffffffffffffffffffffff168173ffffffffffffffffffffffffffffffffffffffff1603611d3c5760006040517f1e4fbdf7000000000000000000000000000000000000000000000000000000008152600401611d339190613064565b60405180910390fd5b611d4581612248565b50565b611d50611e11565b611d7a7f3c11d16cbaffd01df69ce1c404f6340ee057498f5f00246190ea54220576a84882610d90565b6064600d6000828254611d8d919061312e565b9250508190555050565b60007f7965db0b000000000000000000000000000000000000000000000000000000007bffffffffffffffffffffffffffffffffffffffffffffffffffffffff1916827bffffffffffffffffffffffffffffffffffffffffffffffffffffffff19161480611e0a5750611e09826123e2565b5b9050919050565b611e19611e98565b73ffffffffffffffffffffffffffffffffffffffff16611e376114a7565b73ffffffffffffffffffffffffffffffffffffffff1614611e9657611e5a611e98565b6040517f118cdaa7000000000000000000000000000000000000000000000000000000008152600401611e8d9190613064565b60405180910390fd5b565b600033905090565b611ead838383600161244c565b505050565b611ec381611ebe611e98565b612623565b50565b600073ffffffffffffffffffffffffffffffffffffffff168373ffffffffffffffffffffffffffffffffffffffff1603611f385760006040517f96c6fd1e000000000000000000000000000000000000000000000000000000008152600401611f2f9190613064565b60405180910390fd5b600073ffffffffffffffffffffffffffffffffffffffff168273ffffffffffffffffffffffffffffffffffffffff1603611faa5760006040517fec442f05000000000000000000000000000000000000000000000000000000008152600401611fa19190613064565b60405180910390fd5b611fb5838383612674565b505050565b6000611fc68484611a92565b90507fffffffffffffffffffffffffffffffffffffffffffffffffffffffffffffffff81146120485781811015612038578281836040517ffb8f41b200000000000000000000000000000000000000000000000000000000815260040161202f939291906136d2565b60405180910390fd5b6120478484848403600061244c565b5b50505050565b60008061205b8484612899565b9050801561208a57612088836006600087815260200190815260200160002061218c90919063ffffffff16565b505b8091505092915050565b6000806120a1848461298b565b905080156120d0576120ce83600660008781526020019081526020016000206121bc90919063ffffffff16565b505b8091505092915050565b600073ffffffffffffffffffffffffffffffffffffffff168273ffffffffffffffffffffffffffffffffffffffff160361214c5760006040517fec442f050000000000000000000000000000000000000000000000000000000081526004016121439190613064565b60405180910390fd5b61215860008383612674565b5050565b6000612184836000018373ffffffffffffffffffffffffffffffffffffffff1660001b612a7e565b905092915050565b60006121b4836000018373ffffffffffffffffffffffffffffffffffffffff1660001b612aa1565b905092915050565b60006121e4836000018373ffffffffffffffffffffffffffffffffffffffff1660001b612b11565b905092915050565b60006121f783610cfd565b90508160056000858152602001908152602001600020600101819055508181847fbd79b86ffe0ab8e8776151514217cd7cacd52c909f66475c3af44e129f0b00ff60405160405180910390a4505050565b6000600760009054906101000a900473ffffffffffffffffffffffffffffffffffffffff16905081600760006101000a81548173ffffffffffffffffffffffffffffffffffffffff021916908373ffffffffffffffffffffffffffffffffffffffff1602179055508173ffffffffffffffffffffffffffffffffffffffff168173ffffffffffffffffffffffffffffffffffffffff167f8be0079c531659141344cd1fd0a4f28419497f9722a3daafe3b4186f6b6457e060405160405180910390a35050565b600061231d8360000183612c25565b60001c905092915050565b600073ffffffffffffffffffffffffffffffffffffffff168273ffffffffffffffffffffffffffffffffffffffff160361239a5760006040517f96c6fd1e0000000000000000000000000000000000000000000000000000000081526004016123919190613064565b60405180910390fd5b6123a682600083612674565b5050565b6000806123b5611e98565b90506123c2818585611ec6565b600191505092915050565b60006123db82600001612c50565b9050919050565b60007f01ffc9a7000000000000000000000000000000000000000000000000000000007bffffffffffffffffffffffffffffffffffffffffffffffffffffffff1916827bffffffffffffffffffffffffffffffffffffffffffffffffffffffff1916149050919050565b600073ffffffffffffffffffffffffffffffffffffffff168473ffffffffffffffffffffffffffffffffffffffff16036124be5760006040517fe602df050000000000000000000000000000000000000000000000000000000081526004016124b59190613064565b60405180910390fd5b600073ffffffffffffffffffffffffffffffffffffffff168373ffffffffffffffffffffffffffffffffffffffff16036125305760006040517f94280d620000000000000000000000000000000000000000000000000000000081526004016125279190613064565b60405180910390fd5b81600160008673ffffffffffffffffffffffffffffffffffffffff1673ffffffffffffffffffffffffffffffffffffffff16815260200190815260200160002060008573ffffffffffffffffffffffffffffffffffffffff1673ffffffffffffffffffffffffffffffffffffffff16815260200190815260200160002081905550801561261d578273ffffffffffffffffffffffffffffffffffffffff168473ffffffffffffffffffffffffffffffffffffffff167f8c5be1e5ebec7d5bd14f71427d1e84f3dd0314c0f7b2291e5b200ac8c7c3b925846040516126149190612f17565b60405180910390a35b50505050565b61262d82826115c3565b6126705780826040517fe2517d3f000000000000000000000000000000000000000000000000000000008152600401612667929190613709565b60405180910390fd5b5050565b600073ffffffffffffffffffffffffffffffffffffffff168373ffffffffffffffffffffffffffffffffffffffff16036126c65780600260008282546126ba919061312e565b92505081905550612799565b60008060008573ffffffffffffffffffffffffffffffffffffffff1673ffffffffffffffffffffffffffffffffffffffff16815260200190815260200160002054905081811015612752578381836040517fe450d38c000000000000000000000000000000000000000000000000000000008152600401612749939291906136d2565b60405180910390fd5b8181036000808673ffffffffffffffffffffffffffffffffffffffff1673ffffffffffffffffffffffffffffffffffffffff16815260200190815260200160002081905550505b600073ffffffffffffffffffffffffffffffffffffffff168273ffffffffffffffffffffffffffffffffffffffff16036127e2578060026000828254039250508190555061282f565b806000808473ffffffffffffffffffffffffffffffffffffffff1673ffffffffffffffffffffffffffffffffffffffff168152602001908152602001600020600082825401925050819055505b8173ffffffffffffffffffffffffffffffffffffffff168373ffffffffffffffffffffffffffffffffffffffff167fddf252ad1be2c89b69c2b068fc378daa952ba7f163c4a11628f55a4df523b3ef8360405161288c9190612f17565b60405180910390a3505050565b60006128a583836115c3565b6129805760016005600085815260200190815260200160002060000160008473ffffffffffffffffffffffffffffffffffffffff1673ffffffffffffffffffffffffffffffffffffffff16815260200190815260200160002060006101000a81548160ff02191690831515021790555061291d611e98565b73ffffffffffffffffffffffffffffffffffffffff168273ffffffffffffffffffffffffffffffffffffffff16847f2f8788117e7eff1d82e926ec794901d17c78024a50270940304540a733656f0d60405160405180910390a460019050612985565b600090505b92915050565b600061299783836115c3565b15612a735760006005600085815260200190815260200160002060000160008473ffffffffffffffffffffffffffffffffffffffff1673ffffffffffffffffffffffffffffffffffffffff16815260200190815260200160002060006101000a81548160ff021916908315150217905550612a10611e98565b73ffffffffffffffffffffffffffffffffffffffff168273ffffffffffffffffffffffffffffffffffffffff16847ff6391f5c32d9c69d2a47ea670b442974b53935d1edc7fd64eb21e047a839171b60405160405180910390a460019050612a78565b600090505b92915050565b600080836001016000848152602001908152602001600020541415905092915050565b6000612aad8383612a7e565b612b06578260000182908060018154018082558091505060019003906000526020600020016000909190919091505582600001805490508360010160008481526020019081526020016000208190555060019050612b0b565b600090505b92915050565b60008083600101600084815260200190815260200160002054905060008114612c19576000600182612b439190613732565b9050600060018660000180549050612b5b9190613732565b9050808214612bca576000866000018281548110612b7c57612b7b613766565b5b9060005260206000200154905080876000018481548110612ba057612b9f613766565b5b90600052602060002001819055508387600101600083815260200190815260200160002081905550505b85600001805480612bde57612bdd613795565b5b600190038181906000526020600020016000905590558560010160008681526020019081526020016000206000905560019350505050612c1f565b60009150505b92915050565b6000826000018281548110612c3d57612c3c613766565b5b9060005260206000200154905092915050565b600081600001805490509050919050565b600080fd5b60007fffffffff0000000000000000000000000000000000000000000000000000000082169050919050565b612c9b81612c66565b8114612ca657600080fd5b50565b600081359050612cb881612c92565b92915050565b600060208284031215612cd457612cd3612c61565b5b6000612ce284828501612ca9565b91505092915050565b60008115159050919050565b612d0081612ceb565b82525050565b6000602082019050612d1b6000830184612cf7565b92915050565b600073ffffffffffffffffffffffffffffffffffffffff82169050919050565b6000612d4c82612d21565b9050919050565b612d5c81612d41565b8114612d6757600080fd5b50565b600081359050612d7981612d53565b92915050565b600060208284031215612d9557612d94612c61565b5b6000612da384828501612d6a565b91505092915050565b6000819050919050565b612dbf81612dac565b82525050565b6000602082019050612dda6000830184612db6565b92915050565b600081519050919050565b600082825260208201905092915050565b60005b83811015612e1a578082015181840152602081019050612dff565b60008484015250505050565b6000601f19601f8301169050919050565b6000612e4282612de0565b612e4c8185612deb565b9350612e5c818560208601612dfc565b612e6581612e26565b840191505092915050565b60006020820190508181036000830152612e8a8184612e37565b905092915050565b6000819050919050565b612ea581612e92565b8114612eb057600080fd5b50565b600081359050612ec281612e9c565b92915050565b60008060408385031215612edf57612ede612c61565b5b6000612eed85828601612d6a565b9250506020612efe85828601612eb3565b9150509250929050565b612f1181612e92565b82525050565b6000602082019050612f2c6000830184612f08565b92915050565b600080600060608486031215612f4b57612f4a612c61565b5b6000612f5986828701612d6a565b9350506020612f6a86828701612d6a565b9250506040612f7b86828701612eb3565b9150509250925092565b612f8e81612dac565b8114612f9957600080fd5b50565b600081359050612fab81612f85565b92915050565b600060208284031215612fc757612fc6612c61565b5b6000612fd584828501612f9c565b91505092915050565b60008060408385031215612ff557612ff4612c61565b5b600061300385828601612f9c565b925050602061301485828601612d6a565b9150509250929050565b600060ff82169050919050565b6130348161301e565b82525050565b600060208201905061304f600083018461302b565b92915050565b61305e81612d41565b82525050565b60006020820190506130796000830184613055565b92915050565b6000806040838503121561309657613095612c61565b5b60006130a485828601612f9c565b92505060206130b585828601612eb3565b9150509250929050565b600080604083850312156130d6576130d5612c61565b5b60006130e485828601612d6a565b92505060206130f585828601612d6a565b9150509250929050565b7f4e487b7100000000000000000000000000000000000000000000000000000000600052601160045260246000fd5b600061313982612e92565b915061314483612e92565b925082820190508082111561315c5761315b6130ff565b5b92915050565b7f4e487b7100000000000000000000000000000000000000000000000000000000600052602260045260246000fd5b600060028204905060018216806131a957607f821691505b6020821081036131bc576131bb613162565b5b50919050565b7f5265636f766572792069732064697361626c6564000000000000000000000000600082015250565b60006131f8601483612deb565b9150613203826131c2565b602082019050919050565b60006020820190508181036000830152613227816131eb565b9050919050565b7f4d696e74696e672069732064697361626c656400000000000000000000000000600082015250565b6000613264601383612deb565b915061326f8261322e565b602082019050919050565b6000602082019050818103600083015261329381613257565b9050919050565b7f4163636f756e7420697320616c726561647920626c61636b6c69737465640000600082015250565b60006132d0601e83612deb565b91506132db8261329a565b602082019050919050565b600060208201905081810360008301526132ff816132c3565b9050919050565b7f426c61636b6c6973742069732064697361626c65640000000000000000000000600082015250565b600061333c601583612deb565b915061334782613306565b602082019050919050565b6000602082019050818103600083015261336b8161332f565b9050919050565b7f4163636f756e74206973206e6f7420626c61636b6c6973746564000000000000600082015250565b60006133a8601a83612deb565b91506133b382613372565b602082019050919050565b600060208201905081810360008301526133d78161339b565b9050919050565b7f4163636f756e74206973206e6f742066726f7a656e0000000000000000000000600082015250565b6000613414601583612deb565b915061341f826133de565b602082019050919050565b6000602082019050818103600083015261344381613407565b9050919050565b7f4275726e696e672069732064697361626c656400000000000000000000000000600082015250565b6000613480601383612deb565b915061348b8261344a565b602082019050919050565b600060208201905081810360008301526134af81613473565b9050919050565b7f53656e646572206163636f756e742069732066726f7a656e0000000000000000600082015250565b60006134ec601883612deb565b91506134f7826134b6565b602082019050919050565b6000602082019050818103600083015261351b816134df565b9050919050565b7f53656e646572206163636f756e7420697320626c61636b6c6973746564000000600082015250565b6000613558601d83612deb565b915061356382613522565b602082019050919050565b600060208201905081810360008301526135878161354b565b9050919050565b7f526563697069656e74206163636f756e7420697320626c61636b6c6973746564600082015250565b60006135c4602083612deb565b91506135cf8261358e565b602082019050919050565b600060208201905081810360008301526135f3816135b7565b9050919050565b7f4163636f756e7420697320616c72656164792066726f7a656e00000000000000600082015250565b6000613630601983612deb565b915061363b826135fa565b602082019050919050565b6000602082019050818103600083015261365f81613623565b9050919050565b7f467265657a696e672069732064697361626c6564000000000000000000000000600082015250565b600061369c601483612deb565b91506136a782613666565b602082019050919050565b600060208201905081810360008301526136cb8161368f565b9050919050565b60006060820190506136e76000830186613055565b6136f46020830185612f08565b6137016040830184612f08565b949350505050565b600060408201905061371e6000830185613055565b61372b6020830184612db6565b9392505050565b600061373d82612e92565b915061374883612e92565b92508282039050818111156137605761375f6130ff565b5b92915050565b7f4e487b7100000000000000000000000000000000000000000000000000000000600052603260045260246000fd5b7f4e487b7100000000000000000000000000000000000000000000000000000000600052603160045260246000fdfea264697066735822122073b4e20102678b9cc114510dd644ce01cb08ad50a84720aca6bb3e19b963467164736f6c63430008180033","opcodes":"PUSH1 0x80 PUSH1 0x40 MSTORE PUSH1 0x1 PUSH1 0xC PUSH1 0x0 PUSH2 0x100 EXP DUP2 SLOAD DUP2 PUSH1 0xFF MUL NOT AND SWAP1 DUP4 ISZERO ISZERO MUL OR SWAP1 SSTORE POP PUSH1 0x1 PUSH1 0xC PUSH1 0x1 PUSH2 0x100 EXP DUP2 SLOAD DUP2 PUSH1 0xFF MUL NOT AND SWAP1 DUP4 ISZERO ISZERO MUL OR SWAP1 SSTORE POP PUSH1 0x1 PUSH1 0xC PUSH1 0x2 PUSH2 0x100 EXP DUP2 SLOAD DUP2 PUSH1 0xFF MUL NOT AND SWAP1 DUP4 ISZERO ISZERO MUL OR SWAP1 SSTORE POP PUSH1 0x1 PUSH1 0xC PUSH1 0x3 PUSH2 0x100 EXP DUP2 SLOAD DUP2 PUSH1 0xFF MUL NOT AND SWAP1 DUP4 ISZERO ISZERO MUL OR SWAP1 SSTORE POP PUSH1 0x1 PUSH1 0xC PUSH1 0x4 PUSH2 0x100 EXP DUP2 SLOAD DUP2 PUSH1 0xFF MUL NOT AND SWAP1 DUP4 ISZERO ISZERO MUL OR SWAP1 SSTORE POP PUSH2 0x3E8 PUSH1 0xD SSTORE CALLVALUE DUP1 ISZERO PUSH3 0x9E JUMPI PUSH1 0x0 DUP1 REVERT JUMPDEST POP PUSH1 0x40 MLOAD PUSH3 0x4ABE CODESIZE SUB DUP1 PUSH3 0x4ABE DUP4 CODECOPY DUP2 DUP2 ADD PUSH1 0x40 MSTORE DUP2 ADD SWAP1 PUSH3 0xC4 SWAP2 SWAP1 PUSH3 0xD73 JUMP JUMPDEST CALLER DUP4 DUP4 DUP2 PUSH1 0x3 SWAP1 DUP2 PUSH3 0xD8 SWAP2 SWAP1 PUSH3 0x104E JUMP JUMPDEST POP DUP1 PUSH1 0x4 SWAP1 DUP2 PUSH3 0xEA SWAP2 SWAP1 PUSH3 0x104E JUMP JUMPDEST POP POP POP PUSH1 0x0 PUSH20 0xFFFFFFFFFFFFFFFFFFFFFFFFFFFFFFFFFFFFFFFF AND DUP2 PUSH20 0xFFFFFFFFFFFFFFFFFFFFFFFFFFFFFFFFFFFFFFFF AND SUB PUSH3 0x162 JUMPI PUSH1 0x0 PUSH1 0x40 MLOAD PUSH32 0x1E4FBDF700000000000000000000000000000000000000000000000000000000 DUP2 MSTORE PUSH1 0x4 ADD PUSH3 0x159 SWAP2 SWAP1 PUSH3 0x117A JUMP JUMPDEST PUSH1 0x40 MLOAD DUP1 SWAP2 SUB SWAP1 REVERT JUMPDEST PUSH3 0x173 DUP2 PUSH3 0x1FA PUSH1 0x20 SHL PUSH1 0x20 SHR JUMP JUMPDEST POP PUSH3 0x189 PUSH1 0x0 DUP1 SHL CALLER PUSH3 0x2C0 PUSH1 0x20 SHL PUSH1 0x20 SHR JUMP JUMPDEST POP PUSH3 0x19C CALLER DUP3 PUSH3 0x311 PUSH1 0x20 SHL PUSH1 0x20 SHR JUMP JUMPDEST PUSH3 0x1AD CALLER PUSH3 0x39E PUSH1 0x20 SHL PUSH1 0x20 SHR JUMP JUMPDEST PUSH3 0x1BE CALLER PUSH3 0x3FF PUSH1 0x20 SHL PUSH1 0x20 SHR JUMP JUMPDEST PUSH3 0x1CF CALLER PUSH3 0x460 PUSH1 0x20 SHL PUSH1 0x20 SHR JUMP JUMPDEST PUSH3 0x1E0 CALLER PUSH3 0x4C1 PUSH1 0x20 SHL PUSH1 0x20 SHR JUMP JUMPDEST PUSH3 0x1F1 CALLER PUSH3 0x522 PUSH1 0x20 SHL PUSH1 0x20 SHR JUMP JUMPDEST POP POP POP PUSH3 0x12B4 JUMP JUMPDEST PUSH1 0x0 PUSH1 0x7 PUSH1 0x0 SWAP1 SLOAD SWAP1 PUSH2 0x100 EXP SWAP1 DIV PUSH20 0xFFFFFFFFFFFFFFFFFFFFFFFFFFFFFFFFFFFFFFFF AND SWAP1 POP DUP2 PUSH1 0x7 PUSH1 0x0 PUSH2 0x100 EXP DUP2 SLOAD DUP2 PUSH20 0xFFFFFFFFFFFFFFFFFFFFFFFFFFFFFFFFFFFFFFFF MUL NOT AND SWAP1 DUP4 PUSH20 0xFFFFFFFFFFFFFFFFFFFFFFFFFFFFFFFFFFFFFFFF AND MUL OR SWAP1 SSTORE POP DUP2 PUSH20 0xFFFFFFFFFFFFFFFFFFFFFFFFFFFFFFFFFFFFFFFF AND DUP2 PUSH20 0xFFFFFFFFFFFFFFFFFFFFFFFFFFFFFFFFFFFFFFFF AND PUSH32 0x8BE0079C531659141344CD1FD0A4F28419497F9722A3DAAFE3B4186F6B6457E0 PUSH1 0x40 MLOAD PUSH1 0x40 MLOAD DUP1 SWAP2 SUB SWAP1 LOG3 POP POP JUMP JUMPDEST PUSH1 0x0 DUP1 PUSH3 0x2D5 DUP5 DUP5 PUSH3 0x583 PUSH1 0x20 SHL PUSH1 0x20 SHR JUMP JUMPDEST SWAP1 POP DUP1 ISZERO PUSH3 0x307 JUMPI PUSH3 0x305 DUP4 PUSH1 0x6 PUSH1 0x0 DUP8 DUP2 MSTORE PUSH1 0x20 ADD SWAP1 DUP2 MSTORE PUSH1 0x20 ADD PUSH1 0x0 KECCAK256 PUSH3 0x687 PUSH1 0x20 SHL SWAP1 SWAP2 SWAP1 PUSH1 0x20 SHR JUMP JUMPDEST POP JUMPDEST DUP1 SWAP2 POP POP SWAP3 SWAP2 POP POP JUMP JUMPDEST PUSH1 0x0 PUSH20 0xFFFFFFFFFFFFFFFFFFFFFFFFFFFFFFFFFFFFFFFF AND DUP3 PUSH20 0xFFFFFFFFFFFFFFFFFFFFFFFFFFFFFFFFFFFFFFFF AND SUB PUSH3 0x386 JUMPI PUSH1 0x0 PUSH1 0x40 MLOAD PUSH32 0xEC442F0500000000000000000000000000000000000000000000000000000000 DUP2 MSTORE PUSH1 0x4 ADD PUSH3 0x37D SWAP2 SWAP1 PUSH3 0x117A JUMP JUMPDEST PUSH1 0x40 MLOAD DUP1 SWAP2 SUB SWAP1 REVERT JUMPDEST PUSH3 0x39A PUSH1 0x0 DUP4 DUP4 PUSH3 0x6BF PUSH1 0x20 SHL PUSH1 0x20 SHR JUMP JUMPDEST POP POP JUMP JUMPDEST PUSH3 0x3AE PUSH3 0x8EF PUSH1 0x20 SHL PUSH1 0x20 SHR JUMP JUMPDEST PUSH3 0x3E0 PUSH32 0x9F2DF0FED2C77648DE5860A4CC508CD0818C85B8B8A1AB4CEEEF8D981C8956A6 DUP3 PUSH3 0x991 PUSH1 0x20 SHL PUSH1 0x20 SHR JUMP JUMPDEST PUSH1 0x64 PUSH1 0xD PUSH1 0x0 DUP3 DUP3 SLOAD PUSH3 0x3F5 SWAP2 SWAP1 PUSH3 0x11C6 JUMP JUMPDEST SWAP3 POP POP DUP2 SWAP1 SSTORE POP POP JUMP JUMPDEST PUSH3 0x40F PUSH3 0x8EF PUSH1 0x20 SHL PUSH1 0x20 SHR JUMP JUMPDEST PUSH3 0x441 PUSH32 0x3C11D16CBAFFD01DF69CE1C404F6340EE057498F5F00246190EA54220576A848 DUP3 PUSH3 0x991 PUSH1 0x20 SHL PUSH1 0x20 SHR JUMP JUMPDEST PUSH1 0x64 PUSH1 0xD PUSH1 0x0 DUP3 DUP3 SLOAD PUSH3 0x456 SWAP2 SWAP1 PUSH3 0x11C6 JUMP JUMPDEST SWAP3 POP POP DUP2 SWAP1 SSTORE POP POP JUMP JUMPDEST PUSH3 0x470 PUSH3 0x8EF PUSH1 0x20 SHL PUSH1 0x20 SHR JUMP JUMPDEST PUSH3 0x4A2 PUSH32 0x92DE27771F92D6942691D73358B3A4673E4880DE8356F8F2CF452BE87E02D363 DUP3 PUSH3 0x991 PUSH1 0x20 SHL PUSH1 0x20 SHR JUMP JUMPDEST PUSH1 0x64 PUSH1 0xD PUSH1 0x0 DUP3 DUP3 SLOAD PUSH3 0x4B7 SWAP2 SWAP1 PUSH3 0x11C6 JUMP JUMPDEST SWAP3 POP POP DUP2 SWAP1 SSTORE POP POP JUMP JUMPDEST PUSH3 0x4D1 PUSH3 0x8EF PUSH1 0x20 SHL PUSH1 0x20 SHR JUMP JUMPDEST PUSH3 0x503 PUSH32 0xF988E4FB62B8E14F4820FED03192306DDF4D7DBFA215595BA1C6BA4B76B369EE DUP3 PUSH3 0x991 PUSH1 0x20 SHL PUSH1 0x20 SHR JUMP JUMPDEST PUSH1 0x64 PUSH1 0xD PUSH1 0x0 DUP3 DUP3 SLOAD PUSH3 0x518 SWAP2 SWAP1 PUSH3 0x11C6 JUMP JUMPDEST SWAP3 POP POP DUP2 SWAP1 SSTORE POP POP JUMP JUMPDEST PUSH3 0x532 PUSH3 0x8EF PUSH1 0x20 SHL PUSH1 0x20 SHR JUMP JUMPDEST PUSH3 0x564 PUSH32 0x62B337EAEFEC74DADF1A62E856BF9DB4F14A0F27D4F48156A95A9F98E7D5E066 DUP3 PUSH3 0x991 PUSH1 0x20 SHL PUSH1 0x20 SHR JUMP JUMPDEST PUSH1 0x64 PUSH1 0xD PUSH1 0x0 DUP3 DUP3 SLOAD PUSH3 0x579 SWAP2 SWAP1 PUSH3 0x11C6 JUMP JUMPDEST SWAP3 POP POP DUP2 SWAP1 SSTORE POP POP JUMP JUMPDEST PUSH1 0x0 PUSH3 0x597 DUP4 DUP4 PUSH3 0x9CB PUSH1 0x20 SHL PUSH1 0x20 SHR JUMP JUMPDEST PUSH3 0x67C JUMPI PUSH1 0x1 PUSH1 0x5 PUSH1 0x0 DUP6 DUP2 MSTORE PUSH1 0x20 ADD SWAP1 DUP2 MSTORE PUSH1 0x20 ADD PUSH1 0x0 KECCAK256 PUSH1 0x0 ADD PUSH1 0x0 DUP5 PUSH20 0xFFFFFFFFFFFFFFFFFFFFFFFFFFFFFFFFFFFFFFFF AND PUSH20 0xFFFFFFFFFFFFFFFFFFFFFFFFFFFFFFFFFFFFFFFF AND DUP2 MSTORE PUSH1 0x20 ADD SWAP1 DUP2 MSTORE PUSH1 0x20 ADD PUSH1 0x0 KECCAK256 PUSH1 0x0 PUSH2 0x100 EXP DUP2 SLOAD DUP2 PUSH1 0xFF MUL NOT AND SWAP1 DUP4 ISZERO ISZERO MUL OR SWAP1 SSTORE POP PUSH3 0x618 PUSH3 0xA36 PUSH1 0x20 SHL PUSH1 0x20 SHR JUMP JUMPDEST PUSH20 0xFFFFFFFFFFFFFFFFFFFFFFFFFFFFFFFFFFFFFFFF AND DUP3 PUSH20 0xFFFFFFFFFFFFFFFFFFFFFFFFFFFFFFFFFFFFFFFF AND DUP5 PUSH32 0x2F8788117E7EFF1D82E926EC794901D17C78024A50270940304540A733656F0D PUSH1 0x40 MLOAD PUSH1 0x40 MLOAD DUP1 SWAP2 SUB SWAP1 LOG4 PUSH1 0x1 SWAP1 POP PUSH3 0x681 JUMP JUMPDEST PUSH1 0x0 SWAP1 POP JUMPDEST SWAP3 SWAP2 POP POP JUMP JUMPDEST PUSH1 0x0 PUSH3 0x6B7 DUP4 PUSH1 0x0 ADD DUP4 PUSH20 0xFFFFFFFFFFFFFFFFFFFFFFFFFFFFFFFFFFFFFFFF AND PUSH1 0x0 SHL PUSH3 0xA3E PUSH1 0x20 SHL PUSH1 0x20 SHR JUMP JUMPDEST SWAP1 POP SWAP3 SWAP2 POP POP JUMP JUMPDEST PUSH1 0x0 PUSH20 0xFFFFFFFFFFFFFFFFFFFFFFFFFFFFFFFFFFFFFFFF AND DUP4 PUSH20 0xFFFFFFFFFFFFFFFFFFFFFFFFFFFFFFFFFFFFFFFF AND SUB PUSH3 0x715 JUMPI DUP1 PUSH1 0x2 PUSH1 0x0 DUP3 DUP3 SLOAD PUSH3 0x708 SWAP2 SWAP1 PUSH3 0x11C6 JUMP JUMPDEST SWAP3 POP POP DUP2 SWAP1 SSTORE POP PUSH3 0x7EB JUMP JUMPDEST PUSH1 0x0 DUP1 PUSH1 0x0 DUP6 PUSH20 0xFFFFFFFFFFFFFFFFFFFFFFFFFFFFFFFFFFFFFFFF AND PUSH20 0xFFFFFFFFFFFFFFFFFFFFFFFFFFFFFFFFFFFFFFFF AND DUP2 MSTORE PUSH1 0x20 ADD SWAP1 DUP2 MSTORE PUSH1 0x20 ADD PUSH1 0x0 KECCAK256 SLOAD SWAP1 POP DUP2 DUP2 LT ISZERO PUSH3 0x7A4 JUMPI DUP4 DUP2 DUP4 PUSH1 0x40 MLOAD PUSH32 0xE450D38C00000000000000000000000000000000000000000000000000000000 DUP2 MSTORE PUSH1 0x4 ADD PUSH3 0x79B SWAP4 SWAP3 SWAP2 SWAP1 PUSH3 0x1212 JUMP JUMPDEST PUSH1 0x40 MLOAD DUP1 SWAP2 SUB SWAP1 REVERT JUMPDEST DUP2 DUP2 SUB PUSH1 0x0 DUP1 DUP7 PUSH20 0xFFFFFFFFFFFFFFFFFFFFFFFFFFFFFFFFFFFFFFFF AND PUSH20 0xFFFFFFFFFFFFFFFFFFFFFFFFFFFFFFFFFFFFFFFF AND DUP2 MSTORE PUSH1 0x20 ADD SWAP1 DUP2 MSTORE PUSH1 0x20 ADD PUSH1 0x0 KECCAK256 DUP2 SWAP1 SSTORE POP POP JUMPDEST PUSH1 0x0 PUSH20 0xFFFFFFFFFFFFFFFFFFFFFFFFFFFFFFFFFFFFFFFF AND DUP3 PUSH20 0xFFFFFFFFFFFFFFFFFFFFFFFFFFFFFFFFFFFFFFFF AND SUB PUSH3 0x836 JUMPI DUP1 PUSH1 0x2 PUSH1 0x0 DUP3 DUP3 SLOAD SUB SWAP3 POP POP DUP2 SWAP1 SSTORE POP PUSH3 0x883 JUMP JUMPDEST DUP1 PUSH1 0x0 DUP1 DUP5 PUSH20 0xFFFFFFFFFFFFFFFFFFFFFFFFFFFFFFFFFFFFFFFF AND PUSH20 0xFFFFFFFFFFFFFFFFFFFFFFFFFFFFFFFFFFFFFFFF AND DUP2 MSTORE PUSH1 0x20 ADD SWAP1 DUP2 MSTORE PUSH1 0x20 ADD PUSH1 0x0 KECCAK256 PUSH1 0x0 DUP3 DUP3 SLOAD ADD SWAP3 POP POP DUP2 SWAP1 SSTORE POP JUMPDEST DUP2 PUSH20 0xFFFFFFFFFFFFFFFFFFFFFFFFFFFFFFFFFFFFFFFF AND DUP4 PUSH20 0xFFFFFFFFFFFFFFFFFFFFFFFFFFFFFFFFFFFFFFFF AND PUSH32 0xDDF252AD1BE2C89B69C2B068FC378DAA952BA7F163C4A11628F55A4DF523B3EF DUP4 PUSH1 0x40 MLOAD PUSH3 0x8E2 SWAP2 SWAP1 PUSH3 0x124F JUMP JUMPDEST PUSH1 0x40 MLOAD DUP1 SWAP2 SUB SWAP1 LOG3 POP POP POP JUMP JUMPDEST PUSH3 0x8FF PUSH3 0xA36 PUSH1 0x20 SHL PUSH1 0x20 SHR JUMP JUMPDEST PUSH20 0xFFFFFFFFFFFFFFFFFFFFFFFFFFFFFFFFFFFFFFFF AND PUSH3 0x925 PUSH3 0xAB8 PUSH1 0x20 SHL PUSH1 0x20 SHR JUMP JUMPDEST PUSH20 0xFFFFFFFFFFFFFFFFFFFFFFFFFFFFFFFFFFFFFFFF AND EQ PUSH3 0x98F JUMPI PUSH3 0x951 PUSH3 0xA36 PUSH1 0x20 SHL PUSH1 0x20 SHR JUMP JUMPDEST PUSH1 0x40 MLOAD PUSH32 0x118CDAA700000000000000000000000000000000000000000000000000000000 DUP2 MSTORE PUSH1 0x4 ADD PUSH3 0x986 SWAP2 SWAP1 PUSH3 0x117A JUMP JUMPDEST PUSH1 0x40 MLOAD DUP1 SWAP2 SUB SWAP1 REVERT JUMPDEST JUMP JUMPDEST PUSH3 0x9A2 DUP3 PUSH3 0xAE2 PUSH1 0x20 SHL PUSH1 0x20 SHR JUMP JUMPDEST PUSH3 0x9B3 DUP2 PUSH3 0xB02 PUSH1 0x20 SHL PUSH1 0x20 SHR JUMP JUMPDEST PUSH3 0x9C5 DUP4 DUP4 PUSH3 0x2C0 PUSH1 0x20 SHL PUSH1 0x20 SHR JUMP JUMPDEST POP POP POP POP JUMP JUMPDEST PUSH1 0x0 PUSH1 0x5 PUSH1 0x0 DUP5 DUP2 MSTORE PUSH1 0x20 ADD SWAP1 DUP2 MSTORE PUSH1 0x20 ADD PUSH1 0x0 KECCAK256 PUSH1 0x0 ADD PUSH1 0x0 DUP4 PUSH20 0xFFFFFFFFFFFFFFFFFFFFFFFFFFFFFFFFFFFFFFFF AND PUSH20 0xFFFFFFFFFFFFFFFFFFFFFFFFFFFFFFFFFFFFFFFF AND DUP2 MSTORE PUSH1 0x20 ADD SWAP1 DUP2 MSTORE PUSH1 0x20 ADD PUSH1 0x0 KECCAK256 PUSH1 0x0 SWAP1 SLOAD SWAP1 PUSH2 0x100 EXP SWAP1 DIV PUSH1 0xFF AND SWAP1 POP SWAP3 SWAP2 POP POP JUMP JUMPDEST PUSH1 0x0 CALLER SWAP1 POP SWAP1 JUMP JUMPDEST PUSH1 0x0 PUSH3 0xA52 DUP4 DUP4 PUSH3 0xB26 PUSH1 0x20 SHL PUSH1 0x20 SHR JUMP JUMPDEST PUSH3 0xAAD JUMPI DUP3 PUSH1 0x0 ADD DUP3 SWAP1 DUP1 PUSH1 0x1 DUP2 SLOAD ADD DUP1 DUP3 SSTORE DUP1 SWAP2 POP POP PUSH1 0x1 SWAP1 SUB SWAP1 PUSH1 0x0 MSTORE PUSH1 0x20 PUSH1 0x0 KECCAK256 ADD PUSH1 0x0 SWAP1 SWAP2 SWAP1 SWAP2 SWAP1 SWAP2 POP SSTORE DUP3 PUSH1 0x0 ADD DUP1 SLOAD SWAP1 POP DUP4 PUSH1 0x1 ADD PUSH1 0x0 DUP5 DUP2 MSTORE PUSH1 0x20 ADD SWAP1 DUP2 MSTORE PUSH1 0x20 ADD PUSH1 0x0 KECCAK256 DUP2 SWAP1 SSTORE POP PUSH1 0x1 SWAP1 POP PUSH3 0xAB2 JUMP JUMPDEST PUSH1 0x0 SWAP1 POP JUMPDEST SWAP3 SWAP2 POP POP JUMP JUMPDEST PUSH1 0x0 PUSH1 0x7 PUSH1 0x0 SWAP1 SLOAD SWAP1 PUSH2 0x100 EXP SWAP1 DIV PUSH20 0xFFFFFFFFFFFFFFFFFFFFFFFFFFFFFFFFFFFFFFFF AND SWAP1 POP SWAP1 JUMP JUMPDEST PUSH1 0x0 PUSH1 0x5 PUSH1 0x0 DUP4 DUP2 MSTORE PUSH1 0x20 ADD SWAP1 DUP2 MSTORE PUSH1 0x20 ADD PUSH1 0x0 KECCAK256 PUSH1 0x1 ADD SLOAD SWAP1 POP SWAP2 SWAP1 POP JUMP JUMPDEST PUSH3 0xB23 DUP2 PUSH3 0xB17 PUSH3 0xA36 PUSH1 0x20 SHL PUSH1 0x20 SHR JUMP JUMPDEST PUSH3 0xB49 PUSH1 0x20 SHL PUSH1 0x20 SHR JUMP JUMPDEST POP JUMP JUMPDEST PUSH1 0x0 DUP1 DUP4 PUSH1 0x1 ADD PUSH1 0x0 DUP5 DUP2 MSTORE PUSH1 0x20 ADD SWAP1 DUP2 MSTORE PUSH1 0x20 ADD PUSH1 0x0 KECCAK256 SLOAD EQ ISZERO SWAP1 POP SWAP3 SWAP2 POP POP JUMP JUMPDEST PUSH3 0xB5B DUP3 DUP3 PUSH3 0x9CB PUSH1 0x20 SHL PUSH1 0x20 SHR JUMP JUMPDEST PUSH3 0xBA1 JUMPI DUP1 DUP3 PUSH1 0x40 MLOAD PUSH32 0xE2517D3F00000000000000000000000000000000000000000000000000000000 DUP2 MSTORE PUSH1 0x4 ADD PUSH3 0xB98 SWAP3 SWAP2 SWAP1 PUSH3 0x1287 JUMP JUMPDEST PUSH1 0x40 MLOAD DUP1 SWAP2 SUB SWAP1 REVERT JUMPDEST POP POP JUMP JUMPDEST PUSH1 0x0 PUSH1 0x40 MLOAD SWAP1 POP SWAP1 JUMP JUMPDEST PUSH1 0x0 DUP1 REVERT JUMPDEST PUSH1 0x0 DUP1 REVERT JUMPDEST PUSH1 0x0 DUP1 REVERT JUMPDEST PUSH1 0x0 DUP1 REVERT JUMPDEST PUSH1 0x0 PUSH1 0x1F NOT PUSH1 0x1F DUP4 ADD AND SWAP1 POP SWAP2 SWAP1 POP JUMP JUMPDEST PUSH32 0x4E487B7100000000000000000000000000000000000000000000000000000000 PUSH1 0x0 MSTORE PUSH1 0x41 PUSH1 0x4 MSTORE PUSH1 0x24 PUSH1 0x0 REVERT JUMPDEST PUSH3 0xC0E DUP3 PUSH3 0xBC3 JUMP JUMPDEST DUP2 ADD DUP2 DUP2 LT PUSH8 0xFFFFFFFFFFFFFFFF DUP3 GT OR ISZERO PUSH3 0xC30 JUMPI PUSH3 0xC2F PUSH3 0xBD4 JUMP JUMPDEST JUMPDEST DUP1 PUSH1 0x40 MSTORE POP POP POP JUMP JUMPDEST PUSH1 0x0 PUSH3 0xC45 PUSH3 0xBA5 JUMP JUMPDEST SWAP1 POP PUSH3 0xC53 DUP3 DUP3 PUSH3 0xC03 JUMP JUMPDEST SWAP2 SWAP1 POP JUMP JUMPDEST PUSH1 0x0 PUSH8 0xFFFFFFFFFFFFFFFF DUP3 GT ISZERO PUSH3 0xC76 JUMPI PUSH3 0xC75 PUSH3 0xBD4 JUMP JUMPDEST JUMPDEST PUSH3 0xC81 DUP3 PUSH3 0xBC3 JUMP JUMPDEST SWAP1 POP PUSH1 0x20 DUP2 ADD SWAP1 POP SWAP2 SWAP1 POP JUMP JUMPDEST PUSH1 0x0 JUMPDEST DUP4 DUP2 LT ISZERO PUSH3 0xCAE JUMPI DUP1 DUP3 ADD MLOAD DUP2 DUP5 ADD MSTORE PUSH1 0x20 DUP2 ADD SWAP1 POP PUSH3 0xC91 JUMP JUMPDEST PUSH1 0x0 DUP5 DUP5 ADD MSTORE POP POP POP POP JUMP JUMPDEST PUSH1 0x0 PUSH3 0xCD1 PUSH3 0xCCB DUP5 PUSH3 0xC58 JUMP JUMPDEST PUSH3 0xC39 JUMP JUMPDEST SWAP1 POP DUP3 DUP2 MSTORE PUSH1 0x20 DUP2 ADD DUP5 DUP5 DUP5 ADD GT ISZERO PUSH3 0xCF0 JUMPI PUSH3 0xCEF PUSH3 0xBBE JUMP JUMPDEST JUMPDEST PUSH3 0xCFD DUP5 DUP3 DUP6 PUSH3 0xC8E JUMP JUMPDEST POP SWAP4 SWAP3 POP POP POP JUMP JUMPDEST PUSH1 0x0 DUP3 PUSH1 0x1F DUP4 ADD SLT PUSH3 0xD1D JUMPI PUSH3 0xD1C PUSH3 0xBB9 JUMP JUMPDEST JUMPDEST DUP2 MLOAD PUSH3 0xD2F DUP5 DUP3 PUSH1 0x20 DUP7 ADD PUSH3 0xCBA JUMP JUMPDEST SWAP2 POP POP SWAP3 SWAP2 POP POP JUMP JUMPDEST PUSH1 0x0 DUP2 SWAP1 POP SWAP2 SWAP1 POP JUMP JUMPDEST PUSH3 0xD4D DUP2 PUSH3 0xD38 JUMP JUMPDEST DUP2 EQ PUSH3 0xD59 JUMPI PUSH1 0x0 DUP1 REVERT JUMPDEST POP JUMP JUMPDEST PUSH1 0x0 DUP2 MLOAD SWAP1 POP PUSH3 0xD6D DUP2 PUSH3 0xD42 JUMP JUMPDEST SWAP3 SWAP2 POP POP JUMP JUMPDEST PUSH1 0x0 DUP1 PUSH1 0x0 PUSH1 0x60 DUP5 DUP7 SUB SLT ISZERO PUSH3 0xD8F JUMPI PUSH3 0xD8E PUSH3 0xBAF JUMP JUMPDEST JUMPDEST PUSH1 0x0 DUP5 ADD MLOAD PUSH8 0xFFFFFFFFFFFFFFFF DUP2 GT ISZERO PUSH3 0xDB0 JUMPI PUSH3 0xDAF PUSH3 0xBB4 JUMP JUMPDEST JUMPDEST PUSH3 0xDBE DUP7 DUP3 DUP8 ADD PUSH3 0xD05 JUMP JUMPDEST SWAP4 POP POP PUSH1 0x20 DUP5 ADD MLOAD PUSH8 0xFFFFFFFFFFFFFFFF DUP2 GT ISZERO PUSH3 0xDE2 JUMPI PUSH3 0xDE1 PUSH3 0xBB4 JUMP JUMPDEST JUMPDEST PUSH3 0xDF0 DUP7 DUP3 DUP8 ADD PUSH3 0xD05 JUMP JUMPDEST SWAP3 POP POP PUSH1 0x40 PUSH3 0xE03 DUP7 DUP3 DUP8 ADD PUSH3 0xD5C JUMP JUMPDEST SWAP2 POP POP SWAP3 POP SWAP3 POP SWAP3 JUMP JUMPDEST PUSH1 0x0 DUP2 MLOAD SWAP1 POP SWAP2 SWAP1 POP JUMP JUMPDEST PUSH32 0x4E487B7100000000000000000000000000000000000000000000000000000000 PUSH1 0x0 MSTORE PUSH1 0x22 PUSH1 0x4 MSTORE PUSH1 0x24 PUSH1 0x0 REVERT JUMPDEST PUSH1 0x0 PUSH1 0x2 DUP3 DIV SWAP1 POP PUSH1 0x1 DUP3 AND DUP1 PUSH3 0xE60 JUMPI PUSH1 0x7F DUP3 AND SWAP2 POP JUMPDEST PUSH1 0x20 DUP3 LT DUP2 SUB PUSH3 0xE76 JUMPI PUSH3 0xE75 PUSH3 0xE18 JUMP JUMPDEST JUMPDEST POP SWAP2 SWAP1 POP JUMP JUMPDEST PUSH1 0x0 DUP2 SWAP1 POP DUP2 PUSH1 0x0 MSTORE PUSH1 0x20 PUSH1 0x0 KECCAK256 SWAP1 POP SWAP2 SWAP1 POP JUMP JUMPDEST PUSH1 0x0 PUSH1 0x20 PUSH1 0x1F DUP4 ADD DIV SWAP1 POP SWAP2 SWAP1 POP JUMP JUMPDEST PUSH1 0x0 DUP3 DUP3 SHL SWAP1 POP SWAP3 SWAP2 POP POP JUMP JUMPDEST PUSH1 0x0 PUSH1 0x8 DUP4 MUL PUSH3 0xEE0 PUSH32 0xFFFFFFFFFFFFFFFFFFFFFFFFFFFFFFFFFFFFFFFFFFFFFFFFFFFFFFFFFFFFFFFF DUP3 PUSH3 0xEA1 JUMP JUMPDEST PUSH3 0xEEC DUP7 DUP4 PUSH3 0xEA1 JUMP JUMPDEST SWAP6 POP DUP1 NOT DUP5 AND SWAP4 POP DUP1 DUP7 AND DUP5 OR SWAP3 POP POP POP SWAP4 SWAP3 POP POP POP JUMP JUMPDEST PUSH1 0x0 DUP2 SWAP1 POP SWAP2 SWAP1 POP JUMP JUMPDEST PUSH1 0x0 PUSH3 0xF2F PUSH3 0xF29 PUSH3 0xF23 DUP5 PUSH3 0xD38 JUMP JUMPDEST PUSH3 0xF04 JUMP JUMPDEST PUSH3 0xD38 JUMP JUMPDEST SWAP1 POP SWAP2 SWAP1 POP JUMP JUMPDEST PUSH1 0x0 DUP2 SWAP1 POP SWAP2 SWAP1 POP JUMP JUMPDEST PUSH3 0xF4B DUP4 PUSH3 0xF0E JUMP JUMPDEST PUSH3 0xF63 PUSH3 0xF5A DUP3 PUSH3 0xF36 JUMP JUMPDEST DUP5 DUP5 SLOAD PUSH3 0xEAE JUMP JUMPDEST DUP3 SSTORE POP POP POP POP JUMP JUMPDEST PUSH1 0x0 SWAP1 JUMP JUMPDEST PUSH3 0xF7A PUSH3 0xF6B JUMP JUMPDEST PUSH3 0xF87 DUP2 DUP5 DUP5 PUSH3 0xF40 JUMP JUMPDEST POP POP POP JUMP JUMPDEST JUMPDEST DUP2 DUP2 LT ISZERO PUSH3 0xFAF JUMPI PUSH3 0xFA3 PUSH1 0x0 DUP3 PUSH3 0xF70 JUMP JUMPDEST PUSH1 0x1 DUP2 ADD SWAP1 POP PUSH3 0xF8D JUMP JUMPDEST POP POP JUMP JUMPDEST PUSH1 0x1F DUP3 GT ISZERO PUSH3 0xFFE JUMPI PUSH3 0xFC8 DUP2 PUSH3 0xE7C JUMP JUMPDEST PUSH3 0xFD3 DUP5 PUSH3 0xE91 JUMP JUMPDEST DUP2 ADD PUSH1 0x20 DUP6 LT ISZERO PUSH3 0xFE3 JUMPI DUP2 SWAP1 POP JUMPDEST PUSH3 0xFFB PUSH3 0xFF2 DUP6 PUSH3 0xE91 JUMP JUMPDEST DUP4 ADD DUP3 PUSH3 0xF8C JUMP JUMPDEST POP POP JUMPDEST POP POP POP JUMP JUMPDEST PUSH1 0x0 DUP3 DUP3 SHR SWAP1 POP SWAP3 SWAP2 POP POP JUMP JUMPDEST PUSH1 0x0 PUSH3 0x1023 PUSH1 0x0 NOT DUP5 PUSH1 0x8 MUL PUSH3 0x1003 JUMP JUMPDEST NOT DUP1 DUP4 AND SWAP2 POP POP SWAP3 SWAP2 POP POP JUMP JUMPDEST PUSH1 0x0 PUSH3 0x103E DUP4 DUP4 PUSH3 0x1010 JUMP JUMPDEST SWAP2 POP DUP3 PUSH1 0x2 MUL DUP3 OR SWAP1 POP SWAP3 SWAP2 POP POP JUMP JUMPDEST PUSH3 0x1059 DUP3 PUSH3 0xE0D JUMP JUMPDEST PUSH8 0xFFFFFFFFFFFFFFFF DUP2 GT ISZERO PUSH3 0x1075 JUMPI PUSH3 0x1074 PUSH3 0xBD4 JUMP JUMPDEST JUMPDEST PUSH3 0x1081 DUP3 SLOAD PUSH3 0xE47 JUMP JUMPDEST PUSH3 0x108E DUP3 DUP3 DUP6 PUSH3 0xFB3 JUMP JUMPDEST PUSH1 0x0 PUSH1 0x20 SWAP1 POP PUSH1 0x1F DUP4 GT PUSH1 0x1 DUP2 EQ PUSH3 0x10C6 JUMPI PUSH1 0x0 DUP5 ISZERO PUSH3 0x10B1 JUMPI DUP3 DUP8 ADD MLOAD SWAP1 POP JUMPDEST PUSH3 0x10BD DUP6 DUP3 PUSH3 0x1030 JUMP JUMPDEST DUP7 SSTORE POP PUSH3 0x112D JUMP JUMPDEST PUSH1 0x1F NOT DUP5 AND PUSH3 0x10D6 DUP7 PUSH3 0xE7C JUMP JUMPDEST PUSH1 0x0 JUMPDEST DUP3 DUP2 LT ISZERO PUSH3 0x1100 JUMPI DUP5 DUP10 ADD MLOAD DUP3 SSTORE PUSH1 0x1 DUP3 ADD SWAP2 POP PUSH1 0x20 DUP6 ADD SWAP5 POP PUSH1 0x20 DUP2 ADD SWAP1 POP PUSH3 0x10D9 JUMP JUMPDEST DUP7 DUP4 LT ISZERO PUSH3 0x1120 JUMPI DUP5 DUP10 ADD MLOAD PUSH3 0x111C PUSH1 0x1F DUP10 AND DUP3 PUSH3 0x1010 JUMP JUMPDEST DUP4 SSTORE POP JUMPDEST PUSH1 0x1 PUSH1 0x2 DUP9 MUL ADD DUP9 SSTORE POP POP POP JUMPDEST POP POP POP POP POP POP JUMP JUMPDEST PUSH1 0x0 PUSH20 0xFFFFFFFFFFFFFFFFFFFFFFFFFFFFFFFFFFFFFFFF DUP3 AND SWAP1 POP SWAP2 SWAP1 POP JUMP JUMPDEST PUSH1 0x0 PUSH3 0x1162 DUP3 PUSH3 0x1135 JUMP JUMPDEST SWAP1 POP SWAP2 SWAP1 POP JUMP JUMPDEST PUSH3 0x1174 DUP2 PUSH3 0x1155 JUMP JUMPDEST DUP3 MSTORE POP POP JUMP JUMPDEST PUSH1 0x0 PUSH1 0x20 DUP3 ADD SWAP1 POP PUSH3 0x1191 PUSH1 0x0 DUP4 ADD DUP5 PUSH3 0x1169 JUMP JUMPDEST SWAP3 SWAP2 POP POP JUMP JUMPDEST PUSH32 0x4E487B7100000000000000000000000000000000000000000000000000000000 PUSH1 0x0 MSTORE PUSH1 0x11 PUSH1 0x4 MSTORE PUSH1 0x24 PUSH1 0x0 REVERT JUMPDEST PUSH1 0x0 PUSH3 0x11D3 DUP3 PUSH3 0xD38 JUMP JUMPDEST SWAP2 POP PUSH3 0x11E0 DUP4 PUSH3 0xD38 JUMP JUMPDEST SWAP3 POP DUP3 DUP3 ADD SWAP1 POP DUP1 DUP3 GT ISZERO PUSH3 0x11FB JUMPI PUSH3 0x11FA PUSH3 0x1197 JUMP JUMPDEST JUMPDEST SWAP3 SWAP2 POP POP JUMP JUMPDEST PUSH3 0x120C DUP2 PUSH3 0xD38 JUMP JUMPDEST DUP3 MSTORE POP POP JUMP JUMPDEST PUSH1 0x0 PUSH1 0x60 DUP3 ADD SWAP1 POP PUSH3 0x1229 PUSH1 0x0 DUP4 ADD DUP7 PUSH3 0x1169 JUMP JUMPDEST PUSH3 0x1238 PUSH1 0x20 DUP4 ADD DUP6 PUSH3 0x1201 JUMP JUMPDEST PUSH3 0x1247 PUSH1 0x40 DUP4 ADD DUP5 PUSH3 0x1201 JUMP JUMPDEST SWAP5 SWAP4 POP POP POP POP JUMP JUMPDEST PUSH1 0x0 PUSH1 0x20 DUP3 ADD SWAP1 POP PUSH3 0x1266 PUSH1 0x0 DUP4 ADD DUP5 PUSH3 0x1201 JUMP JUMPDEST SWAP3 SWAP2 POP POP JUMP JUMPDEST PUSH1 0x0 DUP2 SWAP1 POP SWAP2 SWAP1 POP JUMP JUMPDEST PUSH3 0x1281 DUP2 PUSH3 0x126C JUMP JUMPDEST DUP3 MSTORE POP POP JUMP JUMPDEST PUSH1 0x0 PUSH1 0x40 DUP3 ADD SWAP1 POP PUSH3 0x129E PUSH1 0x0 DUP4 ADD DUP6 PUSH3 0x1169 JUMP JUMPDEST PUSH3 0x12AD PUSH1 0x20 DUP4 ADD DUP5 PUSH3 0x1276 JUMP JUMPDEST SWAP4 SWAP3 POP POP POP JUMP JUMPDEST PUSH2 0x37FA DUP1 PUSH3 0x12C4 PUSH1 0x0 CODECOPY PUSH1 0x0 RETURN INVALID PUSH1 0x80 PUSH1 0x40 MSTORE CALLVALUE DUP1 ISZERO PUSH2 0x10 JUMPI PUSH1 0x0 DUP1 REVERT JUMPDEST POP PUSH1 0x4 CALLDATASIZE LT PUSH2 0x378 JUMPI PUSH1 0x0 CALLDATALOAD PUSH1 0xE0 SHR DUP1 PUSH4 0x788649EA GT PUSH2 0x1D3 JUMPI DUP1 PUSH4 0xA217FDDF GT PUSH2 0x104 JUMPI DUP1 PUSH4 0xD547741F GT PUSH2 0xA2 JUMPI DUP1 PUSH4 0xF1F2E51C GT PUSH2 0x7C JUMPI DUP1 PUSH4 0xF1F2E51C EQ PUSH2 0x9E5 JUMPI DUP1 PUSH4 0xF26C159F EQ PUSH2 0x9EF JUMPI DUP1 PUSH4 0xF2FDE38B EQ PUSH2 0xA0B JUMPI DUP1 PUSH4 0xF44637BA EQ PUSH2 0xA27 JUMPI PUSH2 0x378 JUMP JUMPDEST DUP1 PUSH4 0xD547741F EQ PUSH2 0x97B JUMPI DUP1 PUSH4 0xD7241144 EQ PUSH2 0x997 JUMPI DUP1 PUSH4 0xDD62ED3E EQ PUSH2 0x9B5 JUMPI PUSH2 0x378 JUMP JUMPDEST DUP1 PUSH4 0xC2134B23 GT PUSH2 0xDE JUMPI DUP1 PUSH4 0xC2134B23 EQ PUSH2 0x8F5 JUMPI DUP1 PUSH4 0xCA15C873 EQ PUSH2 0x911 JUMPI DUP1 PUSH4 0xD1C2DE0A EQ PUSH2 0x941 JUMPI DUP1 PUSH4 0xD5391393 EQ PUSH2 0x95D JUMPI PUSH2 0x378 JUMP JUMPDEST DUP1 PUSH4 0xA217FDDF EQ PUSH2 0x889 JUMPI DUP1 PUSH4 0xA9059CBB EQ PUSH2 0x8A7 JUMPI DUP1 PUSH4 0xB319031C EQ PUSH2 0x8D7 JUMPI PUSH2 0x378 JUMP JUMPDEST DUP1 PUSH4 0x91D14854 GT PUSH2 0x171 JUMPI DUP1 PUSH4 0x974B368C GT PUSH2 0x14B JUMPI DUP1 PUSH4 0x974B368C EQ PUSH2 0x805 JUMPI DUP1 PUSH4 0x983B2D56 EQ PUSH2 0x821 JUMPI DUP1 PUSH4 0x9DC29FAC EQ PUSH2 0x83D JUMPI DUP1 PUSH4 0xA04A85C0 EQ PUSH2 0x859 JUMPI PUSH2 0x378 JUMP JUMPDEST DUP1 PUSH4 0x91D14854 EQ PUSH2 0x799 JUMPI DUP1 PUSH4 0x939BCBC9 EQ PUSH2 0x7C9 JUMPI DUP1 PUSH4 0x95D89B41 EQ PUSH2 0x7E7 JUMPI PUSH2 0x378 JUMP JUMPDEST DUP1 PUSH4 0x883356D9 GT PUSH2 0x1AD JUMPI DUP1 PUSH4 0x883356D9 EQ PUSH2 0x723 JUMPI DUP1 PUSH4 0x8DA5CB5B EQ PUSH2 0x741 JUMPI DUP1 PUSH4 0x9010D07C EQ PUSH2 0x75F JUMPI DUP1 PUSH4 0x9140052B EQ PUSH2 0x78F JUMPI PUSH2 0x378 JUMP JUMPDEST DUP1 PUSH4 0x788649EA EQ PUSH2 0x6F3 JUMPI DUP1 PUSH4 0x7C202FC9 EQ PUSH2 0x70F JUMPI DUP1 PUSH4 0x805A9D5A EQ PUSH2 0x719 JUMPI PUSH2 0x378 JUMP JUMPDEST DUP1 PUSH4 0x3092AFD5 GT PUSH2 0x2AD JUMPI DUP1 PUSH4 0x46B45AF7 GT PUSH2 0x24B JUMPI DUP1 PUSH4 0x585212FB GT PUSH2 0x225 JUMPI DUP1 PUSH4 0x585212FB EQ PUSH2 0x67F JUMPI DUP1 PUSH4 0x70A08231 EQ PUSH2 0x689 JUMPI DUP1 PUSH4 0x715018A6 EQ PUSH2 0x6B9 JUMPI DUP1 PUSH4 0x71FB7493 EQ PUSH2 0x6C3 JUMPI PUSH2 0x378 JUMP JUMPDEST DUP1 PUSH4 0x46B45AF7 EQ PUSH2 0x629 JUMPI DUP1 PUSH4 0x526606C9 EQ PUSH2 0x647 JUMPI DUP1 PUSH4 0x537DF3B6 EQ PUSH2 0x663 JUMPI PUSH2 0x378 JUMP JUMPDEST DUP1 PUSH4 0x38FDD650 GT PUSH2 0x287 JUMPI DUP1 PUSH4 0x38FDD650 EQ PUSH2 0x5B5 JUMPI DUP1 PUSH4 0x40C10F19 EQ PUSH2 0x5D3 JUMPI DUP1 PUSH4 0x410B2424 EQ PUSH2 0x5EF JUMPI DUP1 PUSH4 0x44337EA1 EQ PUSH2 0x60D JUMPI PUSH2 0x378 JUMP JUMPDEST DUP1 PUSH4 0x3092AFD5 EQ PUSH2 0x55F JUMPI DUP1 PUSH4 0x313CE567 EQ PUSH2 0x57B JUMPI DUP1 PUSH4 0x36568ABE EQ PUSH2 0x599 JUMPI PUSH2 0x378 JUMP JUMPDEST DUP1 PUSH4 0x1BE6DD64 GT PUSH2 0x31A JUMPI DUP1 PUSH4 0x248A9CA3 GT PUSH2 0x2F4 JUMPI DUP1 PUSH4 0x248A9CA3 EQ PUSH2 0x4D9 JUMPI DUP1 PUSH4 0x282C51F3 EQ PUSH2 0x509 JUMPI DUP1 PUSH4 0x2ACD2000 EQ PUSH2 0x527 JUMPI DUP1 PUSH4 0x2F2FF15D EQ PUSH2 0x543 JUMPI PUSH2 0x378 JUMP JUMPDEST DUP1 PUSH4 0x1BE6DD64 EQ PUSH2 0x46F JUMPI DUP1 PUSH4 0x1EC82CB8 EQ PUSH2 0x48D JUMPI DUP1 PUSH4 0x23B872DD EQ PUSH2 0x4A9 JUMPI PUSH2 0x378 JUMP JUMPDEST DUP1 PUSH4 0x6FDDE03 GT PUSH2 0x356 JUMPI DUP1 PUSH4 0x6FDDE03 EQ PUSH2 0x3E7 JUMPI DUP1 PUSH4 0x95EA7B3 EQ PUSH2 0x405 JUMPI DUP1 PUSH4 0xEFF2AFC EQ PUSH2 0x435 JUMPI DUP1 PUSH4 0x18160DDD EQ PUSH2 0x451 JUMPI PUSH2 0x378 JUMP JUMPDEST DUP1 PUSH4 0x1FFC9A7 EQ PUSH2 0x37D JUMPI DUP1 PUSH4 0x2846858 EQ PUSH2 0x3AD JUMPI DUP1 PUSH4 0x6A85F0F EQ PUSH2 0x3C9 JUMPI JUMPDEST PUSH1 0x0 DUP1 REVERT JUMPDEST PUSH2 0x397 PUSH1 0x4 DUP1 CALLDATASIZE SUB DUP2 ADD SWAP1 PUSH2 0x392 SWAP2 SWAP1 PUSH2 0x2CBE JUMP JUMPDEST PUSH2 0xA43 JUMP JUMPDEST PUSH1 0x40 MLOAD PUSH2 0x3A4 SWAP2 SWAP1 PUSH2 0x2D06 JUMP JUMPDEST PUSH1 0x40 MLOAD DUP1 SWAP2 SUB SWAP1 RETURN JUMPDEST PUSH2 0x3C7 PUSH1 0x4 DUP1 CALLDATASIZE SUB DUP2 ADD SWAP1 PUSH2 0x3C2 SWAP2 SWAP1 PUSH2 0x2D7F JUMP JUMPDEST PUSH2 0xABD JUMP JUMPDEST STOP JUMPDEST PUSH2 0x3D1 PUSH2 0xB0C JUMP JUMPDEST PUSH1 0x40 MLOAD PUSH2 0x3DE SWAP2 SWAP1 PUSH2 0x2DC5 JUMP JUMPDEST PUSH1 0x40 MLOAD DUP1 SWAP2 SUB SWAP1 RETURN JUMPDEST PUSH2 0x3EF PUSH2 0xB30 JUMP JUMPDEST PUSH1 0x40 MLOAD PUSH2 0x3FC SWAP2 SWAP1 PUSH2 0x2E70 JUMP JUMPDEST PUSH1 0x40 MLOAD DUP1 SWAP2 SUB SWAP1 RETURN JUMPDEST PUSH2 0x41F PUSH1 0x4 DUP1 CALLDATASIZE SUB DUP2 ADD SWAP1 PUSH2 0x41A SWAP2 SWAP1 PUSH2 0x2EC8 JUMP JUMPDEST PUSH2 0xBC2 JUMP JUMPDEST PUSH1 0x40 MLOAD PUSH2 0x42C SWAP2 SWAP1 PUSH2 0x2D06 JUMP JUMPDEST PUSH1 0x40 MLOAD DUP1 SWAP2 SUB SWAP1 RETURN JUMPDEST PUSH2 0x44F PUSH1 0x4 DUP1 CALLDATASIZE SUB DUP2 ADD SWAP1 PUSH2 0x44A SWAP2 SWAP1 PUSH2 0x2D7F JUMP JUMPDEST PUSH2 0xBE5 JUMP JUMPDEST STOP JUMPDEST PUSH2 0x459 PUSH2 0xC34 JUMP JUMPDEST PUSH1 0x40 MLOAD PUSH2 0x466 SWAP2 SWAP1 PUSH2 0x2F17 JUMP JUMPDEST PUSH1 0x40 MLOAD DUP1 SWAP2 SUB SWAP1 RETURN JUMPDEST PUSH2 0x477 PUSH2 0xC3E JUMP JUMPDEST PUSH1 0x40 MLOAD PUSH2 0x484 SWAP2 SWAP1 PUSH2 0x2F17 JUMP JUMPDEST PUSH1 0x40 MLOAD DUP1 SWAP2 SUB SWAP1 RETURN JUMPDEST PUSH2 0x4A7 PUSH1 0x4 DUP1 CALLDATASIZE SUB DUP2 ADD SWAP1 PUSH2 0x4A2 SWAP2 SWAP1 PUSH2 0x2F32 JUMP JUMPDEST PUSH2 0xC44 JUMP JUMPDEST STOP JUMPDEST PUSH2 0x4C3 PUSH1 0x4 DUP1 CALLDATASIZE SUB DUP2 ADD SWAP1 PUSH2 0x4BE SWAP2 SWAP1 PUSH2 0x2F32 JUMP JUMPDEST PUSH2 0xCCE JUMP JUMPDEST PUSH1 0x40 MLOAD PUSH2 0x4D0 SWAP2 SWAP1 PUSH2 0x2D06 JUMP JUMPDEST PUSH1 0x40 MLOAD DUP1 SWAP2 SUB SWAP1 RETURN JUMPDEST PUSH2 0x4F3 PUSH1 0x4 DUP1 CALLDATASIZE SUB DUP2 ADD SWAP1 PUSH2 0x4EE SWAP2 SWAP1 PUSH2 0x2FB1 JUMP JUMPDEST PUSH2 0xCFD JUMP JUMPDEST PUSH1 0x40 MLOAD PUSH2 0x500 SWAP2 SWAP1 PUSH2 0x2DC5 JUMP JUMPDEST PUSH1 0x40 MLOAD DUP1 SWAP2 SUB SWAP1 RETURN JUMPDEST PUSH2 0x511 PUSH2 0xD1D JUMP JUMPDEST PUSH1 0x40 MLOAD PUSH2 0x51E SWAP2 SWAP1 PUSH2 0x2DC5 JUMP JUMPDEST PUSH1 0x40 MLOAD DUP1 SWAP2 SUB SWAP1 RETURN JUMPDEST PUSH2 0x541 PUSH1 0x4 DUP1 CALLDATASIZE SUB DUP2 ADD SWAP1 PUSH2 0x53C SWAP2 SWAP1 PUSH2 0x2D7F JUMP JUMPDEST PUSH2 0xD41 JUMP JUMPDEST STOP JUMPDEST PUSH2 0x55D PUSH1 0x4 DUP1 CALLDATASIZE SUB DUP2 ADD SWAP1 PUSH2 0x558 SWAP2 SWAP1 PUSH2 0x2FDE JUMP JUMPDEST PUSH2 0xD90 JUMP JUMPDEST STOP JUMPDEST PUSH2 0x579 PUSH1 0x4 DUP1 CALLDATASIZE SUB DUP2 ADD SWAP1 PUSH2 0x574 SWAP2 SWAP1 PUSH2 0x2D7F JUMP JUMPDEST PUSH2 0xDB2 JUMP JUMPDEST STOP JUMPDEST PUSH2 0x583 PUSH2 0xE01 JUMP JUMPDEST PUSH1 0x40 MLOAD PUSH2 0x590 SWAP2 SWAP1 PUSH2 0x303A JUMP JUMPDEST PUSH1 0x40 MLOAD DUP1 SWAP2 SUB SWAP1 RETURN JUMPDEST PUSH2 0x5B3 PUSH1 0x4 DUP1 CALLDATASIZE SUB DUP2 ADD SWAP1 PUSH2 0x5AE SWAP2 SWAP1 PUSH2 0x2FDE JUMP JUMPDEST PUSH2 0xE0A JUMP JUMPDEST STOP JUMPDEST PUSH2 0x5BD PUSH2 0xE85 JUMP JUMPDEST PUSH1 0x40 MLOAD PUSH2 0x5CA SWAP2 SWAP1 PUSH2 0x2D06 JUMP JUMPDEST PUSH1 0x40 MLOAD DUP1 SWAP2 SUB SWAP1 RETURN JUMPDEST PUSH2 0x5ED PUSH1 0x4 DUP1 CALLDATASIZE SUB DUP2 ADD SWAP1 PUSH2 0x5E8 SWAP2 SWAP1 PUSH2 0x2EC8 JUMP JUMPDEST PUSH2 0xE98 JUMP JUMPDEST STOP JUMPDEST PUSH2 0x5F7 PUSH2 0xF3A JUMP JUMPDEST PUSH1 0x40 MLOAD PUSH2 0x604 SWAP2 SWAP1 PUSH2 0x2DC5 JUMP JUMPDEST PUSH1 0x40 MLOAD DUP1 SWAP2 SUB SWAP1 RETURN JUMPDEST PUSH2 0x627 PUSH1 0x4 DUP1 CALLDATASIZE SUB DUP2 ADD SWAP1 PUSH2 0x622 SWAP2 SWAP1 PUSH2 0x2D7F JUMP JUMPDEST PUSH2 0xF5E JUMP JUMPDEST STOP JUMPDEST PUSH2 0x631 PUSH2 0x1044 JUMP JUMPDEST PUSH1 0x40 MLOAD PUSH2 0x63E SWAP2 SWAP1 PUSH2 0x2D06 JUMP JUMPDEST PUSH1 0x40 MLOAD DUP1 SWAP2 SUB SWAP1 RETURN JUMPDEST PUSH2 0x661 PUSH1 0x4 DUP1 CALLDATASIZE SUB DUP2 ADD SWAP1 PUSH2 0x65C SWAP2 SWAP1 PUSH2 0x2D7F JUMP JUMPDEST PUSH2 0x1057 JUMP JUMPDEST STOP JUMPDEST PUSH2 0x67D PUSH1 0x4 DUP1 CALLDATASIZE SUB DUP2 ADD SWAP1 PUSH2 0x678 SWAP2 SWAP1 PUSH2 0x2D7F JUMP JUMPDEST PUSH2 0x10A6 JUMP JUMPDEST STOP JUMPDEST PUSH2 0x687 PUSH2 0x113C JUMP JUMPDEST STOP JUMPDEST PUSH2 0x6A3 PUSH1 0x4 DUP1 CALLDATASIZE SUB DUP2 ADD SWAP1 PUSH2 0x69E SWAP2 SWAP1 PUSH2 0x2D7F JUMP JUMPDEST PUSH2 0x11FF JUMP JUMPDEST PUSH1 0x40 MLOAD PUSH2 0x6B0 SWAP2 SWAP1 PUSH2 0x2F17 JUMP JUMPDEST PUSH1 0x40 MLOAD DUP1 SWAP2 SUB SWAP1 RETURN JUMPDEST PUSH2 0x6C1 PUSH2 0x1247 JUMP JUMPDEST STOP JUMPDEST PUSH2 0x6DD PUSH1 0x4 DUP1 CALLDATASIZE SUB DUP2 ADD SWAP1 PUSH2 0x6D8 SWAP2 SWAP1 PUSH2 0x2D7F JUMP JUMPDEST PUSH2 0x125B JUMP JUMPDEST PUSH1 0x40 MLOAD PUSH2 0x6EA SWAP2 SWAP1 PUSH2 0x2D06 JUMP JUMPDEST PUSH1 0x40 MLOAD DUP1 SWAP2 SUB SWAP1 RETURN JUMPDEST PUSH2 0x70D PUSH1 0x4 DUP1 CALLDATASIZE SUB DUP2 ADD SWAP1 PUSH2 0x708 SWAP2 SWAP1 PUSH2 0x2D7F JUMP JUMPDEST PUSH2 0x1278 JUMP JUMPDEST STOP JUMPDEST PUSH2 0x717 PUSH2 0x130E JUMP JUMPDEST STOP JUMPDEST PUSH2 0x721 PUSH2 0x13D1 JUMP JUMPDEST STOP JUMPDEST PUSH2 0x72B PUSH2 0x1494 JUMP JUMPDEST PUSH1 0x40 MLOAD PUSH2 0x738 SWAP2 SWAP1 PUSH2 0x2D06 JUMP JUMPDEST PUSH1 0x40 MLOAD DUP1 SWAP2 SUB SWAP1 RETURN JUMPDEST PUSH2 0x749 PUSH2 0x14A7 JUMP JUMPDEST PUSH1 0x40 MLOAD PUSH2 0x756 SWAP2 SWAP1 PUSH2 0x3064 JUMP JUMPDEST PUSH1 0x40 MLOAD DUP1 SWAP2 SUB SWAP1 RETURN JUMPDEST PUSH2 0x779 PUSH1 0x4 DUP1 CALLDATASIZE SUB DUP2 ADD SWAP1 PUSH2 0x774 SWAP2 SWAP1 PUSH2 0x307F JUMP JUMPDEST PUSH2 0x14D1 JUMP JUMPDEST PUSH1 0x40 MLOAD PUSH2 0x786 SWAP2 SWAP1 PUSH2 0x3064 JUMP JUMPDEST PUSH1 0x40 MLOAD DUP1 SWAP2 SUB SWAP1 RETURN JUMPDEST PUSH2 0x797 PUSH2 0x1500 JUMP JUMPDEST STOP JUMPDEST PUSH2 0x7B3 PUSH1 0x4 DUP1 CALLDATASIZE SUB DUP2 ADD SWAP1 PUSH2 0x7AE SWAP2 SWAP1 PUSH2 0x2FDE JUMP JUMPDEST PUSH2 0x15C3 JUMP JUMPDEST PUSH1 0x40 MLOAD PUSH2 0x7C0 SWAP2 SWAP1 PUSH2 0x2D06 JUMP JUMPDEST PUSH1 0x40 MLOAD DUP1 SWAP2 SUB SWAP1 RETURN JUMPDEST PUSH2 0x7D1 PUSH2 0x162E JUMP JUMPDEST PUSH1 0x40 MLOAD PUSH2 0x7DE SWAP2 SWAP1 PUSH2 0x2DC5 JUMP JUMPDEST PUSH1 0x40 MLOAD DUP1 SWAP2 SUB SWAP1 RETURN JUMPDEST PUSH2 0x7EF PUSH2 0x1652 JUMP JUMPDEST PUSH1 0x40 MLOAD PUSH2 0x7FC SWAP2 SWAP1 PUSH2 0x2E70 JUMP JUMPDEST PUSH1 0x40 MLOAD DUP1 SWAP2 SUB SWAP1 RETURN JUMPDEST PUSH2 0x81F PUSH1 0x4 DUP1 CALLDATASIZE SUB DUP2 ADD SWAP1 PUSH2 0x81A SWAP2 SWAP1 PUSH2 0x2D7F JUMP JUMPDEST PUSH2 0x16E4 JUMP JUMPDEST STOP JUMPDEST PUSH2 0x83B PUSH1 0x4 DUP1 CALLDATASIZE SUB DUP2 ADD SWAP1 PUSH2 0x836 SWAP2 SWAP1 PUSH2 0x2D7F JUMP JUMPDEST PUSH2 0x1733 JUMP JUMPDEST STOP JUMPDEST PUSH2 0x857 PUSH1 0x4 DUP1 CALLDATASIZE SUB DUP2 ADD SWAP1 PUSH2 0x852 SWAP2 SWAP1 PUSH2 0x2EC8 JUMP JUMPDEST PUSH2 0x1782 JUMP JUMPDEST STOP JUMPDEST PUSH2 0x873 PUSH1 0x4 DUP1 CALLDATASIZE SUB DUP2 ADD SWAP1 PUSH2 0x86E SWAP2 SWAP1 PUSH2 0x2D7F JUMP JUMPDEST PUSH2 0x1824 JUMP JUMPDEST PUSH1 0x40 MLOAD PUSH2 0x880 SWAP2 SWAP1 PUSH2 0x2D06 JUMP JUMPDEST PUSH1 0x40 MLOAD DUP1 SWAP2 SUB SWAP1 RETURN JUMPDEST PUSH2 0x891 PUSH2 0x1841 JUMP JUMPDEST PUSH1 0x40 MLOAD PUSH2 0x89E SWAP2 SWAP1 PUSH2 0x2DC5 JUMP JUMPDEST PUSH1 0x40 MLOAD DUP1 SWAP2 SUB SWAP1 RETURN JUMPDEST PUSH2 0x8C1 PUSH1 0x4 DUP1 CALLDATASIZE SUB DUP2 ADD SWAP1 PUSH2 0x8BC SWAP2 SWAP1 PUSH2 0x2EC8 JUMP JUMPDEST PUSH2 0x1848 JUMP JUMPDEST PUSH1 0x40 MLOAD PUSH2 0x8CE SWAP2 SWAP1 PUSH2 0x2D06 JUMP JUMPDEST PUSH1 0x40 MLOAD DUP1 SWAP2 SUB SWAP1 RETURN JUMPDEST PUSH2 0x8DF PUSH2 0x1964 JUMP JUMPDEST PUSH1 0x40 MLOAD PUSH2 0x8EC SWAP2 SWAP1 PUSH2 0x2D06 JUMP JUMPDEST PUSH1 0x40 MLOAD DUP1 SWAP2 SUB SWAP1 RETURN JUMPDEST PUSH2 0x90F PUSH1 0x4 DUP1 CALLDATASIZE SUB DUP2 ADD SWAP1 PUSH2 0x90A SWAP2 SWAP1 PUSH2 0x2D7F JUMP JUMPDEST PUSH2 0x1977 JUMP JUMPDEST STOP JUMPDEST PUSH2 0x92B PUSH1 0x4 DUP1 CALLDATASIZE SUB DUP2 ADD SWAP1 PUSH2 0x926 SWAP2 SWAP1 PUSH2 0x2FB1 JUMP JUMPDEST PUSH2 0x19C6 JUMP JUMPDEST PUSH1 0x40 MLOAD PUSH2 0x938 SWAP2 SWAP1 PUSH2 0x2F17 JUMP JUMPDEST PUSH1 0x40 MLOAD DUP1 SWAP2 SUB SWAP1 RETURN JUMPDEST PUSH2 0x95B PUSH1 0x4 DUP1 CALLDATASIZE SUB DUP2 ADD SWAP1 PUSH2 0x956 SWAP2 SWAP1 PUSH2 0x2D7F JUMP JUMPDEST PUSH2 0x19EA JUMP JUMPDEST STOP JUMPDEST PUSH2 0x965 PUSH2 0x1A39 JUMP JUMPDEST PUSH1 0x40 MLOAD PUSH2 0x972 SWAP2 SWAP1 PUSH2 0x2DC5 JUMP JUMPDEST PUSH1 0x40 MLOAD DUP1 SWAP2 SUB SWAP1 RETURN JUMPDEST PUSH2 0x995 PUSH1 0x4 DUP1 CALLDATASIZE SUB DUP2 ADD SWAP1 PUSH2 0x990 SWAP2 SWAP1 PUSH2 0x2FDE JUMP JUMPDEST PUSH2 0x1A5D JUMP JUMPDEST STOP JUMPDEST PUSH2 0x99F PUSH2 0x1A7F JUMP JUMPDEST PUSH1 0x40 MLOAD PUSH2 0x9AC SWAP2 SWAP1 PUSH2 0x2D06 JUMP JUMPDEST PUSH1 0x40 MLOAD DUP1 SWAP2 SUB SWAP1 RETURN JUMPDEST PUSH2 0x9CF PUSH1 0x4 DUP1 CALLDATASIZE SUB DUP2 ADD SWAP1 PUSH2 0x9CA SWAP2 SWAP1 PUSH2 0x30BF JUMP JUMPDEST PUSH2 0x1A92 JUMP JUMPDEST PUSH1 0x40 MLOAD PUSH2 0x9DC SWAP2 SWAP1 PUSH2 0x2F17 JUMP JUMPDEST PUSH1 0x40 MLOAD DUP1 SWAP2 SUB SWAP1 RETURN JUMPDEST PUSH2 0x9ED PUSH2 0x1B19 JUMP JUMPDEST STOP JUMPDEST PUSH2 0xA09 PUSH1 0x4 DUP1 CALLDATASIZE SUB DUP2 ADD SWAP1 PUSH2 0xA04 SWAP2 SWAP1 PUSH2 0x2D7F JUMP JUMPDEST PUSH2 0x1BDC JUMP JUMPDEST STOP JUMPDEST PUSH2 0xA25 PUSH1 0x4 DUP1 CALLDATASIZE SUB DUP2 ADD SWAP1 PUSH2 0xA20 SWAP2 SWAP1 PUSH2 0x2D7F JUMP JUMPDEST PUSH2 0x1CC2 JUMP JUMPDEST STOP JUMPDEST PUSH2 0xA41 PUSH1 0x4 DUP1 CALLDATASIZE SUB DUP2 ADD SWAP1 PUSH2 0xA3C SWAP2 SWAP1 PUSH2 0x2D7F JUMP JUMPDEST PUSH2 0x1D48 JUMP JUMPDEST STOP JUMPDEST PUSH1 0x0 PUSH32 0x5A05180F00000000000000000000000000000000000000000000000000000000 PUSH28 0xFFFFFFFFFFFFFFFFFFFFFFFFFFFFFFFFFFFFFFFFFFFFFFFFFFFFFFFF NOT AND DUP3 PUSH28 0xFFFFFFFFFFFFFFFFFFFFFFFFFFFFFFFFFFFFFFFFFFFFFFFFFFFFFFFF NOT AND EQ DUP1 PUSH2 0xAB6 JUMPI POP PUSH2 0xAB5 DUP3 PUSH2 0x1D97 JUMP JUMPDEST JUMPDEST SWAP1 POP SWAP2 SWAP1 POP JUMP JUMPDEST PUSH2 0xAC5 PUSH2 0x1E11 JUMP JUMPDEST PUSH2 0xAEF PUSH32 0x3C11D16CBAFFD01DF69CE1C404F6340EE057498F5F00246190EA54220576A848 DUP3 PUSH2 0x1A5D JUMP JUMPDEST PUSH1 0x64 PUSH1 0xD PUSH1 0x0 DUP3 DUP3 SLOAD PUSH2 0xB02 SWAP2 SWAP1 PUSH2 0x312E JUMP JUMPDEST SWAP3 POP POP DUP2 SWAP1 SSTORE POP POP JUMP JUMPDEST PUSH32 0x92DE27771F92D6942691D73358B3A4673E4880DE8356F8F2CF452BE87E02D363 DUP2 JUMP JUMPDEST PUSH1 0x60 PUSH1 0x3 DUP1 SLOAD PUSH2 0xB3F SWAP1 PUSH2 0x3191 JUMP JUMPDEST DUP1 PUSH1 0x1F ADD PUSH1 0x20 DUP1 SWAP2 DIV MUL PUSH1 0x20 ADD PUSH1 0x40 MLOAD SWAP1 DUP2 ADD PUSH1 0x40 MSTORE DUP1 SWAP3 SWAP2 SWAP1 DUP2 DUP2 MSTORE PUSH1 0x20 ADD DUP3 DUP1 SLOAD PUSH2 0xB6B SWAP1 PUSH2 0x3191 JUMP JUMPDEST DUP1 ISZERO PUSH2 0xBB8 JUMPI DUP1 PUSH1 0x1F LT PUSH2 0xB8D JUMPI PUSH2 0x100 DUP1 DUP4 SLOAD DIV MUL DUP4 MSTORE SWAP2 PUSH1 0x20 ADD SWAP2 PUSH2 0xBB8 JUMP JUMPDEST DUP3 ADD SWAP2 SWAP1 PUSH1 0x0 MSTORE PUSH1 0x20 PUSH1 0x0 KECCAK256 SWAP1 JUMPDEST DUP2 SLOAD DUP2 MSTORE SWAP1 PUSH1 0x1 ADD SWAP1 PUSH1 0x20 ADD DUP1 DUP4 GT PUSH2 0xB9B JUMPI DUP3 SWAP1 SUB PUSH1 0x1F AND DUP3 ADD SWAP2 JUMPDEST POP POP POP POP POP SWAP1 POP SWAP1 JUMP JUMPDEST PUSH1 0x0 DUP1 PUSH2 0xBCD PUSH2 0x1E98 JUMP JUMPDEST SWAP1 POP PUSH2 0xBDA DUP2 DUP6 DUP6 PUSH2 0x1EA0 JUMP JUMPDEST PUSH1 0x1 SWAP2 POP POP SWAP3 SWAP2 POP POP JUMP JUMPDEST PUSH2 0xBED PUSH2 0x1E11 JUMP JUMPDEST PUSH2 0xC17 PUSH32 0xF988E4FB62B8E14F4820FED03192306DDF4D7DBFA215595BA1C6BA4B76B369EE DUP3 PUSH2 0xD90 JUMP JUMPDEST PUSH1 0x64 PUSH1 0xD PUSH1 0x0 DUP3 DUP3 SLOAD PUSH2 0xC2A SWAP2 SWAP1 PUSH2 0x312E JUMP JUMPDEST SWAP3 POP POP DUP2 SWAP1 SSTORE POP POP JUMP JUMPDEST PUSH1 0x0 PUSH1 0x2 SLOAD SWAP1 POP SWAP1 JUMP JUMPDEST PUSH1 0xD SLOAD DUP2 JUMP JUMPDEST PUSH32 0x62B337EAEFEC74DADF1A62E856BF9DB4F14A0F27D4F48156A95A9F98E7D5E066 PUSH2 0xC6E DUP2 PUSH2 0x1EB2 JUMP JUMPDEST PUSH1 0xC PUSH1 0x4 SWAP1 SLOAD SWAP1 PUSH2 0x100 EXP SWAP1 DIV PUSH1 0xFF AND PUSH2 0xCBD JUMPI PUSH1 0x40 MLOAD PUSH32 0x8C379A000000000000000000000000000000000000000000000000000000000 DUP2 MSTORE PUSH1 0x4 ADD PUSH2 0xCB4 SWAP1 PUSH2 0x320E JUMP JUMPDEST PUSH1 0x40 MLOAD DUP1 SWAP2 SUB SWAP1 REVERT JUMPDEST PUSH2 0xCC8 DUP5 DUP5 DUP5 PUSH2 0x1EC6 JUMP JUMPDEST POP POP POP POP JUMP JUMPDEST PUSH1 0x0 DUP1 PUSH2 0xCD9 PUSH2 0x1E98 JUMP JUMPDEST SWAP1 POP PUSH2 0xCE6 DUP6 DUP3 DUP6 PUSH2 0x1FBA JUMP JUMPDEST PUSH2 0xCF1 DUP6 DUP6 DUP6 PUSH2 0x1EC6 JUMP JUMPDEST PUSH1 0x1 SWAP2 POP POP SWAP4 SWAP3 POP POP POP JUMP JUMPDEST PUSH1 0x0 PUSH1 0x5 PUSH1 0x0 DUP4 DUP2 MSTORE PUSH1 0x20 ADD SWAP1 DUP2 MSTORE PUSH1 0x20 ADD PUSH1 0x0 KECCAK256 PUSH1 0x1 ADD SLOAD SWAP1 POP SWAP2 SWAP1 POP JUMP JUMPDEST PUSH32 0x3C11D16CBAFFD01DF69CE1C404F6340EE057498F5F00246190EA54220576A848 DUP2 JUMP JUMPDEST PUSH2 0xD49 PUSH2 0x1E11 JUMP JUMPDEST PUSH2 0xD73 PUSH32 0x92DE27771F92D6942691D73358B3A4673E4880DE8356F8F2CF452BE87E02D363 DUP3 PUSH2 0x1A5D JUMP JUMPDEST PUSH1 0x64 PUSH1 0xD PUSH1 0x0 DUP3 DUP3 SLOAD PUSH2 0xD86 SWAP2 SWAP1 PUSH2 0x312E JUMP JUMPDEST SWAP3 POP POP DUP2 SWAP1 SSTORE POP POP JUMP JUMPDEST PUSH2 0xD99 DUP3 PUSH2 0xCFD JUMP JUMPDEST PUSH2 0xDA2 DUP2 PUSH2 0x1EB2 JUMP JUMPDEST PUSH2 0xDAC DUP4 DUP4 PUSH2 0x204E JUMP JUMPDEST POP POP POP POP JUMP JUMPDEST PUSH2 0xDBA PUSH2 0x1E11 JUMP JUMPDEST PUSH2 0xDE4 PUSH32 0x9F2DF0FED2C77648DE5860A4CC508CD0818C85B8B8A1AB4CEEEF8D981C8956A6 DUP3 PUSH2 0x1A5D JUMP JUMPDEST PUSH1 0x64 PUSH1 0xD PUSH1 0x0 DUP3 DUP3 SLOAD PUSH2 0xDF7 SWAP2 SWAP1 PUSH2 0x312E JUMP JUMPDEST SWAP3 POP POP DUP2 SWAP1 SSTORE POP POP JUMP JUMPDEST PUSH1 0x0 PUSH1 0x12 SWAP1 POP SWAP1 JUMP JUMPDEST PUSH2 0xE12 PUSH2 0x1E98 JUMP JUMPDEST PUSH20 0xFFFFFFFFFFFFFFFFFFFFFFFFFFFFFFFFFFFFFFFF AND DUP2 PUSH20 0xFFFFFFFFFFFFFFFFFFFFFFFFFFFFFFFFFFFFFFFF AND EQ PUSH2 0xE76 JUMPI PUSH1 0x40 MLOAD PUSH32 0x6697B23200000000000000000000000000000000000000000000000000000000 DUP2 MSTORE PUSH1 0x4 ADD PUSH1 0x40 MLOAD DUP1 SWAP2 SUB SWAP1 REVERT JUMPDEST PUSH2 0xE80 DUP3 DUP3 PUSH2 0x2094 JUMP JUMPDEST POP POP POP JUMP JUMPDEST PUSH1 0xC PUSH1 0x2 SWAP1 SLOAD SWAP1 PUSH2 0x100 EXP SWAP1 DIV PUSH1 0xFF AND DUP2 JUMP JUMPDEST PUSH32 0x9F2DF0FED2C77648DE5860A4CC508CD0818C85B8B8A1AB4CEEEF8D981C8956A6 PUSH2 0xEC2 DUP2 PUSH2 0x1EB2 JUMP JUMPDEST PUSH1 0xC PUSH1 0x0 SWAP1 SLOAD SWAP1 PUSH2 0x100 EXP SWAP1 DIV PUSH1 0xFF AND PUSH2 0xF11 JUMPI PUSH1 0x40 MLOAD PUSH32 0x8C379A000000000000000000000000000000000000000000000000000000000 DUP2 MSTORE PUSH1 0x4 ADD PUSH2 0xF08 SWAP1 PUSH2 0x327A JUMP JUMPDEST PUSH1 0x40 MLOAD DUP1 SWAP2 SUB SWAP1 REVERT JUMPDEST PUSH2 0xF1B DUP4 DUP4 PUSH2 0x20DA JUMP JUMPDEST PUSH1 0x14 PUSH1 0xD PUSH1 0x0 DUP3 DUP3 SLOAD PUSH2 0xF2E SWAP2 SWAP1 PUSH2 0x312E JUMP JUMPDEST SWAP3 POP POP DUP2 SWAP1 SSTORE POP POP POP POP JUMP JUMPDEST PUSH32 0xF988E4FB62B8E14F4820FED03192306DDF4D7DBFA215595BA1C6BA4B76B369EE DUP2 JUMP JUMPDEST PUSH32 0xF988E4FB62B8E14F4820FED03192306DDF4D7DBFA215595BA1C6BA4B76B369EE PUSH2 0xF88 DUP2 PUSH2 0x1EB2 JUMP JUMPDEST PUSH2 0xF9C DUP3 PUSH1 0xA PUSH2 0x215C SWAP1 SWAP2 SWAP1 PUSH4 0xFFFFFFFF AND JUMP JUMPDEST ISZERO PUSH2 0xFDC JUMPI PUSH1 0x40 MLOAD PUSH32 0x8C379A000000000000000000000000000000000000000000000000000000000 DUP2 MSTORE PUSH1 0x4 ADD PUSH2 0xFD3 SWAP1 PUSH2 0x32E6 JUMP JUMPDEST PUSH1 0x40 MLOAD DUP1 SWAP2 SUB SWAP1 REVERT JUMPDEST PUSH1 0xC PUSH1 0x3 SWAP1 SLOAD SWAP1 PUSH2 0x100 EXP SWAP1 DIV PUSH1 0xFF AND PUSH2 0x102B JUMPI PUSH1 0x40 MLOAD PUSH32 0x8C379A000000000000000000000000000000000000000000000000000000000 DUP2 MSTORE PUSH1 0x4 ADD PUSH2 0x1022 SWAP1 PUSH2 0x3352 JUMP JUMPDEST PUSH1 0x40 MLOAD DUP1 SWAP2 SUB SWAP1 REVERT JUMPDEST PUSH2 0x103F DUP3 PUSH1 0xA PUSH2 0x218C SWAP1 SWAP2 SWAP1 PUSH4 0xFFFFFFFF AND JUMP JUMPDEST POP POP POP JUMP JUMPDEST PUSH1 0xC PUSH1 0x0 SWAP1 SLOAD SWAP1 PUSH2 0x100 EXP SWAP1 DIV PUSH1 0xFF AND DUP2 JUMP JUMPDEST PUSH2 0x105F PUSH2 0x1E11 JUMP JUMPDEST PUSH2 0x1089 PUSH32 0x92DE27771F92D6942691D73358B3A4673E4880DE8356F8F2CF452BE87E02D363 DUP3 PUSH2 0xD90 JUMP JUMPDEST PUSH1 0x64 PUSH1 0xD PUSH1 0x0 DUP3 DUP3 SLOAD PUSH2 0x109C SWAP2 SWAP1 PUSH2 0x312E JUMP JUMPDEST SWAP3 POP POP DUP2 SWAP1 SSTORE POP POP JUMP JUMPDEST PUSH32 0xF988E4FB62B8E14F4820FED03192306DDF4D7DBFA215595BA1C6BA4B76B369EE PUSH2 0x10D0 DUP2 PUSH2 0x1EB2 JUMP JUMPDEST PUSH2 0x10E4 DUP3 PUSH1 0xA PUSH2 0x215C SWAP1 SWAP2 SWAP1 PUSH4 0xFFFFFFFF AND JUMP JUMPDEST PUSH2 0x1123 JUMPI PUSH1 0x40 MLOAD PUSH32 0x8C379A000000000000000000000000000000000000000000000000000000000 DUP2 MSTORE PUSH1 0x4 ADD PUSH2 0x111A SWAP1 PUSH2 0x33BE JUMP JUMPDEST PUSH1 0x40 MLOAD DUP1 SWAP2 SUB SWAP1 REVERT JUMPDEST PUSH2 0x1137 DUP3 PUSH1 0xA PUSH2 0x21BC SWAP1 SWAP2 SWAP1 PUSH4 0xFFFFFFFF AND JUMP JUMPDEST POP POP POP JUMP JUMPDEST PUSH2 0x1144 PUSH2 0x1E11 JUMP JUMPDEST PUSH32 0x9F2DF0FED2C77648DE5860A4CC508CD0818C85B8B8A1AB4CEEEF8D981C8956A6 PUSH1 0xC PUSH1 0x0 SWAP1 SLOAD SWAP1 PUSH2 0x100 EXP SWAP1 DIV PUSH1 0xFF AND PUSH1 0x0 PUSH2 0x1180 DUP4 PUSH2 0x19C6 JUMP JUMPDEST SWAP1 POP PUSH1 0x0 JUMPDEST DUP2 DUP2 LT ISZERO PUSH2 0x11B4 JUMPI PUSH1 0x0 PUSH2 0x119A DUP6 PUSH1 0x0 PUSH2 0x14D1 JUMP JUMPDEST SWAP1 POP PUSH2 0x11A6 DUP6 DUP3 PUSH2 0x1A5D JUMP JUMPDEST POP DUP1 DUP1 PUSH1 0x1 ADD SWAP2 POP POP PUSH2 0x1185 JUMP JUMPDEST POP PUSH2 0x11C2 PUSH1 0x0 DUP1 SHL ADDRESS PUSH2 0x2094 JUMP JUMPDEST POP PUSH2 0x11CD DUP4 ADDRESS PUSH2 0x2094 JUMP JUMPDEST POP PUSH2 0x11DB DUP4 PUSH1 0x0 DUP1 SHL PUSH2 0x21EC JUMP JUMPDEST PUSH1 0x0 SWAP2 POP PUSH2 0x12C PUSH1 0xD PUSH1 0x0 DUP3 DUP3 SLOAD PUSH2 0x11F3 SWAP2 SWAP1 PUSH2 0x312E JUMP JUMPDEST SWAP3 POP POP DUP2 SWAP1 SSTORE POP POP POP POP JUMP JUMPDEST PUSH1 0x0 DUP1 PUSH1 0x0 DUP4 PUSH20 0xFFFFFFFFFFFFFFFFFFFFFFFFFFFFFFFFFFFFFFFF AND PUSH20 0xFFFFFFFFFFFFFFFFFFFFFFFFFFFFFFFFFFFFFFFF AND DUP2 MSTORE PUSH1 0x20 ADD SWAP1 DUP2 MSTORE PUSH1 0x20 ADD PUSH1 0x0 KECCAK256 SLOAD SWAP1 POP SWAP2 SWAP1 POP JUMP JUMPDEST PUSH2 0x124F PUSH2 0x1E11 JUMP JUMPDEST PUSH2 0x1259 PUSH1 0x0 PUSH2 0x2248 JUMP JUMPDEST JUMP JUMPDEST PUSH1 0x0 PUSH2 0x1271 DUP3 PUSH1 0xA PUSH2 0x215C SWAP1 SWAP2 SWAP1 PUSH4 0xFFFFFFFF AND JUMP JUMPDEST SWAP1 POP SWAP2 SWAP1 POP JUMP JUMPDEST PUSH32 0x92DE27771F92D6942691D73358B3A4673E4880DE8356F8F2CF452BE87E02D363 PUSH2 0x12A2 DUP2 PUSH2 0x1EB2 JUMP JUMPDEST PUSH2 0x12B6 DUP3 PUSH1 0x8 PUSH2 0x215C SWAP1 SWAP2 SWAP1 PUSH4 0xFFFFFFFF AND JUMP JUMPDEST PUSH2 0x12F5 JUMPI PUSH1 0x40 MLOAD PUSH32 0x8C379A000000000000000000000000000000000000000000000000000000000 DUP2 MSTORE PUSH1 0x4 ADD PUSH2 0x12EC SWAP1 PUSH2 0x342A JUMP JUMPDEST PUSH1 0x40 MLOAD DUP1 SWAP2 SUB SWAP1 REVERT JUMPDEST PUSH2 0x1309 DUP3 PUSH1 0x8 PUSH2 0x21BC SWAP1 SWAP2 SWAP1 PUSH4 0xFFFFFFFF AND JUMP JUMPDEST POP POP POP JUMP JUMPDEST PUSH2 0x1316 PUSH2 0x1E11 JUMP JUMPDEST PUSH32 0xF988E4FB62B8E14F4820FED03192306DDF4D7DBFA215595BA1C6BA4B76B369EE PUSH1 0xC PUSH1 0x3 SWAP1 SLOAD SWAP1 PUSH2 0x100 EXP SWAP1 DIV PUSH1 0xFF AND PUSH1 0x0 PUSH2 0x1352 DUP4 PUSH2 0x19C6 JUMP JUMPDEST SWAP1 POP PUSH1 0x0 JUMPDEST DUP2 DUP2 LT ISZERO PUSH2 0x1386 JUMPI PUSH1 0x0 PUSH2 0x136C DUP6 PUSH1 0x0 PUSH2 0x14D1 JUMP JUMPDEST SWAP1 POP PUSH2 0x1378 DUP6 DUP3 PUSH2 0x1A5D JUMP JUMPDEST POP DUP1 DUP1 PUSH1 0x1 ADD SWAP2 POP POP PUSH2 0x1357 JUMP JUMPDEST POP PUSH2 0x1394 PUSH1 0x0 DUP1 SHL ADDRESS PUSH2 0x2094 JUMP JUMPDEST POP PUSH2 0x139F DUP4 ADDRESS PUSH2 0x2094 JUMP JUMPDEST POP PUSH2 0x13AD DUP4 PUSH1 0x0 DUP1 SHL PUSH2 0x21EC JUMP JUMPDEST PUSH1 0x0 SWAP2 POP PUSH2 0x12C PUSH1 0xD PUSH1 0x0 DUP3 DUP3 SLOAD PUSH2 0x13C5 SWAP2 SWAP1 PUSH2 0x312E JUMP JUMPDEST SWAP3 POP POP DUP2 SWAP1 SSTORE POP POP POP POP JUMP JUMPDEST PUSH2 0x13D9 PUSH2 0x1E11 JUMP JUMPDEST PUSH32 0x62B337EAEFEC74DADF1A62E856BF9DB4F14A0F27D4F48156A95A9F98E7D5E066 PUSH1 0xC PUSH1 0x4 SWAP1 SLOAD SWAP1 PUSH2 0x100 EXP SWAP1 DIV PUSH1 0xFF AND PUSH1 0x0 PUSH2 0x1415 DUP4 PUSH2 0x19C6 JUMP JUMPDEST SWAP1 POP PUSH1 0x0 JUMPDEST DUP2 DUP2 LT ISZERO PUSH2 0x1449 JUMPI PUSH1 0x0 PUSH2 0x142F DUP6 PUSH1 0x0 PUSH2 0x14D1 JUMP JUMPDEST SWAP1 POP PUSH2 0x143B DUP6 DUP3 PUSH2 0x1A5D JUMP JUMPDEST POP DUP1 DUP1 PUSH1 0x1 ADD SWAP2 POP POP PUSH2 0x141A JUMP JUMPDEST POP PUSH2 0x1457 PUSH1 0x0 DUP1 SHL ADDRESS PUSH2 0x2094 JUMP JUMPDEST POP PUSH2 0x1462 DUP4 ADDRESS PUSH2 0x2094 JUMP JUMPDEST POP PUSH2 0x1470 DUP4 PUSH1 0x0 DUP1 SHL PUSH2 0x21EC JUMP JUMPDEST PUSH1 0x0 SWAP2 POP PUSH2 0x12C PUSH1 0xD PUSH1 0x0 DUP3 DUP3 SLOAD PUSH2 0x1488 SWAP2 SWAP1 PUSH2 0x312E JUMP JUMPDEST SWAP3 POP POP DUP2 SWAP1 SSTORE POP POP POP POP JUMP JUMPDEST PUSH1 0xC PUSH1 0x1 SWAP1 SLOAD SWAP1 PUSH2 0x100 EXP SWAP1 DIV PUSH1 0xFF AND DUP2 JUMP JUMPDEST PUSH1 0x0 PUSH1 0x7 PUSH1 0x0 SWAP1 SLOAD SWAP1 PUSH2 0x100 EXP SWAP1 DIV PUSH20 0xFFFFFFFFFFFFFFFFFFFFFFFFFFFFFFFFFFFFFFFF AND SWAP1 POP SWAP1 JUMP JUMPDEST PUSH1 0x0 PUSH2 0x14F8 DUP3 PUSH1 0x6 PUSH1 0x0 DUP7 DUP2 MSTORE PUSH1 0x20 ADD SWAP1 DUP2 MSTORE PUSH1 0x20 ADD PUSH1 0x0 KECCAK256 PUSH2 0x230E SWAP1 SWAP2 SWAP1 PUSH4 0xFFFFFFFF AND JUMP JUMPDEST SWAP1 POP SWAP3 SWAP2 POP POP JUMP JUMPDEST PUSH2 0x1508 PUSH2 0x1E11 JUMP JUMPDEST PUSH32 0x92DE27771F92D6942691D73358B3A4673E4880DE8356F8F2CF452BE87E02D363 PUSH1 0xC PUSH1 0x2 SWAP1 SLOAD SWAP1 PUSH2 0x100 EXP SWAP1 DIV PUSH1 0xFF AND PUSH1 0x0 PUSH2 0x1544 DUP4 PUSH2 0x19C6 JUMP JUMPDEST SWAP1 POP PUSH1 0x0 JUMPDEST DUP2 DUP2 LT ISZERO PUSH2 0x1578 JUMPI PUSH1 0x0 PUSH2 0x155E DUP6 PUSH1 0x0 PUSH2 0x14D1 JUMP JUMPDEST SWAP1 POP PUSH2 0x156A DUP6 DUP3 PUSH2 0x1A5D JUMP JUMPDEST POP DUP1 DUP1 PUSH1 0x1 ADD SWAP2 POP POP PUSH2 0x1549 JUMP JUMPDEST POP PUSH2 0x1586 PUSH1 0x0 DUP1 SHL ADDRESS PUSH2 0x2094 JUMP JUMPDEST POP PUSH2 0x1591 DUP4 ADDRESS PUSH2 0x2094 JUMP JUMPDEST POP PUSH2 0x159F DUP4 PUSH1 0x0 DUP1 SHL PUSH2 0x21EC JUMP JUMPDEST PUSH1 0x0 SWAP2 POP PUSH2 0x12C PUSH1 0xD PUSH1 0x0 DUP3 DUP3 SLOAD PUSH2 0x15B7 SWAP2 SWAP1 PUSH2 0x312E JUMP JUMPDEST SWAP3 POP POP DUP2 SWAP1 SSTORE POP POP POP POP JUMP JUMPDEST PUSH1 0x0 PUSH1 0x5 PUSH1 0x0 DUP5 DUP2 MSTORE PUSH1 0x20 ADD SWAP1 DUP2 MSTORE PUSH1 0x20 ADD PUSH1 0x0 KECCAK256 PUSH1 0x0 ADD PUSH1 0x0 DUP4 PUSH20 0xFFFFFFFFFFFFFFFFFFFFFFFFFFFFFFFFFFFFFFFF AND PUSH20 0xFFFFFFFFFFFFFFFFFFFFFFFFFFFFFFFFFFFFFFFF AND DUP2 MSTORE PUSH1 0x20 ADD SWAP1 DUP2 MSTORE PUSH1 0x20 ADD PUSH1 0x0 KECCAK256 PUSH1 0x0 SWAP1 SLOAD SWAP1 PUSH2 0x100 EXP SWAP1 DIV PUSH1 0xFF AND SWAP1 POP SWAP3 SWAP2 POP POP JUMP JUMPDEST PUSH32 0x62B337EAEFEC74DADF1A62E856BF9DB4F14A0F27D4F48156A95A9F98E7D5E066 DUP2 JUMP JUMPDEST PUSH1 0x60 PUSH1 0x4 DUP1 SLOAD PUSH2 0x1661 SWAP1 PUSH2 0x3191 JUMP JUMPDEST DUP1 PUSH1 0x1F ADD PUSH1 0x20 DUP1 SWAP2 DIV MUL PUSH1 0x20 ADD PUSH1 0x40 MLOAD SWAP1 DUP2 ADD PUSH1 0x40 MSTORE DUP1 SWAP3 SWAP2 SWAP1 DUP2 DUP2 MSTORE PUSH1 0x20 ADD DUP3 DUP1 SLOAD PUSH2 0x168D SWAP1 PUSH2 0x3191 JUMP JUMPDEST DUP1 ISZERO PUSH2 0x16DA JUMPI DUP1 PUSH1 0x1F LT PUSH2 0x16AF JUMPI PUSH2 0x100 DUP1 DUP4 SLOAD DIV MUL DUP4 MSTORE SWAP2 PUSH1 0x20 ADD SWAP2 PUSH2 0x16DA JUMP JUMPDEST DUP3 ADD SWAP2 SWAP1 PUSH1 0x0 MSTORE PUSH1 0x20 PUSH1 0x0 KECCAK256 SWAP1 JUMPDEST DUP2 SLOAD DUP2 MSTORE SWAP1 PUSH1 0x1 ADD SWAP1 PUSH1 0x20 ADD DUP1 DUP4 GT PUSH2 0x16BD JUMPI DUP3 SWAP1 SUB PUSH1 0x1F AND DUP3 ADD SWAP2 JUMPDEST POP POP POP POP POP SWAP1 POP SWAP1 JUMP JUMPDEST PUSH2 0x16EC PUSH2 0x1E11 JUMP JUMPDEST PUSH2 0x1716 PUSH32 0xF988E4FB62B8E14F4820FED03192306DDF4D7DBFA215595BA1C6BA4B76B369EE DUP3 PUSH2 0x1A5D JUMP JUMPDEST PUSH1 0x64 PUSH1 0xD PUSH1 0x0 DUP3 DUP3 SLOAD PUSH2 0x1729 SWAP2 SWAP1 PUSH2 0x312E JUMP JUMPDEST SWAP3 POP POP DUP2 SWAP1 SSTORE POP POP JUMP JUMPDEST PUSH2 0x173B PUSH2 0x1E11 JUMP JUMPDEST PUSH2 0x1765 PUSH32 0x9F2DF0FED2C77648DE5860A4CC508CD0818C85B8B8A1AB4CEEEF8D981C8956A6 DUP3 PUSH2 0xD90 JUMP JUMPDEST PUSH1 0x64 PUSH1 0xD PUSH1 0x0 DUP3 DUP3 SLOAD PUSH2 0x1778 SWAP2 SWAP1 PUSH2 0x312E JUMP JUMPDEST SWAP3 POP POP DUP2 SWAP1 SSTORE POP POP JUMP JUMPDEST PUSH32 0x3C11D16CBAFFD01DF69CE1C404F6340EE057498F5F00246190EA54220576A848 PUSH2 0x17AC DUP2 PUSH2 0x1EB2 JUMP JUMPDEST PUSH1 0xC PUSH1 0x1 SWAP1 SLOAD SWAP1 PUSH2 0x100 EXP SWAP1 DIV PUSH1 0xFF AND PUSH2 0x17FB JUMPI PUSH1 0x40 MLOAD PUSH32 0x8C379A000000000000000000000000000000000000000000000000000000000 DUP2 MSTORE PUSH1 0x4 ADD PUSH2 0x17F2 SWAP1 PUSH2 0x3496 JUMP JUMPDEST PUSH1 0x40 MLOAD DUP1 SWAP2 SUB SWAP1 REVERT JUMPDEST PUSH2 0x1805 DUP4 DUP4 PUSH2 0x2328 JUMP JUMPDEST PUSH1 0x28 PUSH1 0xD PUSH1 0x0 DUP3 DUP3 SLOAD PUSH2 0x1818 SWAP2 SWAP1 PUSH2 0x312E JUMP JUMPDEST SWAP3 POP POP DUP2 SWAP1 SSTORE POP POP POP POP JUMP JUMPDEST PUSH1 0x0 PUSH2 0x183A DUP3 PUSH1 0x8 PUSH2 0x215C SWAP1 SWAP2 SWAP1 PUSH4 0xFFFFFFFF AND JUMP JUMPDEST SWAP1 POP SWAP2 SWAP1 POP JUMP JUMPDEST PUSH1 0x0 DUP1 SHL DUP2 JUMP JUMPDEST PUSH1 0x0 DUP1 PUSH2 0x1853 PUSH2 0x1E98 JUMP JUMPDEST SWAP1 POP PUSH2 0x1869 DUP2 PUSH1 0x8 PUSH2 0x215C SWAP1 SWAP2 SWAP1 PUSH4 0xFFFFFFFF AND JUMP JUMPDEST ISZERO PUSH2 0x18A9 JUMPI PUSH1 0x40 MLOAD PUSH32 0x8C379A000000000000000000000000000000000000000000000000000000000 DUP2 MSTORE PUSH1 0x4 ADD PUSH2 0x18A0 SWAP1 PUSH2 0x3502 JUMP JUMPDEST PUSH1 0x40 MLOAD DUP1 SWAP2 SUB SWAP1 REVERT JUMPDEST PUSH2 0x18BD DUP2 PUSH1 0xA PUSH2 0x215C SWAP1 SWAP2 SWAP1 PUSH4 0xFFFFFFFF AND JUMP JUMPDEST ISZERO PUSH2 0x18FD JUMPI PUSH1 0x40 MLOAD PUSH32 0x8C379A000000000000000000000000000000000000000000000000000000000 DUP2 MSTORE PUSH1 0x4 ADD PUSH2 0x18F4 SWAP1 PUSH2 0x356E JUMP JUMPDEST PUSH1 0x40 MLOAD DUP1 SWAP2 SUB SWAP1 REVERT JUMPDEST PUSH2 0x1911 DUP5 PUSH1 0xA PUSH2 0x215C SWAP1 SWAP2 SWAP1 PUSH4 0xFFFFFFFF AND JUMP JUMPDEST ISZERO PUSH2 0x1951 JUMPI PUSH1 0x40 MLOAD PUSH32 0x8C379A000000000000000000000000000000000000000000000000000000000 DUP2 MSTORE PUSH1 0x4 ADD PUSH2 0x1948 SWAP1 PUSH2 0x35DA JUMP JUMPDEST PUSH1 0x40 MLOAD DUP1 SWAP2 SUB SWAP1 REVERT JUMPDEST PUSH2 0x195B DUP5 DUP5 PUSH2 0x23AA JUMP JUMPDEST SWAP2 POP POP SWAP3 SWAP2 POP POP JUMP JUMPDEST PUSH1 0xC PUSH1 0x3 SWAP1 SLOAD SWAP1 PUSH2 0x100 EXP SWAP1 DIV PUSH1 0xFF AND DUP2 JUMP JUMPDEST PUSH2 0x197F PUSH2 0x1E11 JUMP JUMPDEST PUSH2 0x19A9 PUSH32 0x62B337EAEFEC74DADF1A62E856BF9DB4F14A0F27D4F48156A95A9F98E7D5E066 DUP3 PUSH2 0xD90 JUMP JUMPDEST PUSH1 0x64 PUSH1 0xD PUSH1 0x0 DUP3 DUP3 SLOAD PUSH2 0x19BC SWAP2 SWAP1 PUSH2 0x312E JUMP JUMPDEST SWAP3 POP POP DUP2 SWAP1 SSTORE POP POP JUMP JUMPDEST PUSH1 0x0 PUSH2 0x19E3 PUSH1 0x6 PUSH1 0x0 DUP5 DUP2 MSTORE PUSH1 0x20 ADD SWAP1 DUP2 MSTORE PUSH1 0x20 ADD PUSH1 0x0 KECCAK256 PUSH2 0x23CD JUMP JUMPDEST SWAP1 POP SWAP2 SWAP1 POP JUMP JUMPDEST PUSH2 0x19F2 PUSH2 0x1E11 JUMP JUMPDEST PUSH2 0x1A1C PUSH32 0x62B337EAEFEC74DADF1A62E856BF9DB4F14A0F27D4F48156A95A9F98E7D5E066 DUP3 PUSH2 0x1A5D JUMP JUMPDEST PUSH1 0x64 PUSH1 0xD PUSH1 0x0 DUP3 DUP3 SLOAD PUSH2 0x1A2F SWAP2 SWAP1 PUSH2 0x312E JUMP JUMPDEST SWAP3 POP POP DUP2 SWAP1 SSTORE POP POP JUMP JUMPDEST PUSH32 0x9F2DF0FED2C77648DE5860A4CC508CD0818C85B8B8A1AB4CEEEF8D981C8956A6 DUP2 JUMP JUMPDEST PUSH2 0x1A66 DUP3 PUSH2 0xCFD JUMP JUMPDEST PUSH2 0x1A6F DUP2 PUSH2 0x1EB2 JUMP JUMPDEST PUSH2 0x1A79 DUP4 DUP4 PUSH2 0x2094 JUMP JUMPDEST POP POP POP POP JUMP JUMPDEST PUSH1 0xC PUSH1 0x4 SWAP1 SLOAD SWAP1 PUSH2 0x100 EXP SWAP1 DIV PUSH1 0xFF AND DUP2 JUMP JUMPDEST PUSH1 0x0 PUSH1 0x1 PUSH1 0x0 DUP5 PUSH20 0xFFFFFFFFFFFFFFFFFFFFFFFFFFFFFFFFFFFFFFFF AND PUSH20 0xFFFFFFFFFFFFFFFFFFFFFFFFFFFFFFFFFFFFFFFF AND DUP2 MSTORE PUSH1 0x20 ADD SWAP1 DUP2 MSTORE PUSH1 0x20 ADD PUSH1 0x0 KECCAK256 PUSH1 0x0 DUP4 PUSH20 0xFFFFFFFFFFFFFFFFFFFFFFFFFFFFFFFFFFFFFFFF AND PUSH20 0xFFFFFFFFFFFFFFFFFFFFFFFFFFFFFFFFFFFFFFFF AND DUP2 MSTORE PUSH1 0x20 ADD SWAP1 DUP2 MSTORE PUSH1 0x20 ADD PUSH1 0x0 KECCAK256 SLOAD SWAP1 POP SWAP3 SWAP2 POP POP JUMP JUMPDEST PUSH2 0x1B21 PUSH2 0x1E11 JUMP JUMPDEST PUSH32 0x3C11D16CBAFFD01DF69CE1C404F6340EE057498F5F00246190EA54220576A848 PUSH1 0xC PUSH1 0x1 SWAP1 SLOAD SWAP1 PUSH2 0x100 EXP SWAP1 DIV PUSH1 0xFF AND PUSH1 0x0 PUSH2 0x1B5D DUP4 PUSH2 0x19C6 JUMP JUMPDEST SWAP1 POP PUSH1 0x0 JUMPDEST DUP2 DUP2 LT ISZERO PUSH2 0x1B91 JUMPI PUSH1 0x0 PUSH2 0x1B77 DUP6 PUSH1 0x0 PUSH2 0x14D1 JUMP JUMPDEST SWAP1 POP PUSH2 0x1B83 DUP6 DUP3 PUSH2 0x1A5D JUMP JUMPDEST POP DUP1 DUP1 PUSH1 0x1 ADD SWAP2 POP POP PUSH2 0x1B62 JUMP JUMPDEST POP PUSH2 0x1B9F PUSH1 0x0 DUP1 SHL ADDRESS PUSH2 0x2094 JUMP JUMPDEST POP PUSH2 0x1BAA DUP4 ADDRESS PUSH2 0x2094 JUMP JUMPDEST POP PUSH2 0x1BB8 DUP4 PUSH1 0x0 DUP1 SHL PUSH2 0x21EC JUMP JUMPDEST PUSH1 0x0 SWAP2 POP PUSH2 0x12C PUSH1 0xD PUSH1 0x0 DUP3 DUP3 SLOAD PUSH2 0x1BD0 SWAP2 SWAP1 PUSH2 0x312E JUMP JUMPDEST SWAP3 POP POP DUP2 SWAP1 SSTORE POP POP POP POP JUMP JUMPDEST PUSH32 0x92DE27771F92D6942691D73358B3A4673E4880DE8356F8F2CF452BE87E02D363 PUSH2 0x1C06 DUP2 PUSH2 0x1EB2 JUMP JUMPDEST PUSH2 0x1C1A DUP3 PUSH1 0x8 PUSH2 0x215C SWAP1 SWAP2 SWAP1 PUSH4 0xFFFFFFFF AND JUMP JUMPDEST ISZERO PUSH2 0x1C5A JUMPI PUSH1 0x40 MLOAD PUSH32 0x8C379A000000000000000000000000000000000000000000000000000000000 DUP2 MSTORE PUSH1 0x4 ADD PUSH2 0x1C51 SWAP1 PUSH2 0x3646 JUMP JUMPDEST PUSH1 0x40 MLOAD DUP1 SWAP2 SUB SWAP1 REVERT JUMPDEST PUSH1 0xC PUSH1 0x2 SWAP1 SLOAD SWAP1 PUSH2 0x100 EXP SWAP1 DIV PUSH1 0xFF AND PUSH2 0x1CA9 JUMPI PUSH1 0x40 MLOAD PUSH32 0x8C379A000000000000000000000000000000000000000000000000000000000 DUP2 MSTORE PUSH1 0x4 ADD PUSH2 0x1CA0 SWAP1 PUSH2 0x36B2 JUMP JUMPDEST PUSH1 0x40 MLOAD DUP1 SWAP2 SUB SWAP1 REVERT JUMPDEST PUSH2 0x1CBD DUP3 PUSH1 0x8 PUSH2 0x218C SWAP1 SWAP2 SWAP1 PUSH4 0xFFFFFFFF AND JUMP JUMPDEST POP POP POP JUMP JUMPDEST PUSH2 0x1CCA PUSH2 0x1E11 JUMP JUMPDEST PUSH1 0x0 PUSH20 0xFFFFFFFFFFFFFFFFFFFFFFFFFFFFFFFFFFFFFFFF AND DUP2 PUSH20 0xFFFFFFFFFFFFFFFFFFFFFFFFFFFFFFFFFFFFFFFF AND SUB PUSH2 0x1D3C JUMPI PUSH1 0x0 PUSH1 0x40 MLOAD PUSH32 0x1E4FBDF700000000000000000000000000000000000000000000000000000000 DUP2 MSTORE PUSH1 0x4 ADD PUSH2 0x1D33 SWAP2 SWAP1 PUSH2 0x3064 JUMP JUMPDEST PUSH1 0x40 MLOAD DUP1 SWAP2 SUB SWAP1 REVERT JUMPDEST PUSH2 0x1D45 DUP2 PUSH2 0x2248 JUMP JUMPDEST POP JUMP JUMPDEST PUSH2 0x1D50 PUSH2 0x1E11 JUMP JUMPDEST PUSH2 0x1D7A PUSH32 0x3C11D16CBAFFD01DF69CE1C404F6340EE057498F5F00246190EA54220576A848 DUP3 PUSH2 0xD90 JUMP JUMPDEST PUSH1 0x64 PUSH1 0xD PUSH1 0x0 DUP3 DUP3 SLOAD PUSH2 0x1D8D SWAP2 SWAP1 PUSH2 0x312E JUMP JUMPDEST SWAP3 POP POP DUP2 SWAP1 SSTORE POP POP JUMP JUMPDEST PUSH1 0x0 PUSH32 0x7965DB0B00000000000000000000000000000000000000000000000000000000 PUSH28 0xFFFFFFFFFFFFFFFFFFFFFFFFFFFFFFFFFFFFFFFFFFFFFFFFFFFFFFFF NOT AND DUP3 PUSH28 0xFFFFFFFFFFFFFFFFFFFFFFFFFFFFFFFFFFFFFFFFFFFFFFFFFFFFFFFF NOT AND EQ DUP1 PUSH2 0x1E0A JUMPI POP PUSH2 0x1E09 DUP3 PUSH2 0x23E2 JUMP JUMPDEST JUMPDEST SWAP1 POP SWAP2 SWAP1 POP JUMP JUMPDEST PUSH2 0x1E19 PUSH2 0x1E98 JUMP JUMPDEST PUSH20 0xFFFFFFFFFFFFFFFFFFFFFFFFFFFFFFFFFFFFFFFF AND PUSH2 0x1E37 PUSH2 0x14A7 JUMP JUMPDEST PUSH20 0xFFFFFFFFFFFFFFFFFFFFFFFFFFFFFFFFFFFFFFFF AND EQ PUSH2 0x1E96 JUMPI PUSH2 0x1E5A PUSH2 0x1E98 JUMP JUMPDEST PUSH1 0x40 MLOAD PUSH32 0x118CDAA700000000000000000000000000000000000000000000000000000000 DUP2 MSTORE PUSH1 0x4 ADD PUSH2 0x1E8D SWAP2 SWAP1 PUSH2 0x3064 JUMP JUMPDEST PUSH1 0x40 MLOAD DUP1 SWAP2 SUB SWAP1 REVERT JUMPDEST JUMP JUMPDEST PUSH1 0x0 CALLER SWAP1 POP SWAP1 JUMP JUMPDEST PUSH2 0x1EAD DUP4 DUP4 DUP4 PUSH1 0x1 PUSH2 0x244C JUMP JUMPDEST POP POP POP JUMP JUMPDEST PUSH2 0x1EC3 DUP2 PUSH2 0x1EBE PUSH2 0x1E98 JUMP JUMPDEST PUSH2 0x2623 JUMP JUMPDEST POP JUMP JUMPDEST PUSH1 0x0 PUSH20 0xFFFFFFFFFFFFFFFFFFFFFFFFFFFFFFFFFFFFFFFF AND DUP4 PUSH20 0xFFFFFFFFFFFFFFFFFFFFFFFFFFFFFFFFFFFFFFFF AND SUB PUSH2 0x1F38 JUMPI PUSH1 0x0 PUSH1 0x40 MLOAD PUSH32 0x96C6FD1E00000000000000000000000000000000000000000000000000000000 DUP2 MSTORE PUSH1 0x4 ADD PUSH2 0x1F2F SWAP2 SWAP1 PUSH2 0x3064 JUMP JUMPDEST PUSH1 0x40 MLOAD DUP1 SWAP2 SUB SWAP1 REVERT JUMPDEST PUSH1 0x0 PUSH20 0xFFFFFFFFFFFFFFFFFFFFFFFFFFFFFFFFFFFFFFFF AND DUP3 PUSH20 0xFFFFFFFFFFFFFFFFFFFFFFFFFFFFFFFFFFFFFFFF AND SUB PUSH2 0x1FAA JUMPI PUSH1 0x0 PUSH1 0x40 MLOAD PUSH32 0xEC442F0500000000000000000000000000000000000000000000000000000000 DUP2 MSTORE PUSH1 0x4 ADD PUSH2 0x1FA1 SWAP2 SWAP1 PUSH2 0x3064 JUMP JUMPDEST PUSH1 0x40 MLOAD DUP1 SWAP2 SUB SWAP1 REVERT JUMPDEST PUSH2 0x1FB5 DUP4 DUP4 DUP4 PUSH2 0x2674 JUMP JUMPDEST POP POP POP JUMP JUMPDEST PUSH1 0x0 PUSH2 0x1FC6 DUP5 DUP5 PUSH2 0x1A92 JUMP JUMPDEST SWAP1 POP PUSH32 0xFFFFFFFFFFFFFFFFFFFFFFFFFFFFFFFFFFFFFFFFFFFFFFFFFFFFFFFFFFFFFFFF DUP2 EQ PUSH2 0x2048 JUMPI DUP2 DUP2 LT ISZERO PUSH2 0x2038 JUMPI DUP3 DUP2 DUP4 PUSH1 0x40 MLOAD PUSH32 0xFB8F41B200000000000000000000000000000000000000000000000000000000 DUP2 MSTORE PUSH1 0x4 ADD PUSH2 0x202F SWAP4 SWAP3 SWAP2 SWAP1 PUSH2 0x36D2 JUMP JUMPDEST PUSH1 0x40 MLOAD DUP1 SWAP2 SUB SWAP1 REVERT JUMPDEST PUSH2 0x2047 DUP5 DUP5 DUP5 DUP5 SUB PUSH1 0x0 PUSH2 0x244C JUMP JUMPDEST JUMPDEST POP POP POP POP JUMP JUMPDEST PUSH1 0x0 DUP1 PUSH2 0x205B DUP5 DUP5 PUSH2 0x2899 JUMP JUMPDEST SWAP1 POP DUP1 ISZERO PUSH2 0x208A JUMPI PUSH2 0x2088 DUP4 PUSH1 0x6 PUSH1 0x0 DUP8 DUP2 MSTORE PUSH1 0x20 ADD SWAP1 DUP2 MSTORE PUSH1 0x20 ADD PUSH1 0x0 KECCAK256 PUSH2 0x218C SWAP1 SWAP2 SWAP1 PUSH4 0xFFFFFFFF AND JUMP JUMPDEST POP JUMPDEST DUP1 SWAP2 POP POP SWAP3 SWAP2 POP POP JUMP JUMPDEST PUSH1 0x0 DUP1 PUSH2 0x20A1 DUP5 DUP5 PUSH2 0x298B JUMP JUMPDEST SWAP1 POP DUP1 ISZERO PUSH2 0x20D0 JUMPI PUSH2 0x20CE DUP4 PUSH1 0x6 PUSH1 0x0 DUP8 DUP2 MSTORE PUSH1 0x20 ADD SWAP1 DUP2 MSTORE PUSH1 0x20 ADD PUSH1 0x0 KECCAK256 PUSH2 0x21BC SWAP1 SWAP2 SWAP1 PUSH4 0xFFFFFFFF AND JUMP JUMPDEST POP JUMPDEST DUP1 SWAP2 POP POP SWAP3 SWAP2 POP POP JUMP JUMPDEST PUSH1 0x0 PUSH20 0xFFFFFFFFFFFFFFFFFFFFFFFFFFFFFFFFFFFFFFFF AND DUP3 PUSH20 0xFFFFFFFFFFFFFFFFFFFFFFFFFFFFFFFFFFFFFFFF AND SUB PUSH2 0x214C JUMPI PUSH1 0x0 PUSH1 0x40 MLOAD PUSH32 0xEC442F0500000000000000000000000000000000000000000000000000000000 DUP2 MSTORE PUSH1 0x4 ADD PUSH2 0x2143 SWAP2 SWAP1 PUSH2 0x3064 JUMP JUMPDEST PUSH1 0x40 MLOAD DUP1 SWAP2 SUB SWAP1 REVERT JUMPDEST PUSH2 0x2158 PUSH1 0x0 DUP4 DUP4 PUSH2 0x2674 JUMP JUMPDEST POP POP JUMP JUMPDEST PUSH1 0x0 PUSH2 0x2184 DUP4 PUSH1 0x0 ADD DUP4 PUSH20 0xFFFFFFFFFFFFFFFFFFFFFFFFFFFFFFFFFFFFFFFF AND PUSH1 0x0 SHL PUSH2 0x2A7E JUMP JUMPDEST SWAP1 POP SWAP3 SWAP2 POP POP JUMP JUMPDEST PUSH1 0x0 PUSH2 0x21B4 DUP4 PUSH1 0x0 ADD DUP4 PUSH20 0xFFFFFFFFFFFFFFFFFFFFFFFFFFFFFFFFFFFFFFFF AND PUSH1 0x0 SHL PUSH2 0x2AA1 JUMP JUMPDEST SWAP1 POP SWAP3 SWAP2 POP POP JUMP JUMPDEST PUSH1 0x0 PUSH2 0x21E4 DUP4 PUSH1 0x0 ADD DUP4 PUSH20 0xFFFFFFFFFFFFFFFFFFFFFFFFFFFFFFFFFFFFFFFF AND PUSH1 0x0 SHL PUSH2 0x2B11 JUMP JUMPDEST SWAP1 POP SWAP3 SWAP2 POP POP JUMP JUMPDEST PUSH1 0x0 PUSH2 0x21F7 DUP4 PUSH2 0xCFD JUMP JUMPDEST SWAP1 POP DUP2 PUSH1 0x5 PUSH1 0x0 DUP6 DUP2 MSTORE PUSH1 0x20 ADD SWAP1 DUP2 MSTORE PUSH1 0x20 ADD PUSH1 0x0 KECCAK256 PUSH1 0x1 ADD DUP2 SWAP1 SSTORE POP DUP2 DUP2 DUP5 PUSH32 0xBD79B86FFE0AB8E8776151514217CD7CACD52C909F66475C3AF44E129F0B00FF PUSH1 0x40 MLOAD PUSH1 0x40 MLOAD DUP1 SWAP2 SUB SWAP1 LOG4 POP POP POP JUMP JUMPDEST PUSH1 0x0 PUSH1 0x7 PUSH1 0x0 SWAP1 SLOAD SWAP1 PUSH2 0x100 EXP SWAP1 DIV PUSH20 0xFFFFFFFFFFFFFFFFFFFFFFFFFFFFFFFFFFFFFFFF AND SWAP1 POP DUP2 PUSH1 0x7 PUSH1 0x0 PUSH2 0x100 EXP DUP2 SLOAD DUP2 PUSH20 0xFFFFFFFFFFFFFFFFFFFFFFFFFFFFFFFFFFFFFFFF MUL NOT AND SWAP1 DUP4 PUSH20 0xFFFFFFFFFFFFFFFFFFFFFFFFFFFFFFFFFFFFFFFF AND MUL OR SWAP1 SSTORE POP DUP2 PUSH20 0xFFFFFFFFFFFFFFFFFFFFFFFFFFFFFFFFFFFFFFFF AND DUP2 PUSH20 0xFFFFFFFFFFFFFFFFFFFFFFFFFFFFFFFFFFFFFFFF AND PUSH32 0x8BE0079C531659141344CD1FD0A4F28419497F9722A3DAAFE3B4186F6B6457E0 PUSH1 0x40 MLOAD PUSH1 0x40 MLOAD DUP1 SWAP2 SUB SWAP1 LOG3 POP POP JUMP JUMPDEST PUSH1 0x0 PUSH2 0x231D DUP4 PUSH1 0x0 ADD DUP4 PUSH2 0x2C25 JUMP JUMPDEST PUSH1 0x0 SHR SWAP1 POP SWAP3 SWAP2 POP POP JUMP JUMPDEST PUSH1 0x0 PUSH20 0xFFFFFFFFFFFFFFFFFFFFFFFFFFFFFFFFFFFFFFFF AND DUP3 PUSH20 0xFFFFFFFFFFFFFFFFFFFFFFFFFFFFFFFFFFFFFFFF AND SUB PUSH2 0x239A JUMPI PUSH1 0x0 PUSH1 0x40 MLOAD PUSH32 0x96C6FD1E00000000000000000000000000000000000000000000000000000000 DUP2 MSTORE PUSH1 0x4 ADD PUSH2 0x2391 SWAP2 SWAP1 PUSH2 0x3064 JUMP JUMPDEST PUSH1 0x40 MLOAD DUP1 SWAP2 SUB SWAP1 REVERT JUMPDEST PUSH2 0x23A6 DUP3 PUSH1 0x0 DUP4 PUSH2 0x2674 JUMP JUMPDEST POP POP JUMP JUMPDEST PUSH1 0x0 DUP1 PUSH2 0x23B5 PUSH2 0x1E98 JUMP JUMPDEST SWAP1 POP PUSH2 0x23C2 DUP2 DUP6 DUP6 PUSH2 0x1EC6 JUMP JUMPDEST PUSH1 0x1 SWAP2 POP POP SWAP3 SWAP2 POP POP JUMP JUMPDEST PUSH1 0x0 PUSH2 0x23DB DUP3 PUSH1 0x0 ADD PUSH2 0x2C50 JUMP JUMPDEST SWAP1 POP SWAP2 SWAP1 POP JUMP JUMPDEST PUSH1 0x0 PUSH32 0x1FFC9A700000000000000000000000000000000000000000000000000000000 PUSH28 0xFFFFFFFFFFFFFFFFFFFFFFFFFFFFFFFFFFFFFFFFFFFFFFFFFFFFFFFF NOT AND DUP3 PUSH28 0xFFFFFFFFFFFFFFFFFFFFFFFFFFFFFFFFFFFFFFFFFFFFFFFFFFFFFFFF NOT AND EQ SWAP1 POP SWAP2 SWAP1 POP JUMP JUMPDEST PUSH1 0x0 PUSH20 0xFFFFFFFFFFFFFFFFFFFFFFFFFFFFFFFFFFFFFFFF AND DUP5 PUSH20 0xFFFFFFFFFFFFFFFFFFFFFFFFFFFFFFFFFFFFFFFF AND SUB PUSH2 0x24BE JUMPI PUSH1 0x0 PUSH1 0x40 MLOAD PUSH32 0xE602DF0500000000000000000000000000000000000000000000000000000000 DUP2 MSTORE PUSH1 0x4 ADD PUSH2 0x24B5 SWAP2 SWAP1 PUSH2 0x3064 JUMP JUMPDEST PUSH1 0x40 MLOAD DUP1 SWAP2 SUB SWAP1 REVERT JUMPDEST PUSH1 0x0 PUSH20 0xFFFFFFFFFFFFFFFFFFFFFFFFFFFFFFFFFFFFFFFF AND DUP4 PUSH20 0xFFFFFFFFFFFFFFFFFFFFFFFFFFFFFFFFFFFFFFFF AND SUB PUSH2 0x2530 JUMPI PUSH1 0x0 PUSH1 0x40 MLOAD PUSH32 0x94280D6200000000000000000000000000000000000000000000000000000000 DUP2 MSTORE PUSH1 0x4 ADD PUSH2 0x2527 SWAP2 SWAP1 PUSH2 0x3064 JUMP JUMPDEST PUSH1 0x40 MLOAD DUP1 SWAP2 SUB SWAP1 REVERT JUMPDEST DUP2 PUSH1 0x1 PUSH1 0x0 DUP7 PUSH20 0xFFFFFFFFFFFFFFFFFFFFFFFFFFFFFFFFFFFFFFFF AND PUSH20 0xFFFFFFFFFFFFFFFFFFFFFFFFFFFFFFFFFFFFFFFF AND DUP2 MSTORE PUSH1 0x20 ADD SWAP1 DUP2 MSTORE PUSH1 0x20 ADD PUSH1 0x0 KECCAK256 PUSH1 0x0 DUP6 PUSH20 0xFFFFFFFFFFFFFFFFFFFFFFFFFFFFFFFFFFFFFFFF AND PUSH20 0xFFFFFFFFFFFFFFFFFFFFFFFFFFFFFFFFFFFFFFFF AND DUP2 MSTORE PUSH1 0x20 ADD SWAP1 DUP2 MSTORE PUSH1 0x20 ADD PUSH1 0x0 KECCAK256 DUP2 SWAP1 SSTORE POP DUP1 ISZERO PUSH2 0x261D JUMPI DUP3 PUSH20 0xFFFFFFFFFFFFFFFFFFFFFFFFFFFFFFFFFFFFFFFF AND DUP5 PUSH20 0xFFFFFFFFFFFFFFFFFFFFFFFFFFFFFFFFFFFFFFFF AND PUSH32 0x8C5BE1E5EBEC7D5BD14F71427D1E84F3DD0314C0F7B2291E5B200AC8C7C3B925 DUP5 PUSH1 0x40 MLOAD PUSH2 0x2614 SWAP2 SWAP1 PUSH2 0x2F17 JUMP JUMPDEST PUSH1 0x40 MLOAD DUP1 SWAP2 SUB SWAP1 LOG3 JUMPDEST POP POP POP POP JUMP JUMPDEST PUSH2 0x262D DUP3 DUP3 PUSH2 0x15C3 JUMP JUMPDEST PUSH2 0x2670 JUMPI DUP1 DUP3 PUSH1 0x40 MLOAD PUSH32 0xE2517D3F00000000000000000000000000000000000000000000000000000000 DUP2 MSTORE PUSH1 0x4 ADD PUSH2 0x2667 SWAP3 SWAP2 SWAP1 PUSH2 0x3709 JUMP JUMPDEST PUSH1 0x40 MLOAD DUP1 SWAP2 SUB SWAP1 REVERT JUMPDEST POP POP JUMP JUMPDEST PUSH1 0x0 PUSH20 0xFFFFFFFFFFFFFFFFFFFFFFFFFFFFFFFFFFFFFFFF AND DUP4 PUSH20 0xFFFFFFFFFFFFFFFFFFFFFFFFFFFFFFFFFFFFFFFF AND SUB PUSH2 0x26C6 JUMPI DUP1 PUSH1 0x2 PUSH1 0x0 DUP3 DUP3 SLOAD PUSH2 0x26BA SWAP2 SWAP1 PUSH2 0x312E JUMP JUMPDEST SWAP3 POP POP DUP2 SWAP1 SSTORE POP PUSH2 0x2799 JUMP JUMPDEST PUSH1 0x0 DUP1 PUSH1 0x0 DUP6 PUSH20 0xFFFFFFFFFFFFFFFFFFFFFFFFFFFFFFFFFFFFFFFF AND PUSH20 0xFFFFFFFFFFFFFFFFFFFFFFFFFFFFFFFFFFFFFFFF AND DUP2 MSTORE PUSH1 0x20 ADD SWAP1 DUP2 MSTORE PUSH1 0x20 ADD PUSH1 0x0 KECCAK256 SLOAD SWAP1 POP DUP2 DUP2 LT ISZERO PUSH2 0x2752 JUMPI DUP4 DUP2 DUP4 PUSH1 0x40 MLOAD PUSH32 0xE450D38C00000000000000000000000000000000000000000000000000000000 DUP2 MSTORE PUSH1 0x4 ADD PUSH2 0x2749 SWAP4 SWAP3 SWAP2 SWAP1 PUSH2 0x36D2 JUMP JUMPDEST PUSH1 0x40 MLOAD DUP1 SWAP2 SUB SWAP1 REVERT JUMPDEST DUP2 DUP2 SUB PUSH1 0x0 DUP1 DUP7 PUSH20 0xFFFFFFFFFFFFFFFFFFFFFFFFFFFFFFFFFFFFFFFF AND PUSH20 0xFFFFFFFFFFFFFFFFFFFFFFFFFFFFFFFFFFFFFFFF AND DUP2 MSTORE PUSH1 0x20 ADD SWAP1 DUP2 MSTORE PUSH1 0x20 ADD PUSH1 0x0 KECCAK256 DUP2 SWAP1 SSTORE POP POP JUMPDEST PUSH1 0x0 PUSH20 0xFFFFFFFFFFFFFFFFFFFFFFFFFFFFFFFFFFFFFFFF AND DUP3 PUSH20 0xFFFFFFFFFFFFFFFFFFFFFFFFFFFFFFFFFFFFFFFF AND SUB PUSH2 0x27E2 JUMPI DUP1 PUSH1 0x2 PUSH1 0x0 DUP3 DUP3 SLOAD SUB SWAP3 POP POP DUP2 SWAP1 SSTORE POP PUSH2 0x282F JUMP JUMPDEST DUP1 PUSH1 0x0 DUP1 DUP5 PUSH20 0xFFFFFFFFFFFFFFFFFFFFFFFFFFFFFFFFFFFFFFFF AND PUSH20 0xFFFFFFFFFFFFFFFFFFFFFFFFFFFFFFFFFFFFFFFF AND DUP2 MSTORE PUSH1 0x20 ADD SWAP1 DUP2 MSTORE PUSH1 0x20 ADD PUSH1 0x0 KECCAK256 PUSH1 0x0 DUP3 DUP3 SLOAD ADD SWAP3 POP POP DUP2 SWAP1 SSTORE POP JUMPDEST DUP2 PUSH20 0xFFFFFFFFFFFFFFFFFFFFFFFFFFFFFFFFFFFFFFFF AND DUP4 PUSH20 0xFFFFFFFFFFFFFFFFFFFFFFFFFFFFFFFFFFFFFFFF AND PUSH32 0xDDF252AD1BE2C89B69C2B068FC378DAA952BA7F163C4A11628F55A4DF523B3EF DUP4 PUSH1 0x40 MLOAD PUSH2 0x288C SWAP2 SWAP1 PUSH2 0x2F17 JUMP JUMPDEST PUSH1 0x40 MLOAD DUP1 SWAP2 SUB SWAP1 LOG3 POP POP POP JUMP JUMPDEST PUSH1 0x0 PUSH2 0x28A5 DUP4 DUP4 PUSH2 0x15C3 JUMP JUMPDEST PUSH2 0x2980 JUMPI PUSH1 0x1 PUSH1 0x5 PUSH1 0x0 DUP6 DUP2 MSTORE PUSH1 0x20 ADD SWAP1 DUP2 MSTORE PUSH1 0x20 ADD PUSH1 0x0 KECCAK256 PUSH1 0x0 ADD PUSH1 0x0 DUP5 PUSH20 0xFFFFFFFFFFFFFFFFFFFFFFFFFFFFFFFFFFFFFFFF AND PUSH20 0xFFFFFFFFFFFFFFFFFFFFFFFFFFFFFFFFFFFFFFFF AND DUP2 MSTORE PUSH1 0x20 ADD SWAP1 DUP2 MSTORE PUSH1 0x20 ADD PUSH1 0x0 KECCAK256 PUSH1 0x0 PUSH2 0x100 EXP DUP2 SLOAD DUP2 PUSH1 0xFF MUL NOT AND SWAP1 DUP4 ISZERO ISZERO MUL OR SWAP1 SSTORE POP PUSH2 0x291D PUSH2 0x1E98 JUMP JUMPDEST PUSH20 0xFFFFFFFFFFFFFFFFFFFFFFFFFFFFFFFFFFFFFFFF AND DUP3 PUSH20 0xFFFFFFFFFFFFFFFFFFFFFFFFFFFFFFFFFFFFFFFF AND DUP5 PUSH32 0x2F8788117E7EFF1D82E926EC794901D17C78024A50270940304540A733656F0D PUSH1 0x40 MLOAD PUSH1 0x40 MLOAD DUP1 SWAP2 SUB SWAP1 LOG4 PUSH1 0x1 SWAP1 POP PUSH2 0x2985 JUMP JUMPDEST PUSH1 0x0 SWAP1 POP JUMPDEST SWAP3 SWAP2 POP POP JUMP JUMPDEST PUSH1 0x0 PUSH2 0x2997 DUP4 DUP4 PUSH2 0x15C3 JUMP JUMPDEST ISZERO PUSH2 0x2A73 JUMPI PUSH1 0x0 PUSH1 0x5 PUSH1 0x0 DUP6 DUP2 MSTORE PUSH1 0x20 ADD SWAP1 DUP2 MSTORE PUSH1 0x20 ADD PUSH1 0x0 KECCAK256 PUSH1 0x0 ADD PUSH1 0x0 DUP5 PUSH20 0xFFFFFFFFFFFFFFFFFFFFFFFFFFFFFFFFFFFFFFFF AND PUSH20 0xFFFFFFFFFFFFFFFFFFFFFFFFFFFFFFFFFFFFFFFF AND DUP2 MSTORE PUSH1 0x20 ADD SWAP1 DUP2 MSTORE PUSH1 0x20 ADD PUSH1 0x0 KECCAK256 PUSH1 0x0 PUSH2 0x100 EXP DUP2 SLOAD DUP2 PUSH1 0xFF MUL NOT AND SWAP1 DUP4 ISZERO ISZERO MUL OR SWAP1 SSTORE POP PUSH2 0x2A10 PUSH2 0x1E98 JUMP JUMPDEST PUSH20 0xFFFFFFFFFFFFFFFFFFFFFFFFFFFFFFFFFFFFFFFF AND DUP3 PUSH20 0xFFFFFFFFFFFFFFFFFFFFFFFFFFFFFFFFFFFFFFFF AND DUP5 PUSH32 0xF6391F5C32D9C69D2A47EA670B442974B53935D1EDC7FD64EB21E047A839171B PUSH1 0x40 MLOAD PUSH1 0x40 MLOAD DUP1 SWAP2 SUB SWAP1 LOG4 PUSH1 0x1 SWAP1 POP PUSH2 0x2A78 JUMP JUMPDEST PUSH1 0x0 SWAP1 POP JUMPDEST SWAP3 SWAP2 POP POP JUMP JUMPDEST PUSH1 0x0 DUP1 DUP4 PUSH1 0x1 ADD PUSH1 0x0 DUP5 DUP2 MSTORE PUSH1 0x20 ADD SWAP1 DUP2 MSTORE PUSH1 0x20 ADD PUSH1 0x0 KECCAK256 SLOAD EQ ISZERO SWAP1 POP SWAP3 SWAP2 POP POP JUMP JUMPDEST PUSH1 0x0 PUSH2 0x2AAD DUP4 DUP4 PUSH2 0x2A7E JUMP JUMPDEST PUSH2 0x2B06 JUMPI DUP3 PUSH1 0x0 ADD DUP3 SWAP1 DUP1 PUSH1 0x1 DUP2 SLOAD ADD DUP1 DUP3 SSTORE DUP1 SWAP2 POP POP PUSH1 0x1 SWAP1 SUB SWAP1 PUSH1 0x0 MSTORE PUSH1 0x20 PUSH1 0x0 KECCAK256 ADD PUSH1 0x0 SWAP1 SWAP2 SWAP1 SWAP2 SWAP1 SWAP2 POP SSTORE DUP3 PUSH1 0x0 ADD DUP1 SLOAD SWAP1 POP DUP4 PUSH1 0x1 ADD PUSH1 0x0 DUP5 DUP2 MSTORE PUSH1 0x20 ADD SWAP1 DUP2 MSTORE PUSH1 0x20 ADD PUSH1 0x0 KECCAK256 DUP2 SWAP1 SSTORE POP PUSH1 0x1 SWAP1 POP PUSH2 0x2B0B JUMP JUMPDEST PUSH1 0x0 SWAP1 POP JUMPDEST SWAP3 SWAP2 POP POP JUMP JUMPDEST PUSH1 0x0 DUP1 DUP4 PUSH1 0x1 ADD PUSH1 0x0 DUP5 DUP2 MSTORE PUSH1 0x20 ADD SWAP1 DUP2 MSTORE PUSH1 0x20 ADD PUSH1 0x0 KECCAK256 SLOAD SWAP1 POP PUSH1 0x0 DUP2 EQ PUSH2 0x2C19 JUMPI PUSH1 0x0 PUSH1 0x1 DUP3 PUSH2 0x2B43 SWAP2 SWAP1 PUSH2 0x3732 JUMP JUMPDEST SWAP1 POP PUSH1 0x0 PUSH1 0x1 DUP7 PUSH1 0x0 ADD DUP1 SLOAD SWAP1 POP PUSH2 0x2B5B SWAP2 SWAP1 PUSH2 0x3732 JUMP JUMPDEST SWAP1 POP DUP1 DUP3 EQ PUSH2 0x2BCA JUMPI PUSH1 0x0 DUP7 PUSH1 0x0 ADD DUP3 DUP2 SLOAD DUP2 LT PUSH2 0x2B7C JUMPI PUSH2 0x2B7B PUSH2 0x3766 JUMP JUMPDEST JUMPDEST SWAP1 PUSH1 0x0 MSTORE PUSH1 0x20 PUSH1 0x0 KECCAK256 ADD SLOAD SWAP1 POP DUP1 DUP8 PUSH1 0x0 ADD DUP5 DUP2 SLOAD DUP2 LT PUSH2 0x2BA0 JUMPI PUSH2 0x2B9F PUSH2 0x3766 JUMP JUMPDEST JUMPDEST SWAP1 PUSH1 0x0 MSTORE PUSH1 0x20 PUSH1 0x0 KECCAK256 ADD DUP2 SWAP1 SSTORE POP DUP4 DUP8 PUSH1 0x1 ADD PUSH1 0x0 DUP4 DUP2 MSTORE PUSH1 0x20 ADD SWAP1 DUP2 MSTORE PUSH1 0x20 ADD PUSH1 0x0 KECCAK256 DUP2 SWAP1 SSTORE POP POP JUMPDEST DUP6 PUSH1 0x0 ADD DUP1 SLOAD DUP1 PUSH2 0x2BDE JUMPI PUSH2 0x2BDD PUSH2 0x3795 JUMP JUMPDEST JUMPDEST PUSH1 0x1 SWAP1 SUB DUP2 DUP2 SWAP1 PUSH1 0x0 MSTORE PUSH1 0x20 PUSH1 0x0 KECCAK256 ADD PUSH1 0x0 SWAP1 SSTORE SWAP1 SSTORE DUP6 PUSH1 0x1 ADD PUSH1 0x0 DUP7 DUP2 MSTORE PUSH1 0x20 ADD SWAP1 DUP2 MSTORE PUSH1 0x20 ADD PUSH1 0x0 KECCAK256 PUSH1 0x0 SWAP1 SSTORE PUSH1 0x1 SWAP4 POP POP POP POP PUSH2 0x2C1F JUMP JUMPDEST PUSH1 0x0 SWAP2 POP POP JUMPDEST SWAP3 SWAP2 POP POP JUMP JUMPDEST PUSH1 0x0 DUP3 PUSH1 0x0 ADD DUP3 DUP2 SLOAD DUP2 LT PUSH2 0x2C3D JUMPI PUSH2 0x2C3C PUSH2 0x3766 JUMP JUMPDEST JUMPDEST SWAP1 PUSH1 0x0 MSTORE PUSH1 0x20 PUSH1 0x0 KECCAK256 ADD SLOAD SWAP1 POP SWAP3 SWAP2 POP POP JUMP JUMPDEST PUSH1 0x0 DUP2 PUSH1 0x0 ADD DUP1 SLOAD SWAP1 POP SWAP1 POP SWAP2 SWAP1 POP JUMP JUMPDEST PUSH1 0x0 DUP1 REVERT JUMPDEST PUSH1 0x0 PUSH32 0xFFFFFFFF00000000000000000000000000000000000000000000000000000000 DUP3 AND SWAP1 POP SWAP2 SWAP1 POP JUMP JUMPDEST PUSH2 0x2C9B DUP2 PUSH2 0x2C66 JUMP JUMPDEST DUP2 EQ PUSH2 0x2CA6 JUMPI PUSH1 0x0 DUP1 REVERT JUMPDEST POP JUMP JUMPDEST PUSH1 0x0 DUP2 CALLDATALOAD SWAP1 POP PUSH2 0x2CB8 DUP2 PUSH2 0x2C92 JUMP JUMPDEST SWAP3 SWAP2 POP POP JUMP JUMPDEST PUSH1 0x0 PUSH1 0x20 DUP3 DUP5 SUB SLT ISZERO PUSH2 0x2CD4 JUMPI PUSH2 0x2CD3 PUSH2 0x2C61 JUMP JUMPDEST JUMPDEST PUSH1 0x0 PUSH2 0x2CE2 DUP5 DUP3 DUP6 ADD PUSH2 0x2CA9 JUMP JUMPDEST SWAP2 POP POP SWAP3 SWAP2 POP POP JUMP JUMPDEST PUSH1 0x0 DUP2 ISZERO ISZERO SWAP1 POP SWAP2 SWAP1 POP JUMP JUMPDEST PUSH2 0x2D00 DUP2 PUSH2 0x2CEB JUMP JUMPDEST DUP3 MSTORE POP POP JUMP JUMPDEST PUSH1 0x0 PUSH1 0x20 DUP3 ADD SWAP1 POP PUSH2 0x2D1B PUSH1 0x0 DUP4 ADD DUP5 PUSH2 0x2CF7 JUMP JUMPDEST SWAP3 SWAP2 POP POP JUMP JUMPDEST PUSH1 0x0 PUSH20 0xFFFFFFFFFFFFFFFFFFFFFFFFFFFFFFFFFFFFFFFF DUP3 AND SWAP1 POP SWAP2 SWAP1 POP JUMP JUMPDEST PUSH1 0x0 PUSH2 0x2D4C DUP3 PUSH2 0x2D21 JUMP JUMPDEST SWAP1 POP SWAP2 SWAP1 POP JUMP JUMPDEST PUSH2 0x2D5C DUP2 PUSH2 0x2D41 JUMP JUMPDEST DUP2 EQ PUSH2 0x2D67 JUMPI PUSH1 0x0 DUP1 REVERT JUMPDEST POP JUMP JUMPDEST PUSH1 0x0 DUP2 CALLDATALOAD SWAP1 POP PUSH2 0x2D79 DUP2 PUSH2 0x2D53 JUMP JUMPDEST SWAP3 SWAP2 POP POP JUMP JUMPDEST PUSH1 0x0 PUSH1 0x20 DUP3 DUP5 SUB SLT ISZERO PUSH2 0x2D95 JUMPI PUSH2 0x2D94 PUSH2 0x2C61 JUMP JUMPDEST JUMPDEST PUSH1 0x0 PUSH2 0x2DA3 DUP5 DUP3 DUP6 ADD PUSH2 0x2D6A JUMP JUMPDEST SWAP2 POP POP SWAP3 SWAP2 POP POP JUMP JUMPDEST PUSH1 0x0 DUP2 SWAP1 POP SWAP2 SWAP1 POP JUMP JUMPDEST PUSH2 0x2DBF DUP2 PUSH2 0x2DAC JUMP JUMPDEST DUP3 MSTORE POP POP JUMP JUMPDEST PUSH1 0x0 PUSH1 0x20 DUP3 ADD SWAP1 POP PUSH2 0x2DDA PUSH1 0x0 DUP4 ADD DUP5 PUSH2 0x2DB6 JUMP JUMPDEST SWAP3 SWAP2 POP POP JUMP JUMPDEST PUSH1 0x0 DUP2 MLOAD SWAP1 POP SWAP2 SWAP1 POP JUMP JUMPDEST PUSH1 0x0 DUP3 DUP3 MSTORE PUSH1 0x20 DUP3 ADD SWAP1 POP SWAP3 SWAP2 POP POP JUMP JUMPDEST PUSH1 0x0 JUMPDEST DUP4 DUP2 LT ISZERO PUSH2 0x2E1A JUMPI DUP1 DUP3 ADD MLOAD DUP2 DUP5 ADD MSTORE PUSH1 0x20 DUP2 ADD SWAP1 POP PUSH2 0x2DFF JUMP JUMPDEST PUSH1 0x0 DUP5 DUP5 ADD MSTORE POP POP POP POP JUMP JUMPDEST PUSH1 0x0 PUSH1 0x1F NOT PUSH1 0x1F DUP4 ADD AND SWAP1 POP SWAP2 SWAP1 POP JUMP JUMPDEST PUSH1 0x0 PUSH2 0x2E42 DUP3 PUSH2 0x2DE0 JUMP JUMPDEST PUSH2 0x2E4C DUP2 DUP6 PUSH2 0x2DEB JUMP JUMPDEST SWAP4 POP PUSH2 0x2E5C DUP2 DUP6 PUSH1 0x20 DUP7 ADD PUSH2 0x2DFC JUMP JUMPDEST PUSH2 0x2E65 DUP2 PUSH2 0x2E26 JUMP JUMPDEST DUP5 ADD SWAP2 POP POP SWAP3 SWAP2 POP POP JUMP JUMPDEST PUSH1 0x0 PUSH1 0x20 DUP3 ADD SWAP1 POP DUP2 DUP2 SUB PUSH1 0x0 DUP4 ADD MSTORE PUSH2 0x2E8A DUP2 DUP5 PUSH2 0x2E37 JUMP JUMPDEST SWAP1 POP SWAP3 SWAP2 POP POP JUMP JUMPDEST PUSH1 0x0 DUP2 SWAP1 POP SWAP2 SWAP1 POP JUMP JUMPDEST PUSH2 0x2EA5 DUP2 PUSH2 0x2E92 JUMP JUMPDEST DUP2 EQ PUSH2 0x2EB0 JUMPI PUSH1 0x0 DUP1 REVERT JUMPDEST POP JUMP JUMPDEST PUSH1 0x0 DUP2 CALLDATALOAD SWAP1 POP PUSH2 0x2EC2 DUP2 PUSH2 0x2E9C JUMP JUMPDEST SWAP3 SWAP2 POP POP JUMP JUMPDEST PUSH1 0x0 DUP1 PUSH1 0x40 DUP4 DUP6 SUB SLT ISZERO PUSH2 0x2EDF JUMPI PUSH2 0x2EDE PUSH2 0x2C61 JUMP JUMPDEST JUMPDEST PUSH1 0x0 PUSH2 0x2EED DUP6 DUP3 DUP7 ADD PUSH2 0x2D6A JUMP JUMPDEST SWAP3 POP POP PUSH1 0x20 PUSH2 0x2EFE DUP6 DUP3 DUP7 ADD PUSH2 0x2EB3 JUMP JUMPDEST SWAP2 POP POP SWAP3 POP SWAP3 SWAP1 POP JUMP JUMPDEST PUSH2 0x2F11 DUP2 PUSH2 0x2E92 JUMP JUMPDEST DUP3 MSTORE POP POP JUMP JUMPDEST PUSH1 0x0 PUSH1 0x20 DUP3 ADD SWAP1 POP PUSH2 0x2F2C PUSH1 0x0 DUP4 ADD DUP5 PUSH2 0x2F08 JUMP JUMPDEST SWAP3 SWAP2 POP POP JUMP JUMPDEST PUSH1 0x0 DUP1 PUSH1 0x0 PUSH1 0x60 DUP5 DUP7 SUB SLT ISZERO PUSH2 0x2F4B JUMPI PUSH2 0x2F4A PUSH2 0x2C61 JUMP JUMPDEST JUMPDEST PUSH1 0x0 PUSH2 0x2F59 DUP7 DUP3 DUP8 ADD PUSH2 0x2D6A JUMP JUMPDEST SWAP4 POP POP PUSH1 0x20 PUSH2 0x2F6A DUP7 DUP3 DUP8 ADD PUSH2 0x2D6A JUMP JUMPDEST SWAP3 POP POP PUSH1 0x40 PUSH2 0x2F7B DUP7 DUP3 DUP8 ADD PUSH2 0x2EB3 JUMP JUMPDEST SWAP2 POP POP SWAP3 POP SWAP3 POP SWAP3 JUMP JUMPDEST PUSH2 0x2F8E DUP2 PUSH2 0x2DAC JUMP JUMPDEST DUP2 EQ PUSH2 0x2F99 JUMPI PUSH1 0x0 DUP1 REVERT JUMPDEST POP JUMP JUMPDEST PUSH1 0x0 DUP2 CALLDATALOAD SWAP1 POP PUSH2 0x2FAB DUP2 PUSH2 0x2F85 JUMP JUMPDEST SWAP3 SWAP2 POP POP JUMP JUMPDEST PUSH1 0x0 PUSH1 0x20 DUP3 DUP5 SUB SLT ISZERO PUSH2 0x2FC7 JUMPI PUSH2 0x2FC6 PUSH2 0x2C61 JUMP JUMPDEST JUMPDEST PUSH1 0x0 PUSH2 0x2FD5 DUP5 DUP3 DUP6 ADD PUSH2 0x2F9C JUMP JUMPDEST SWAP2 POP POP SWAP3 SWAP2 POP POP JUMP JUMPDEST PUSH1 0x0 DUP1 PUSH1 0x40 DUP4 DUP6 SUB SLT ISZERO PUSH2 0x2FF5 JUMPI PUSH2 0x2FF4 PUSH2 0x2C61 JUMP JUMPDEST JUMPDEST PUSH1 0x0 PUSH2 0x3003 DUP6 DUP3 DUP7 ADD PUSH2 0x2F9C JUMP JUMPDEST SWAP3 POP POP PUSH1 0x20 PUSH2 0x3014 DUP6 DUP3 DUP7 ADD PUSH2 0x2D6A JUMP JUMPDEST SWAP2 POP POP SWAP3 POP SWAP3 SWAP1 POP JUMP JUMPDEST PUSH1 0x0 PUSH1 0xFF DUP3 AND SWAP1 POP SWAP2 SWAP1 POP JUMP JUMPDEST PUSH2 0x3034 DUP2 PUSH2 0x301E JUMP JUMPDEST DUP3 MSTORE POP POP JUMP JUMPDEST PUSH1 0x0 PUSH1 0x20 DUP3 ADD SWAP1 POP PUSH2 0x304F PUSH1 0x0 DUP4 ADD DUP5 PUSH2 0x302B JUMP JUMPDEST SWAP3 SWAP2 POP POP JUMP JUMPDEST PUSH2 0x305E DUP2 PUSH2 0x2D41 JUMP JUMPDEST DUP3 MSTORE POP POP JUMP JUMPDEST PUSH1 0x0 PUSH1 0x20 DUP3 ADD SWAP1 POP PUSH2 0x3079 PUSH1 0x0 DUP4 ADD DUP5 PUSH2 0x3055 JUMP JUMPDEST SWAP3 SWAP2 POP POP JUMP JUMPDEST PUSH1 0x0 DUP1 PUSH1 0x40 DUP4 DUP6 SUB SLT ISZERO PUSH2 0x3096 JUMPI PUSH2 0x3095 PUSH2 0x2C61 JUMP JUMPDEST JUMPDEST PUSH1 0x0 PUSH2 0x30A4 DUP6 DUP3 DUP7 ADD PUSH2 0x2F9C JUMP JUMPDEST SWAP3 POP POP PUSH1 0x20 PUSH2 0x30B5 DUP6 DUP3 DUP7 ADD PUSH2 0x2EB3 JUMP JUMPDEST SWAP2 POP POP SWAP3 POP SWAP3 SWAP1 POP JUMP JUMPDEST PUSH1 0x0 DUP1 PUSH1 0x40 DUP4 DUP6 SUB SLT ISZERO PUSH2 0x30D6 JUMPI PUSH2 0x30D5 PUSH2 0x2C61 JUMP JUMPDEST JUMPDEST PUSH1 0x0 PUSH2 0x30E4 DUP6 DUP3 DUP7 ADD PUSH2 0x2D6A JUMP JUMPDEST SWAP3 POP POP PUSH1 0x20 PUSH2 0x30F5 DUP6 DUP3 DUP7 ADD PUSH2 0x2D6A JUMP JUMPDEST SWAP2 POP POP SWAP3 POP SWAP3 SWAP1 POP JUMP JUMPDEST PUSH32 0x4E487B7100000000000000000000000000000000000000000000000000000000 PUSH1 0x0 MSTORE PUSH1 0x11 PUSH1 0x4 MSTORE PUSH1 0x24 PUSH1 0x0 REVERT JUMPDEST PUSH1 0x0 PUSH2 0x3139 DUP3 PUSH2 0x2E92 JUMP JUMPDEST SWAP2 POP PUSH2 0x3144 DUP4 PUSH2 0x2E92 JUMP JUMPDEST SWAP3 POP DUP3 DUP3 ADD SWAP1 POP DUP1 DUP3 GT ISZERO PUSH2 0x315C JUMPI PUSH2 0x315B PUSH2 0x30FF JUMP JUMPDEST JUMPDEST SWAP3 SWAP2 POP POP JUMP JUMPDEST PUSH32 0x4E487B7100000000000000000000000000000000000000000000000000000000 PUSH1 0x0 MSTORE PUSH1 0x22 PUSH1 0x4 MSTORE PUSH1 0x24 PUSH1 0x0 REVERT JUMPDEST PUSH1 0x0 PUSH1 0x2 DUP3 DIV SWAP1 POP PUSH1 0x1 DUP3 AND DUP1 PUSH2 0x31A9 JUMPI PUSH1 0x7F DUP3 AND SWAP2 POP JUMPDEST PUSH1 0x20 DUP3 LT DUP2 SUB PUSH2 0x31BC JUMPI PUSH2 0x31BB PUSH2 0x3162 JUMP JUMPDEST JUMPDEST POP SWAP2 SWAP1 POP JUMP JUMPDEST PUSH32 0x5265636F766572792069732064697361626C6564000000000000000000000000 PUSH1 0x0 DUP3 ADD MSTORE POP JUMP JUMPDEST PUSH1 0x0 PUSH2 0x31F8 PUSH1 0x14 DUP4 PUSH2 0x2DEB JUMP JUMPDEST SWAP2 POP PUSH2 0x3203 DUP3 PUSH2 0x31C2 JUMP JUMPDEST PUSH1 0x20 DUP3 ADD SWAP1 POP SWAP2 SWAP1 POP JUMP JUMPDEST PUSH1 0x0 PUSH1 0x20 DUP3 ADD SWAP1 POP DUP2 DUP2 SUB PUSH1 0x0 DUP4 ADD MSTORE PUSH2 0x3227 DUP2 PUSH2 0x31EB JUMP JUMPDEST SWAP1 POP SWAP2 SWAP1 POP JUMP JUMPDEST PUSH32 0x4D696E74696E672069732064697361626C656400000000000000000000000000 PUSH1 0x0 DUP3 ADD MSTORE POP JUMP JUMPDEST PUSH1 0x0 PUSH2 0x3264 PUSH1 0x13 DUP4 PUSH2 0x2DEB JUMP JUMPDEST SWAP2 POP PUSH2 0x326F DUP3 PUSH2 0x322E JUMP JUMPDEST PUSH1 0x20 DUP3 ADD SWAP1 POP SWAP2 SWAP1 POP JUMP JUMPDEST PUSH1 0x0 PUSH1 0x20 DUP3 ADD SWAP1 POP DUP2 DUP2 SUB PUSH1 0x0 DUP4 ADD MSTORE PUSH2 0x3293 DUP2 PUSH2 0x3257 JUMP JUMPDEST SWAP1 POP SWAP2 SWAP1 POP JUMP JUMPDEST PUSH32 0x4163636F756E7420697320616C726561647920626C61636B6C69737465640000 PUSH1 0x0 DUP3 ADD MSTORE POP JUMP JUMPDEST PUSH1 0x0 PUSH2 0x32D0 PUSH1 0x1E DUP4 PUSH2 0x2DEB JUMP JUMPDEST SWAP2 POP PUSH2 0x32DB DUP3 PUSH2 0x329A JUMP JUMPDEST PUSH1 0x20 DUP3 ADD SWAP1 POP SWAP2 SWAP1 POP JUMP JUMPDEST PUSH1 0x0 PUSH1 0x20 DUP3 ADD SWAP1 POP DUP2 DUP2 SUB PUSH1 0x0 DUP4 ADD MSTORE PUSH2 0x32FF DUP2 PUSH2 0x32C3 JUMP JUMPDEST SWAP1 POP SWAP2 SWAP1 POP JUMP JUMPDEST PUSH32 0x426C61636B6C6973742069732064697361626C65640000000000000000000000 PUSH1 0x0 DUP3 ADD MSTORE POP JUMP JUMPDEST PUSH1 0x0 PUSH2 0x333C PUSH1 0x15 DUP4 PUSH2 0x2DEB JUMP JUMPDEST SWAP2 POP PUSH2 0x3347 DUP3 PUSH2 0x3306 JUMP JUMPDEST PUSH1 0x20 DUP3 ADD SWAP1 POP SWAP2 SWAP1 POP JUMP JUMPDEST PUSH1 0x0 PUSH1 0x20 DUP3 ADD SWAP1 POP DUP2 DUP2 SUB PUSH1 0x0 DUP4 ADD MSTORE PUSH2 0x336B DUP2 PUSH2 0x332F JUMP JUMPDEST SWAP1 POP SWAP2 SWAP1 POP JUMP JUMPDEST PUSH32 0x4163636F756E74206973206E6F7420626C61636B6C6973746564000000000000 PUSH1 0x0 DUP3 ADD MSTORE POP JUMP JUMPDEST PUSH1 0x0 PUSH2 0x33A8 PUSH1 0x1A DUP4 PUSH2 0x2DEB JUMP JUMPDEST SWAP2 POP PUSH2 0x33B3 DUP3 PUSH2 0x3372 JUMP JUMPDEST PUSH1 0x20 DUP3 ADD SWAP1 POP SWAP2 SWAP1 POP JUMP JUMPDEST PUSH1 0x0 PUSH1 0x20 DUP3 ADD SWAP1 POP DUP2 DUP2 SUB PUSH1 0x0 DUP4 ADD MSTORE PUSH2 0x33D7 DUP2 PUSH2 0x339B JUMP JUMPDEST SWAP1 POP SWAP2 SWAP1 POP JUMP JUMPDEST PUSH32 0x4163636F756E74206973206E6F742066726F7A656E0000000000000000000000 PUSH1 0x0 DUP3 ADD MSTORE POP JUMP JUMPDEST PUSH1 0x0 PUSH2 0x3414 PUSH1 0x15 DUP4 PUSH2 0x2DEB JUMP JUMPDEST SWAP2 POP PUSH2 0x341F DUP3 PUSH2 0x33DE JUMP JUMPDEST PUSH1 0x20 DUP3 ADD SWAP1 POP SWAP2 SWAP1 POP JUMP JUMPDEST PUSH1 0x0 PUSH1 0x20 DUP3 ADD SWAP1 POP DUP2 DUP2 SUB PUSH1 0x0 DUP4 ADD MSTORE PUSH2 0x3443 DUP2 PUSH2 0x3407 JUMP JUMPDEST SWAP1 POP SWAP2 SWAP1 POP JUMP JUMPDEST PUSH32 0x4275726E696E672069732064697361626C656400000000000000000000000000 PUSH1 0x0 DUP3 ADD MSTORE POP JUMP JUMPDEST PUSH1 0x0 PUSH2 0x3480 PUSH1 0x13 DUP4 PUSH2 0x2DEB JUMP JUMPDEST SWAP2 POP PUSH2 0x348B DUP3 PUSH2 0x344A JUMP JUMPDEST PUSH1 0x20 DUP3 ADD SWAP1 POP SWAP2 SWAP1 POP JUMP JUMPDEST PUSH1 0x0 PUSH1 0x20 DUP3 ADD SWAP1 POP DUP2 DUP2 SUB PUSH1 0x0 DUP4 ADD MSTORE PUSH2 0x34AF DUP2 PUSH2 0x3473 JUMP JUMPDEST SWAP1 POP SWAP2 SWAP1 POP JUMP JUMPDEST PUSH32 0x53656E646572206163636F756E742069732066726F7A656E0000000000000000 PUSH1 0x0 DUP3 ADD MSTORE POP JUMP JUMPDEST PUSH1 0x0 PUSH2 0x34EC PUSH1 0x18 DUP4 PUSH2 0x2DEB JUMP JUMPDEST SWAP2 POP PUSH2 0x34F7 DUP3 PUSH2 0x34B6 JUMP JUMPDEST PUSH1 0x20 DUP3 ADD SWAP1 POP SWAP2 SWAP1 POP JUMP JUMPDEST PUSH1 0x0 PUSH1 0x20 DUP3 ADD SWAP1 POP DUP2 DUP2 SUB PUSH1 0x0 DUP4 ADD MSTORE PUSH2 0x351B DUP2 PUSH2 0x34DF JUMP JUMPDEST SWAP1 POP SWAP2 SWAP1 POP JUMP JUMPDEST PUSH32 0x53656E646572206163636F756E7420697320626C61636B6C6973746564000000 PUSH1 0x0 DUP3 ADD MSTORE POP JUMP JUMPDEST PUSH1 0x0 PUSH2 0x3558 PUSH1 0x1D DUP4 PUSH2 0x2DEB JUMP JUMPDEST SWAP2 POP PUSH2 0x3563 DUP3 PUSH2 0x3522 JUMP JUMPDEST PUSH1 0x20 DUP3 ADD SWAP1 POP SWAP2 SWAP1 POP JUMP JUMPDEST PUSH1 0x0 PUSH1 0x20 DUP3 ADD SWAP1 POP DUP2 DUP2 SUB PUSH1 0x0 DUP4 ADD MSTORE PUSH2 0x3587 DUP2 PUSH2 0x354B JUMP JUMPDEST SWAP1 POP SWAP2 SWAP1 POP JUMP JUMPDEST PUSH32 0x526563697069656E74206163636F756E7420697320626C61636B6C6973746564 PUSH1 0x0 DUP3 ADD MSTORE POP JUMP JUMPDEST PUSH1 0x0 PUSH2 0x35C4 PUSH1 0x20 DUP4 PUSH2 0x2DEB JUMP JUMPDEST SWAP2 POP PUSH2 0x35CF DUP3 PUSH2 0x358E JUMP JUMPDEST PUSH1 0x20 DUP3 ADD SWAP1 POP SWAP2 SWAP1 POP JUMP JUMPDEST PUSH1 0x0 PUSH1 0x20 DUP3 ADD SWAP1 POP DUP2 DUP2 SUB PUSH1 0x0 DUP4 ADD MSTORE PUSH2 0x35F3 DUP2 PUSH2 0x35B7 JUMP JUMPDEST SWAP1 POP SWAP2 SWAP1 POP JUMP JUMPDEST PUSH32 0x4163636F756E7420697320616C72656164792066726F7A656E00000000000000 PUSH1 0x0 DUP3 ADD MSTORE POP JUMP JUMPDEST PUSH1 0x0 PUSH2 0x3630 PUSH1 0x19 DUP4 PUSH2 0x2DEB JUMP JUMPDEST SWAP2 POP PUSH2 0x363B DUP3 PUSH2 0x35FA JUMP JUMPDEST PUSH1 0x20 DUP3 ADD SWAP1 POP SWAP2 SWAP1 POP JUMP JUMPDEST PUSH1 0x0 PUSH1 0x20 DUP3 ADD SWAP1 POP DUP2 DUP2 SUB PUSH1 0x0 DUP4 ADD MSTORE PUSH2 0x365F DUP2 PUSH2 0x3623 JUMP JUMPDEST SWAP1 POP SWAP2 SWAP1 POP JUMP JUMPDEST PUSH32 0x467265657A696E672069732064697361626C6564000000000000000000000000 PUSH1 0x0 DUP3 ADD MSTORE POP JUMP JUMPDEST PUSH1 0x0 PUSH2 0x369C PUSH1 0x14 DUP4 PUSH2 0x2DEB JUMP JUMPDEST SWAP2 POP PUSH2 0x36A7 DUP3 PUSH2 0x3666 JUMP JUMPDEST PUSH1 0x20 DUP3 ADD SWAP1 POP SWAP2 SWAP1 POP JUMP JUMPDEST PUSH1 0x0 PUSH1 0x20 DUP3 ADD SWAP1 POP DUP2 DUP2 SUB PUSH1 0x0 DUP4 ADD MSTORE PUSH2 0x36CB DUP2 PUSH2 0x368F JUMP JUMPDEST SWAP1 POP SWAP2 SWAP1 POP JUMP JUMPDEST PUSH1 0x0 PUSH1 0x60 DUP3 ADD SWAP1 POP PUSH2 0x36E7 PUSH1 0x0 DUP4 ADD DUP7 PUSH2 0x3055 JUMP JUMPDEST PUSH2 0x36F4 PUSH1 0x20 DUP4 ADD DUP6 PUSH2 0x2F08 JUMP JUMPDEST PUSH2 0x3701 PUSH1 0x40 DUP4 ADD DUP5 PUSH2 0x2F08 JUMP JUMPDEST SWAP5 SWAP4 POP POP POP POP JUMP JUMPDEST PUSH1 0x0 PUSH1 0x40 DUP3 ADD SWAP1 POP PUSH2 0x371E PUSH1 0x0 DUP4 ADD DUP6 PUSH2 0x3055 JUMP JUMPDEST PUSH2 0x372B PUSH1 0x20 DUP4 ADD DUP5 PUSH2 0x2DB6 JUMP JUMPDEST SWAP4 SWAP3 POP POP POP JUMP JUMPDEST PUSH1 0x0 PUSH2 0x373D DUP3 PUSH2 0x2E92 JUMP JUMPDEST SWAP2 POP PUSH2 0x3748 DUP4 PUSH2 0x2E92 JUMP JUMPDEST SWAP3 POP DUP3 DUP3 SUB SWAP1 POP DUP2 DUP2 GT ISZERO PUSH2 0x3760 JUMPI PUSH2 0x375F PUSH2 0x30FF JUMP JUMPDEST JUMPDEST SWAP3 SWAP2 POP POP JUMP JUMPDEST PUSH32 0x4E487B7100000000000000000000000000000000000000000000000000000000 PUSH1 0x0 MSTORE PUSH1 0x32 PUSH1 0x4 MSTORE PUSH1 0x24 PUSH1 0x0 REVERT JUMPDEST PUSH32 0x4E487B7100000000000000000000000000000000000000000000000000000000 PUSH1 0x0 MSTORE PUSH1 0x31 PUSH1 0x4 MSTORE PUSH1 0x24 PUSH1 0x0 REVERT INVALID LOG2 PUSH5 0x6970667358 0x22 SLT KECCAK256 PUSH20 0xB4E20102678B9CC114510DD644CE01CB08AD50A8 SELFBALANCE KECCAK256 0xAC 0xA6 0xBB RETURNDATACOPY NOT 0xB9 PUSH4 0x46716473 PUSH16 0x6C634300081800330000000000000000 "},"methodIdentifiers":{"BLACKLIST_MANAGER_ROLE()":"410b2424","BURNER_ROLE()":"282c51f3","DEFAULT_ADMIN_ROLE()":"a217fddf","FREEZER_ROLE()":"06a85f0f","MINTER_ROLE()":"d5391393","RECOVER_ROLE()":"939bcbc9","addBlacklistManager(address)":"0eff2afc","addBurner(address)":"f44637ba","addFreezer(address)":"526606c9","addMinter(address)":"983b2d56","addRecoverer(address)":"c2134b23","addToBlacklist(address)":"44337ea1","allowance(address,address)":"dd62ed3e","approve(address,uint256)":"095ea7b3","balanceOf(address)":"70a08231","burn(address,uint256)":"9dc29fac","checkBlacklisted(address)":"71fb7493","checkFrozen(address)":"a04a85c0","decimals()":"313ce567","freezeAccount(address)":"f26c159f","getRoleAdmin(bytes32)":"248a9ca3","getRoleMember(bytes32,uint256)":"9010d07c","getRoleMemberCount(bytes32)":"ca15c873","grantRole(bytes32,address)":"2f2ff15d","hasRole(bytes32,address)":"91d14854","isBlacklistable()":"b319031c","isBurnable()":"883356d9","isFreezable()":"38fdd650","isMintable()":"46b45af7","isRecoverable()":"d7241144","mint(address,uint256)":"40c10f19","name()":"06fdde03","owner()":"8da5cb5b","points()":"1be6dd64","recover(address,address,uint256)":"1ec82cb8","removeBlacklistManager(address)":"974b368c","removeBurner(address)":"02846858","removeFreezer(address)":"2acd2000","removeFromBlacklist(address)":"537df3b6","removeMinter(address)":"3092afd5","removeRecoverer(address)":"d1c2de0a","renounceOwnership()":"715018a6","renounceRole(bytes32,address)":"36568abe","revokeBlacklistManager()":"7c202fc9","revokeBurner()":"f1f2e51c","revokeFreezer()":"9140052b","revokeMinter()":"585212fb","revokeRecoverer()":"805a9d5a","revokeRole(bytes32,address)":"d547741f","supportsInterface(bytes4)":"01ffc9a7","symbol()":"95d89b41","totalSupply()":"18160ddd","transfer(address,uint256)":"a9059cbb","transferFrom(address,address,uint256)":"23b872dd","transferOwnership(address)":"f2fde38b","unfreezeAccount(address)":"788649ea"}}}}}