{
  "_format": "hh-sol-artifact-1",
  "contractName": "multiV1",
  "sourceName": "contracts/Multisend/multi.sol",
  "abi": [
    {
      "inputs": [],
      "stateMutability": "nonpayable",
      "type": "constructor"
    },
    {
      "inputs": [
        {
          "internalType": "address[]",
          "name": "receiver",
          "type": "address[]"
        },
        {
          "internalType": "uint256[]",
          "name": "amount",
          "type": "uint256[]"
        }
      ],
      "name": "multisender",
      "outputs": [],
      "stateMutability": "payable",
      "type": "function"
    },
    {
      "inputs": [],
      "name": "owner",
      "outputs": [
        {
          "internalType": "address",
          "name": "",
          "type": "address"
        }
      ],
      "stateMutability": "view",
      "type": "function"
    },
    {
      "inputs": [],
      "name": "withDraw",
      "outputs": [],
      "stateMutability": "payable",
      "type": "function"
    }
  ],
  "bytecode": "0x608060405234801561001057600080fd5b50336000806101000a81548173ffffffffffffffffffffffffffffffffffffffff021916908373ffffffffffffffffffffffffffffffffffffffff160217905550610915806100606000396000f3fe6080604052600436106100345760003560e01c80630fdb1c101461003957806353164130146100435780638da5cb5b1461005f575b600080fd5b61004161008a565b005b61005d600480360381019061005891906105ee565b610161565b005b34801561006b57600080fd5b50610074610306565b6040516100819190610675565b60405180910390f35b60008054906101000a900473ffffffffffffffffffffffffffffffffffffffff1673ffffffffffffffffffffffffffffffffffffffff163373ffffffffffffffffffffffffffffffffffffffff1614610118576040517f08c379a000000000000000000000000000000000000000000000000000000000815260040161010f906106ed565b60405180910390fd5b3373ffffffffffffffffffffffffffffffffffffffff166108fc479081150290604051600060405180830381858888f1935050505015801561015e573d6000803e3d6000fd5b50565b6000655af3107a4000905060006064905082518451146101b6576040517f08c379a00000000000000000000000000000000000000000000000000000000081526004016101ad9061077f565b60405180910390fd5b80845111156101c457600080fd5b60008080600090505b855181101561020b578581815181106101e9576101e861079f565b5b6020026020010151836101fc91906107fd565b925080806001019150506101cd565b508551846102199190610831565b9050808261022791906107fd565b341015610269576040517f08c379a0000000000000000000000000000000000000000000000000000000008152600401610260906108bf565b60405180910390fd5b60005b86518110156102fd578681815181106102885761028761079f565b5b602002602001015173ffffffffffffffffffffffffffffffffffffffff166108fc8783815181106102bc576102bb61079f565b5b60200260200101519081150290604051600060405180830381858888f193505050501580156102ef573d6000803e3d6000fd5b50808060010191505061026c565b50505050505050565b60008054906101000a900473ffffffffffffffffffffffffffffffffffffffff1681565b6000604051905090565b600080fd5b600080fd5b600080fd5b6000601f19601f8301169050919050565b7f4e487b7100000000000000000000000000000000000000000000000000000000600052604160045260246000fd5b61038c82610343565b810181811067ffffffffffffffff821117156103ab576103aa610354565b5b80604052505050565b60006103be61032a565b90506103ca8282610383565b919050565b600067ffffffffffffffff8211156103ea576103e9610354565b5b602082029050602081019050919050565b600080fd5b600073ffffffffffffffffffffffffffffffffffffffff82169050919050565b600061042b82610400565b9050919050565b61043b81610420565b811461044657600080fd5b50565b60008135905061045881610432565b92915050565b600061047161046c846103cf565b6103b4565b90508083825260208201905060208402830185811115610494576104936103fb565b5b835b818110156104bd57806104a98882610449565b845260208401935050602081019050610496565b5050509392505050565b600082601f8301126104dc576104db61033e565b5b81356104ec84826020860161045e565b91505092915050565b600067ffffffffffffffff8211156105105761050f610354565b5b602082029050602081019050919050565b6000819050919050565b61053481610521565b811461053f57600080fd5b50565b6000813590506105518161052b565b92915050565b600061056a610565846104f5565b6103b4565b9050808382526020820190506020840283018581111561058d5761058c6103fb565b5b835b818110156105b657806105a28882610542565b84526020840193505060208101905061058f565b5050509392505050565b600082601f8301126105d5576105d461033e565b5b81356105e5848260208601610557565b91505092915050565b6000806040838503121561060557610604610334565b5b600083013567ffffffffffffffff81111561062357610622610339565b5b61062f858286016104c7565b925050602083013567ffffffffffffffff8111156106505761064f610339565b5b61065c858286016105c0565b9150509250929050565b61066f81610420565b82525050565b600060208201905061068a6000830184610666565b92915050565b600082825260208201905092915050565b7f796f7520617265206e6f7420746865206f776e65720000000000000000000000600082015250565b60006106d7601583610690565b91506106e2826106a1565b602082019050919050565b60006020820190508181036000830152610706816106ca565b9050919050565b7f436865636b206e756d626572206f6620616464726573732c207265636569766560008201527f7200000000000000000000000000000000000000000000000000000000000000602082015250565b6000610769602183610690565b91506107748261070d565b604082019050919050565b600060208201905081810360008301526107988161075c565b9050919050565b7f4e487b7100000000000000000000000000000000000000000000000000000000600052603260045260246000fd5b7f4e487b7100000000000000000000000000000000000000000000000000000000600052601160045260246000fd5b600061080882610521565b915061081383610521565b925082820190508082111561082b5761082a6107ce565b5b92915050565b600061083c82610521565b915061084783610521565b925082820261085581610521565b9150828204841483151761086c5761086b6107ce565b5b5092915050565b7f4e6f7420656e6f7567682045746865722073656e740000000000000000000000600082015250565b60006108a9601583610690565b91506108b482610873565b602082019050919050565b600060208201905081810360008301526108d88161089c565b905091905056fea26469706673582212209d39ae367550740d8518157b70b6caf1df7db061172944b159d74cac8d6100b464736f6c63430008180033",
  "linkReferences": {},
  "deployedLinkReferences": {}
}